{"contracts/Project.sol":{"Project":{"abi":[{"inputs":[{"internalType":"address","name":"_organizer","type":"address"},{"internalType":"string","name":"_title","type":"string"},{"internalType":"string","name":"_description","type":"string"},{"internalType":"uint256","name":"_fundingGoal","type":"uint256"}],"stateMutability":"nonpayable","type":"constructor"},{"anonymous":false,"inputs":[{"indexed":true,"internalType":"address","name":"donor","type":"address"},{"indexed":false,"internalType":"uint256","name":"amount","type":"uint256"}],"name":"DonorAdded","type":"event"},{"anonymous":false,"inputs":[{"indexed":true,"internalType":"uint256","name":"milestoneId","type":"uint256"},{"indexed":false,"internalType":"uint256","name":"approvalCount","type":"uint256"},{"indexed":false,"internalType":"uint256","name":"timestamp","type":"uint256"}],"name":"MilestoneApproved","type":"event"},{"anonymous":false,"inputs":[{"indexed":true,"internalType":"uint256","name":"milestoneId","type":"uint256"},{"indexed":false,"internalType":"string","name":"title","type":"string"},{"indexed":false,"internalType":"string","name":"description","type":"string"},{"indexed":false,"internalType":"uint256","name":"requiredApprovals","type":"uint256"}],"name":"MilestoneCreated","type":"event"},{"anonymous":false,"inputs":[{"indexed":true,"internalType":"uint256","name":"milestoneId","type":"uint256"},{"indexed":false,"internalType":"uint256","name":"rejectionCount","type":"uint256"},{"indexed":false,"internalType":"uint256","name":"timestamp","type":"uint256"}],"name":"MilestoneRejected","type":"event"},{"anonymous":false,"inputs":[{"indexed":true,"internalType":"uint256","name":"milestoneId","type":"uint256"},{"indexed":false,"internalType":"bytes32","name":"beforeImageHash","type":"bytes32"},{"indexed":false,"internalType":"bytes32","name":"afterImageHash","type":"bytes32"},{"indexed":false,"internalType":"string","name":"gpsCoordinates","type":"string"},{"indexed":false,"internalType":"address","name":"submitter","type":"address"}],"name":"ProofSubmitted","type":"event"},{"anonymous":false,"inputs":[{"indexed":true,"internalType":"address","name":"verifier","type":"address"}],"name":"VerifierAdded","type":"event"},{"anonymous":false,"inputs":[{"indexed":true,"internalType":"address","name":"verifier","type":"address"}],"name":"VerifierRemoved","type":"event"},{"anonymous":false,"inputs":[{"indexed":true,"internalType":"uint256","name":"milestoneId","type":"uint256"},{"indexed":true,"internalType":"address","name":"voter","type":"address"},{"indexed":false,"internalType":"bool","name":"approve","type":"bool"},{"indexed":false,"internalType":"string","name":"comment","type":"string"}],"name":"VoteCast","type":"event"},{"inputs":[{"internalType":"address","name":"_donor","type":"address"},{"internalType":"uint256","name":"_amount","type":"uint256"}],"name":"addDonor","outputs":[],"stateMutability":"nonpayable","type":"function"},{"inputs":[{"internalType":"address","name":"_verifier","type":"address"}],"name":"addVerifier","outputs":[],"stateMutability":"nonpayable","type":"function"},{"inputs":[],"name":"admin","outputs":[{"internalType":"address","name":"","type":"address"}],"stateMutability":"view","type":"function"},{"inputs":[{"internalType":"string","name":"_title","type":"string"},{"internalType":"string","name":"_description","type":"string"},{"internalType":"uint256","name":"_requiredApprovals","type":"uint256"}],"name":"createMilestone","outputs":[],"stateMutability":"nonpayable","type":"function"},{"inputs":[],"name":"createdAt","outputs":[{"internalType":"uint256","name":"","type":"uint256"}],"stateMutability":"view","type":"function"},{"inputs":[],"name":"description","outputs":[{"internalType":"string","name":"","type":"string"}],"stateMutability":"view","type":"function"},{"inputs":[],"name":"donorCount","outputs":[{"internalType":"uint256","name":"","type":"uint256"}],"stateMutability":"view","type":"function"},{"inputs":[],"name":"fundingGoal","outputs":[{"internalType":"uint256","name":"","type":"uint256"}],"stateMutability":"view","type":"function"},{"inputs":[{"internalType":"uint256","name":"_milestoneId","type":"uint256"}],"name":"getMilestone","outputs":[{"internalType":"string","name":"_title","type":"string"},{"internalType":"string","name":"_description","type":"string"},{"internalType":"uint256","name":"_requiredApprovals","type":"uint256"},{"internalType":"bool","name":"_isCompleted","type":"bool"},{"internalType":"bool","name":"_isApproved","type":"bool"},{"internalType":"uint256","name":"_approvalCount","type":"uint256"},{"internalType":"uint256","name":"_rejectionCount","type":"uint256"}],"stateMutability":"view","type":"function"},{"inputs":[],"name":"getMilestoneCount","outputs":[{"internalType":"uint256","name":"","type":"uint256"}],"stateMutability":"view","type":"function"},{"inputs":[{"internalType":"uint256","name":"_milestoneId","type":"uint256"}],"name":"getProof","outputs":[{"internalType":"bytes32","name":"_beforeImageHash","type":"bytes32"},{"internalType":"bytes32","name":"_afterImageHash","type":"bytes32"},{"internalType":"string","name":"_gpsCoordinates","type":"string"},{"internalType":"uint256","name":"_timestamp","type":"uint256"},{"internalType":"address","name":"_submitter","type":"address"},{"internalType":"enum Project.ProofStatus","name":"_status","type":"uint8"}],"stateMutability":"view","type":"function"},{"inputs":[{"internalType":"uint256","name":"_milestoneId","type":"uint256"},{"internalType":"address","name":"_user","type":"address"}],"name":"hasUserVoted","outputs":[{"internalType":"bool","name":"","type":"bool"}],"stateMutability":"view","type":"function"},{"inputs":[{"internalType":"uint256","name":"","type":"uint256"},{"internalType":"address","name":"","type":"address"}],"name":"hasVoted","outputs":[{"internalType":"bool","name":"","type":"bool"}],"stateMutability":"view","type":"function"},{"inputs":[{"internalType":"address","name":"","type":"address"}],"name":"isDonor","outputs":[{"internalType":"bool","name":"","type":"bool"}],"stateMutability":"view","type":"function"},{"inputs":[{"internalType":"address","name":"","type":"address"}],"name":"isVerifier","outputs":[{"internalType":"bool","name":"","type":"bool"}],"stateMutability":"view","type":"function"},{"inputs":[{"internalType":"uint256","name":"","type":"uint256"}],"name":"milestoneProofs","outputs":[{"internalType":"bytes32","name":"beforeImageHash","type":"bytes32"},{"internalType":"bytes32","name":"afterImageHash","type":"bytes32"},{"internalType":"string","name":"gpsCoordinates","type":"string"},{"internalType":"uint256","name":"timestamp","type":"uint256"},{"internalType":"address","name":"submitter","type":"address"},{"internalType":"enum Project.ProofStatus","name":"status","type":"uint8"}],"stateMutability":"view","type":"function"},{"inputs":[{"internalType":"uint256","name":"","type":"uint256"}],"name":"milestones","outputs":[{"internalType":"string","name":"title","type":"string"},{"internalType":"string","name":"description","type":"string"},{"internalType":"uint256","name":"requiredApprovals","type":"uint256"},{"internalType":"bool","name":"isCompleted","type":"bool"},{"internalType":"bool","name":"isApproved","type":"bool"},{"internalType":"uint256","name":"approvalCount","type":"uint256"},{"internalType":"uint256","name":"rejectionCount","type":"uint256"},{"internalType":"uint256","name":"createdAt","type":"uint256"}],"stateMutability":"view","type":"function"},{"inputs":[],"name":"organizer","outputs":[{"internalType":"address","name":"","type":"address"}],"stateMutability":"view","type":"function"},{"inputs":[{"internalType":"address","name":"_verifier","type":"address"}],"name":"removeVerifier","outputs":[],"stateMutability":"nonpayable","type":"function"},{"inputs":[{"internalType":"uint256","name":"_milestoneId","type":"uint256"},{"internalType":"bytes32","name":"_beforeImageHash","type":"bytes32"},{"internalType":"bytes32","name":"_afterImageHash","type":"bytes32"},{"internalType":"string","name":"_gpsCoordinates","type":"string"}],"name":"submitProof","outputs":[],"stateMutability":"nonpayable","type":"function"},{"inputs":[],"name":"title","outputs":[{"internalType":"string","name":"","type":"string"}],"stateMutability":"view","type":"function"},{"inputs":[],"name":"verifierCount","outputs":[{"internalType":"uint256","name":"","type":"uint256"}],"stateMutability":"view","type":"function"},{"inputs":[{"internalType":"uint256","name":"_milestoneId","type":"uint256"},{"internalType":"bool","name":"_approve","type":"bool"}],"name":"voteOnProof","outputs":[],"stateMutability":"nonpayable","type":"function"}],"evm":{"bytecode":{"linkReferences":{},"object":"60806040523480156200001157600080fd5b5060405162001ea838038062001ea8833981016040819052620000349162000153565b600080546001600160a01b0386166001600160a01b031991821617909155600180549091163317905560026200006b848262000276565b5060036200007a838262000276565b506004555050426005555062000342565b634e487b7160e01b600052604160045260246000fd5b600082601f830112620000b357600080fd5b81516001600160401b0380821115620000d057620000d06200008b565b604051601f8301601f19908116603f01168101908282118183101715620000fb57620000fb6200008b565b81604052838152602092508660208588010111156200011957600080fd5b600091505b838210156200013d57858201830151818301840152908201906200011e565b6000602085830101528094505050505092915050565b600080600080608085870312156200016a57600080fd5b84516001600160a01b03811681146200018257600080fd5b60208601519094506001600160401b0380821115620001a057600080fd5b620001ae88838901620000a1565b94506040870151915080821115620001c557600080fd5b50620001d487828801620000a1565b606096909601519497939650505050565b600181811c90821680620001fa57607f821691505b6020821081036200021b57634e487b7160e01b600052602260045260246000fd5b50919050565b601f82111562000271576000816000526020600020601f850160051c810160208610156200024c5750805b601f850160051c820191505b818110156200026d5782815560010162000258565b5050505b505050565b81516001600160401b038111156200029257620002926200008b565b620002aa81620002a38454620001e5565b8462000221565b602080601f831160018114620002e25760008415620002c95750858301515b600019600386901b1c1916600185901b1785556200026d565b600085815260208120601f198616915b828110156200031357888601518255948401946001909101908401620002f2565b5085821015620003325787850151600019600388901b60f8161c191681555b5050505050600190811b01905550565b611b5680620003526000396000f3fe608060405234801561001057600080fd5b506004361061014d5760003560e01c80637a3a0e84116100c3578063cf09e0d01161007c578063cf09e0d01461030e578063dc296ae114610317578063e89e4ed61461032a578063f716139f14610351578063f851a44014610364578063fb4adf521461037757600080fd5b80637a3a0e84146102ad5780638f4cf247146102c45780639000b3d6146102cc5780639612421c146102df578063c407670f146102f2578063ca2dfd0a146102fb57600080fd5b806333999c171161011557806333999c171461020f57806343859632146102245780634a79d50c1461025257806361203265146102675780637284e4161461029257806372fe1e1d1461029a57600080fd5b806310d145e01461015257806311149ada146101805780632442e1cb146101935780632bc3d7aa146101b957806333105218146101ec575b600080fd5b610165610160366004611476565b610380565b604051610177969594939291906114eb565b60405180910390f35b61016561018e366004611476565b61044c565b6101a66101a1366004611476565b6105ce565b6040516101779796959493929190611551565b6101dc6101c73660046115bd565b600a6020526000908152604090205460ff1681565b6040519015158152602001610177565b6101dc6101fa3660046115bd565b60096020526000908152604090205460ff1681565b61022261021d3660046115df565b6107ef565b005b6101dc610232366004611609565b600860209081526000928352604080842090915290825290205460ff1681565b61025a6108b7565b6040516101779190611635565b60005461027a906001600160a01b031681565b6040516001600160a01b039091168152602001610177565b61025a610945565b6102226102a83660046116eb565b610952565b6102b660045481565b604051908152602001610177565b6006546102b6565b6102226102da3660046115bd565b610b83565b6102226102ed366004611745565b610c78565b6102b6600c5481565b6102226103093660046115bd565b610e2f565b6102b660055481565b6101dc610325366004611609565b610f1c565b61033d610338366004611476565b610f49565b6040516101779897969594939291906117b2565b61022261035f36600461180d565b6110bb565b60015461027a906001600160a01b031681565b6102b6600b5481565b600760205260009081526040902080546001820154600283018054929391926103a890611842565b80601f01602080910402602001604051908101604052809291908181526020018280546103d490611842565b80156104215780601f106103f657610100808354040283529160200191610421565b820191906000526020600020905b81548152906001019060200180831161040457829003601f168201915b5050505060038301546004909301549192916001600160a01b0381169150600160a01b900460ff1686565b600080606060008060008660068054905081106104845760405162461bcd60e51b815260040161047b9061187c565b60405180910390fd5b6000600760008a81526020019081526020016000206040518060c001604052908160008201548152602001600182015481526020016002820180546104c890611842565b80601f01602080910402602001604051908101604052809291908181526020018280546104f490611842565b80156105415780601f1061051657610100808354040283529160200191610541565b820191906000526020600020905b81548152906001019060200180831161052457829003601f168201915b5050509183525050600382810154602083015260048301546001600160a01b0381166040840152606090920191600160a01b900460ff1690811115610588576105886114d5565b6003811115610599576105996114d5565b9052508051602082015160408301516060840151608085015160a090950151939e929d50909b50995091975095509350505050565b60608060008060008060008760068054905081106105fe5760405162461bcd60e51b815260040161047b9061187c565b600060068a81548110610613576106136118aa565b90600052602060002090600702016040518061010001604052908160008201805461063d90611842565b80601f016020809104026020016040519081016040528092919081815260200182805461066990611842565b80156106b65780601f1061068b576101008083540402835291602001916106b6565b820191906000526020600020905b81548152906001019060200180831161069957829003601f168201915b505050505081526020016001820180546106cf90611842565b80601f01602080910402602001604051908101604052809291908181526020018280546106fb90611842565b80156107485780601f1061071d57610100808354040283529160200191610748565b820191906000526020600020905b81548152906001019060200180831161072b57829003601f168201915b50505050508152602001600282015481526020016003820160009054906101000a900460ff161515151581526020016003820160019054906101000a900460ff1615151515815260200160048201548152602001600582015481526020016006820154815250509050806000015181602001518260400151836060015184608001518560a001518660c0015198509850985098509850985098505050919395979092949650565b6001546001600160a01b031633146108195760405162461bcd60e51b815260040161047b906118c0565b6001600160a01b0382166000908152600a602052604090205460ff16610870576001600160a01b0382166000908152600a60205260408120805460ff19166001179055600c80549161086a83611918565b91905055505b816001600160a01b03167fa8b2d18846245d44c744fa71ec159345ce064021b22654f91b6ebfbe64bcf3b1826040516108ab91815260200190565b60405180910390a25050565b600280546108c490611842565b80601f01602080910402602001604051908101604052809291908181526020018280546108f090611842565b801561093d5780601f106109125761010080835404028352916020019161093d565b820191906000526020600020905b81548152906001019060200180831161092057829003601f168201915b505050505081565b600380546108c490611842565b6000546001600160a01b0316331461097c5760405162461bcd60e51b815260040161047b90611931565b6006548490811061099f5760405162461bcd60e51b815260040161047b9061187c565b6000600686815481106109b4576109b46118aa565b60009182526020909120600790910201600381015490915060ff1615610a1c5760405162461bcd60e51b815260206004820152601b60248201527f4d696c6573746f6e6520616c726561647920636f6d706c657465640000000000604482015260640161047b565b60008681526007602052604090206003015415610a7b5760405162461bcd60e51b815260206004820152601760248201527f50726f6f6620616c7265616479207375626d6974746564000000000000000000604482015260640161047b565b6040805160c0810182528681526020808201878152828401878152426060850152336080850152600060a085018190528b8152600790935293909120825181559051600182015591519091906002820190610ad690826119c8565b50606082015160038083019190915560808301516004830180546001600160a01b039092166001600160a01b031983168117825560a08601519391926001600160a81b0319161790600160a01b908490811115610b3557610b356114d5565b0217905550905050857fb20536e1d2514757b8c98d154d057b860f38137288748c41ebaa88730ab4e57486868633604051610b739493929190611a88565b60405180910390a2505050505050565b6001546001600160a01b03163314610bad5760405162461bcd60e51b815260040161047b906118c0565b6001600160a01b03811660009081526009602052604090205460ff1615610c0b5760405162461bcd60e51b815260206004820152601260248201527120b63932b0b23c9030903b32b934b334b2b960711b604482015260640161047b565b6001600160a01b0381166000908152600960205260408120805460ff19166001179055600b805491610c3c83611918565b90915550506040516001600160a01b038216907f6d05492139c5ea989514a5d2150c028041e5c087e2a39967f67dc7d2655adb8190600090a250565b6000546001600160a01b03163314610ca25760405162461bcd60e51b815260040161047b90611931565b60008111610cf25760405162461bcd60e51b815260206004820152601e60248201527f526571756972656420617070726f76616c73206d757374206265203e20300000604482015260640161047b565b6040805161010081018252848152602081018490529081018290526000606082018190526080820181905260a0820181905260c082018190524260e0830152600680546001810182559152815160079091027ff652222313e28459528d920b65115c16c04f3efc82aaedc97be59f3f377c0d3f01908190610d7390826119c8565b5060208201516001820190610d8890826119c8565b50604082015160028201556060820151600382018054608085015115156101000261ff00199315159390931661ffff199091161791909117905560a0820151600482015560c0820151600582015560e09091015160069182015554610def90600190611ac0565b7ffb2640e61011d6cc3359150a461928a5c739c62d7fe25212ce2bc7ce424aee4d848484604051610e2293929190611ad3565b60405180910390a2505050565b6001546001600160a01b03163314610e595760405162461bcd60e51b815260040161047b906118c0565b6001600160a01b03811660009081526009602052604090205460ff16610eb25760405162461bcd60e51b815260206004820152600e60248201526d2737ba1030903b32b934b334b2b960911b604482015260640161047b565b6001600160a01b0381166000908152600960205260408120805460ff19169055600b805491610ee083611b09565b90915550506040516001600160a01b038216907f44a3cd4eb5cc5748f6169df057b1cb2ae4c383e87cd94663c430e095d4cba42490600090a250565b60008281526008602090815260408083206001600160a01b038516845290915290205460ff165b92915050565b60068181548110610f5957600080fd5b9060005260206000209060070201600091509050806000018054610f7c90611842565b80601f0160208091040260200160405190810160405280929190818152602001828054610fa890611842565b8015610ff55780601f10610fca57610100808354040283529160200191610ff5565b820191906000526020600020905b815481529060010190602001808311610fd857829003601f168201915b50505050509080600101805461100a90611842565b80601f016020809104026020016040519081016040528092919081815260200182805461103690611842565b80156110835780601f1061105857610100808354040283529160200191611083565b820191906000526020600020905b81548152906001019060200180831161106657829003601f168201915b50505060028401546003850154600486015460058701546006909701549596929560ff80841696506101009093049092169350919088565b3360009081526009602052604090205460ff166111295760405162461bcd60e51b815260206004820152602660248201527f4f6e6c79207665726966696572732063616e20706572666f726d20746869732060448201526530b1ba34b7b760d11b606482015260840161047b565b6006548290811061114c5760405162461bcd60e51b815260040161047b9061187c565b600083815260086020908152604080832033845290915290205460ff16156111af5760405162461bcd60e51b8152602060048201526016602482015275165bdd481a185d9948185b1c9958591e481d9bdd195960521b604482015260640161047b565b6000838152600760205260409020600301546112025760405162461bcd60e51b8152602060048201526012602482015271139bc81c1c9bdbd9881cdd589b5a5d1d195960721b604482015260640161047b565b600060068481548110611217576112176118aa565b60009182526020909120600790910201600381015490915060ff161561127f5760405162461bcd60e51b815260206004820152601b60248201527f4d696c6573746f6e6520616c726561647920636f6d706c657465640000000000604482015260640161047b565b60008481526008602090815260408083203384529091529020805460ff1916600117905582156112c5576004810180549060006112bb83611918565b91905055506112dd565b6005810180549060006112d783611918565b91905055505b336001600160a01b0316847fc4ce3f0cdcc6c3a55938650ba7706e6b5d9f686f108fdce6a6bb68424fe1ed758560405161132a911515815260406020820181905260009082015260600190565b60405180910390a361133b84611341565b50505050565b600060068281548110611356576113566118aa565b9060005260206000209060070201905080600201548160040154106113f25760038101805461ffff1916610101179055600082815260076020526040902060040180546002919060ff60a01b1916600160a01b83021790555060048101546040805191825242602083015283917f6e3fd8bb18eed6833ae758e07c361bf145ce27c88bdf6d5029ddabf188d72ca6910160405180910390a25050565b8060020154816005015410611472576003808201805460ff191660011790556000838152600760205260409020600401805460ff60a01b1916600160a01b83021790555060058101546040805191825242602083015283917f99c1e384941f7e42e3f9fe91b348aa32f8105b4e750b515d7e0d41ee8b66b0cc91016108ab565b5050565b60006020828403121561148857600080fd5b5035919050565b6000815180845260005b818110156114b557602081850181015186830182015201611499565b506000602082860101526020601f19601f83011685010191505092915050565b634e487b7160e01b600052602160045260246000fd5b86815285602082015260c06040820152600061150a60c083018761148f565b606083018690526001600160a01b038516608084015290506004831061154057634e487b7160e01b600052602160045260246000fd5b8260a0830152979650505050505050565b60e08152600061156460e083018a61148f565b8281036020840152611576818a61148f565b604084019890985250509315156060850152911515608084015260a083015260c09091015292915050565b80356001600160a01b03811681146115b857600080fd5b919050565b6000602082840312156115cf57600080fd5b6115d8826115a1565b9392505050565b600080604083850312156115f257600080fd5b6115fb836115a1565b946020939093013593505050565b6000806040838503121561161c57600080fd5b8235915061162c602084016115a1565b90509250929050565b6020815260006115d8602083018461148f565b634e487b7160e01b600052604160045260246000fd5b600082601f83011261166f57600080fd5b813567ffffffffffffffff8082111561168a5761168a611648565b604051601f8301601f19908116603f011681019082821181831017156116b2576116b2611648565b816040528381528660208588010111156116cb57600080fd5b836020870160208301376000602085830101528094505050505092915050565b6000806000806080858703121561170157600080fd5b843593506020850135925060408501359150606085013567ffffffffffffffff81111561172d57600080fd5b6117398782880161165e565b91505092959194509250565b60008060006060848603121561175a57600080fd5b833567ffffffffffffffff8082111561177257600080fd5b61177e8783880161165e565b9450602086013591508082111561179457600080fd5b506117a18682870161165e565b925050604084013590509250925092565b60006101008083526117c68184018c61148f565b905082810360208401526117da818b61148f565b604084019990995250509415156060860152921515608085015260a084019190915260c083015260e09091015292915050565b6000806040838503121561182057600080fd5b823591506020830135801515811461183757600080fd5b809150509250929050565b600181811c9082168061185657607f821691505b60208210810361187657634e487b7160e01b600052602260045260246000fd5b50919050565b602080825260149082015273125b9d985b1a59081b5a5b195cdd1bdb9948125160621b604082015260600190565b634e487b7160e01b600052603260045260246000fd5b60208082526022908201527f4f6e6c792061646d696e2063616e20706572666f726d2074686973206163746960408201526137b760f11b606082015260800190565b634e487b7160e01b600052601160045260246000fd5b60006001820161192a5761192a611902565b5060010190565b60208082526026908201527f4f6e6c79206f7267616e697a65722063616e20706572666f726d20746869732060408201526530b1ba34b7b760d11b606082015260800190565b601f8211156119c3576000816000526020600020601f850160051c810160208610156119a05750805b601f850160051c820191505b818110156119bf578281556001016119ac565b5050505b505050565b815167ffffffffffffffff8111156119e2576119e2611648565b6119f6816119f08454611842565b84611977565b602080601f831160018114611a2b5760008415611a135750858301515b600019600386901b1c1916600185901b1785556119bf565b600085815260208120601f198616915b82811015611a5a57888601518255948401946001909101908401611a3b565b5085821015611a785787850151600019600388901b60f8161c191681555b5050505050600190811b01905550565b848152836020820152608060408201526000611aa7608083018561148f565b905060018060a01b038316606083015295945050505050565b81810381811115610f4357610f43611902565b606081526000611ae6606083018661148f565b8281036020840152611af8818661148f565b915050826040830152949350505050565b600081611b1857611b18611902565b50600019019056fea2646970667358221220ab4c9045a24e1ae935c330765c2edbb24738aed040503e9c0b870d3f1634b1be64736f6c63430008180033","opcodes":"PUSH1 0x80 PUSH1 0x40 MSTORE CALLVALUE DUP1 ISZERO PUSH3 0x11 JUMPI PUSH1 0x0 DUP1 REVERT JUMPDEST POP PUSH1 0x40 MLOAD PUSH3 0x1EA8 CODESIZE SUB DUP1 PUSH3 0x1EA8 DUP4 CODECOPY DUP2 ADD PUSH1 0x40 DUP2 SWAP1 MSTORE PUSH3 0x34 SWAP2 PUSH3 0x153 JUMP JUMPDEST PUSH1 0x0 DUP1 SLOAD PUSH1 0x1 PUSH1 0x1 PUSH1 0xA0 SHL SUB DUP7 AND PUSH1 0x1 PUSH1 0x1 PUSH1 0xA0 SHL SUB NOT SWAP2 DUP3 AND OR SWAP1 SWAP2 SSTORE PUSH1 0x1 DUP1 SLOAD SWAP1 SWAP2 AND CALLER OR SWAP1 SSTORE PUSH1 0x2 PUSH3 0x6B DUP5 DUP3 PUSH3 0x276 JUMP JUMPDEST POP PUSH1 0x3 PUSH3 0x7A DUP4 DUP3 PUSH3 0x276 JUMP JUMPDEST POP PUSH1 0x4 SSTORE POP POP TIMESTAMP PUSH1 0x5 SSTORE POP PUSH3 0x342 JUMP JUMPDEST PUSH4 0x4E487B71 PUSH1 0xE0 SHL PUSH1 0x0 MSTORE PUSH1 0x41 PUSH1 0x4 MSTORE PUSH1 0x24 PUSH1 0x0 REVERT JUMPDEST PUSH1 0x0 DUP3 PUSH1 0x1F DUP4 ADD SLT PUSH3 0xB3 JUMPI PUSH1 0x0 DUP1 REVERT JUMPDEST DUP2 MLOAD PUSH1 0x1 PUSH1 0x1 PUSH1 0x40 SHL SUB DUP1 DUP3 GT ISZERO PUSH3 0xD0 JUMPI PUSH3 0xD0 PUSH3 0x8B JUMP JUMPDEST PUSH1 0x40 MLOAD PUSH1 0x1F DUP4 ADD PUSH1 0x1F NOT SWAP1 DUP2 AND PUSH1 0x3F ADD AND DUP2 ADD SWAP1 DUP3 DUP3 GT DUP2 DUP4 LT OR ISZERO PUSH3 0xFB JUMPI PUSH3 0xFB PUSH3 0x8B JUMP JUMPDEST DUP2 PUSH1 0x40 MSTORE DUP4 DUP2 MSTORE PUSH1 0x20 SWAP3 POP DUP7 PUSH1 0x20 DUP6 DUP9 ADD ADD GT ISZERO PUSH3 0x119 JUMPI PUSH1 0x0 DUP1 REVERT JUMPDEST PUSH1 0x0 SWAP2 POP JUMPDEST DUP4 DUP3 LT ISZERO PUSH3 0x13D JUMPI DUP6 DUP3 ADD DUP4 ADD MLOAD DUP2 DUP4 ADD DUP5 ADD MSTORE SWAP1 DUP3 ADD SWAP1 PUSH3 0x11E JUMP JUMPDEST PUSH1 0x0 PUSH1 0x20 DUP6 DUP4 ADD ADD MSTORE DUP1 SWAP5 POP POP POP POP POP SWAP3 SWAP2 POP POP JUMP JUMPDEST PUSH1 0x0 DUP1 PUSH1 0x0 DUP1 PUSH1 0x80 DUP6 DUP8 SUB SLT ISZERO PUSH3 0x16A JUMPI PUSH1 0x0 DUP1 REVERT JUMPDEST DUP5 MLOAD PUSH1 0x1 PUSH1 0x1 PUSH1 0xA0 SHL SUB DUP2 AND DUP2 EQ PUSH3 0x182 JUMPI PUSH1 0x0 DUP1 REVERT JUMPDEST PUSH1 0x20 DUP7 ADD MLOAD SWAP1 SWAP5 POP PUSH1 0x1 PUSH1 0x1 PUSH1 0x40 SHL SUB DUP1 DUP3 GT ISZERO PUSH3 0x1A0 JUMPI PUSH1 0x0 DUP1 REVERT JUMPDEST PUSH3 0x1AE DUP9 DUP4 DUP10 ADD PUSH3 0xA1 JUMP JUMPDEST SWAP5 POP PUSH1 0x40 DUP8 ADD MLOAD SWAP2 POP DUP1 DUP3 GT ISZERO PUSH3 0x1C5 JUMPI PUSH1 0x0 DUP1 REVERT JUMPDEST POP PUSH3 0x1D4 DUP8 DUP3 DUP9 ADD PUSH3 0xA1 JUMP JUMPDEST PUSH1 0x60 SWAP7 SWAP1 SWAP7 ADD MLOAD SWAP5 SWAP8 SWAP4 SWAP7 POP POP POP POP JUMP JUMPDEST PUSH1 0x1 DUP2 DUP2 SHR SWAP1 DUP3 AND DUP1 PUSH3 0x1FA JUMPI PUSH1 0x7F DUP3 AND SWAP2 POP JUMPDEST PUSH1 0x20 DUP3 LT DUP2 SUB PUSH3 0x21B JUMPI PUSH4 0x4E487B71 PUSH1 0xE0 SHL PUSH1 0x0 MSTORE PUSH1 0x22 PUSH1 0x4 MSTORE PUSH1 0x24 PUSH1 0x0 REVERT JUMPDEST POP SWAP2 SWAP1 POP JUMP JUMPDEST PUSH1 0x1F DUP3 GT ISZERO PUSH3 0x271 JUMPI PUSH1 0x0 DUP2 PUSH1 0x0 MSTORE PUSH1 0x20 PUSH1 0x0 KECCAK256 PUSH1 0x1F DUP6 ADD PUSH1 0x5 SHR DUP2 ADD PUSH1 0x20 DUP7 LT ISZERO PUSH3 0x24C JUMPI POP DUP1 JUMPDEST PUSH1 0x1F DUP6 ADD PUSH1 0x5 SHR DUP3 ADD SWAP2 POP JUMPDEST DUP2 DUP2 LT ISZERO PUSH3 0x26D JUMPI DUP3 DUP2 SSTORE PUSH1 0x1 ADD PUSH3 0x258 JUMP JUMPDEST POP POP POP JUMPDEST POP POP POP JUMP JUMPDEST DUP2 MLOAD PUSH1 0x1 PUSH1 0x1 PUSH1 0x40 SHL SUB DUP2 GT ISZERO PUSH3 0x292 JUMPI PUSH3 0x292 PUSH3 0x8B JUMP JUMPDEST PUSH3 0x2AA DUP2 PUSH3 0x2A3 DUP5 SLOAD PUSH3 0x1E5 JUMP JUMPDEST DUP5 PUSH3 0x221 JUMP JUMPDEST PUSH1 0x20 DUP1 PUSH1 0x1F DUP4 GT PUSH1 0x1 DUP2 EQ PUSH3 0x2E2 JUMPI PUSH1 0x0 DUP5 ISZERO PUSH3 0x2C9 JUMPI POP DUP6 DUP4 ADD MLOAD JUMPDEST PUSH1 0x0 NOT PUSH1 0x3 DUP7 SWAP1 SHL SHR NOT AND PUSH1 0x1 DUP6 SWAP1 SHL OR DUP6 SSTORE PUSH3 0x26D JUMP JUMPDEST PUSH1 0x0 DUP6 DUP2 MSTORE PUSH1 0x20 DUP2 KECCAK256 PUSH1 0x1F NOT DUP7 AND SWAP2 JUMPDEST DUP3 DUP2 LT ISZERO PUSH3 0x313 JUMPI DUP9 DUP7 ADD MLOAD DUP3 SSTORE SWAP5 DUP5 ADD SWAP5 PUSH1 0x1 SWAP1 SWAP2 ADD SWAP1 DUP5 ADD PUSH3 0x2F2 JUMP JUMPDEST POP DUP6 DUP3 LT ISZERO PUSH3 0x332 JUMPI DUP8 DUP6 ADD MLOAD PUSH1 0x0 NOT PUSH1 0x3 DUP9 SWAP1 SHL PUSH1 0xF8 AND SHR NOT AND DUP2 SSTORE JUMPDEST POP POP POP POP POP PUSH1 0x1 SWAP1 DUP2 SHL ADD SWAP1 SSTORE POP JUMP JUMPDEST PUSH2 0x1B56 DUP1 PUSH3 0x352 PUSH1 0x0 CODECOPY PUSH1 0x0 RETURN INVALID PUSH1 0x80 PUSH1 0x40 MSTORE CALLVALUE DUP1 ISZERO PUSH2 0x10 JUMPI PUSH1 0x0 DUP1 REVERT JUMPDEST POP PUSH1 0x4 CALLDATASIZE LT PUSH2 0x14D JUMPI PUSH1 0x0 CALLDATALOAD PUSH1 0xE0 SHR DUP1 PUSH4 0x7A3A0E84 GT PUSH2 0xC3 JUMPI DUP1 PUSH4 0xCF09E0D0 GT PUSH2 0x7C JUMPI DUP1 PUSH4 0xCF09E0D0 EQ PUSH2 0x30E JUMPI DUP1 PUSH4 0xDC296AE1 EQ PUSH2 0x317 JUMPI DUP1 PUSH4 0xE89E4ED6 EQ PUSH2 0x32A JUMPI DUP1 PUSH4 0xF716139F EQ PUSH2 0x351 JUMPI DUP1 PUSH4 0xF851A440 EQ PUSH2 0x364 JUMPI DUP1 PUSH4 0xFB4ADF52 EQ PUSH2 0x377 JUMPI PUSH1 0x0 DUP1 REVERT JUMPDEST DUP1 PUSH4 0x7A3A0E84 EQ PUSH2 0x2AD JUMPI DUP1 PUSH4 0x8F4CF247 EQ PUSH2 0x2C4 JUMPI DUP1 PUSH4 0x9000B3D6 EQ PUSH2 0x2CC JUMPI DUP1 PUSH4 0x9612421C EQ PUSH2 0x2DF JUMPI DUP1 PUSH4 0xC407670F EQ PUSH2 0x2F2 JUMPI DUP1 PUSH4 0xCA2DFD0A EQ PUSH2 0x2FB JUMPI PUSH1 0x0 DUP1 REVERT JUMPDEST DUP1 PUSH4 0x33999C17 GT PUSH2 0x115 JUMPI DUP1 PUSH4 0x33999C17 EQ PUSH2 0x20F JUMPI DUP1 PUSH4 0x43859632 EQ PUSH2 0x224 JUMPI DUP1 PUSH4 0x4A79D50C EQ PUSH2 0x252 JUMPI DUP1 PUSH4 0x61203265 EQ PUSH2 0x267 JUMPI DUP1 PUSH4 0x7284E416 EQ PUSH2 0x292 JUMPI DUP1 PUSH4 0x72FE1E1D EQ PUSH2 0x29A JUMPI PUSH1 0x0 DUP1 REVERT JUMPDEST DUP1 PUSH4 0x10D145E0 EQ PUSH2 0x152 JUMPI DUP1 PUSH4 0x11149ADA EQ PUSH2 0x180 JUMPI DUP1 PUSH4 0x2442E1CB EQ PUSH2 0x193 JUMPI DUP1 PUSH4 0x2BC3D7AA EQ PUSH2 0x1B9 JUMPI DUP1 PUSH4 0x33105218 EQ PUSH2 0x1EC JUMPI JUMPDEST PUSH1 0x0 DUP1 REVERT JUMPDEST PUSH2 0x165 PUSH2 0x160 CALLDATASIZE PUSH1 0x4 PUSH2 0x1476 JUMP JUMPDEST PUSH2 0x380 JUMP JUMPDEST PUSH1 0x40 MLOAD PUSH2 0x177 SWAP7 SWAP6 SWAP5 SWAP4 SWAP3 SWAP2 SWAP1 PUSH2 0x14EB JUMP JUMPDEST PUSH1 0x40 MLOAD DUP1 SWAP2 SUB SWAP1 RETURN JUMPDEST PUSH2 0x165 PUSH2 0x18E CALLDATASIZE PUSH1 0x4 PUSH2 0x1476 JUMP JUMPDEST PUSH2 0x44C JUMP JUMPDEST PUSH2 0x1A6 PUSH2 0x1A1 CALLDATASIZE PUSH1 0x4 PUSH2 0x1476 JUMP JUMPDEST PUSH2 0x5CE JUMP JUMPDEST PUSH1 0x40 MLOAD PUSH2 0x177 SWAP8 SWAP7 SWAP6 SWAP5 SWAP4 SWAP3 SWAP2 SWAP1 PUSH2 0x1551 JUMP JUMPDEST PUSH2 0x1DC PUSH2 0x1C7 CALLDATASIZE PUSH1 0x4 PUSH2 0x15BD JUMP JUMPDEST PUSH1 0xA PUSH1 0x20 MSTORE PUSH1 0x0 SWAP1 DUP2 MSTORE PUSH1 0x40 SWAP1 KECCAK256 SLOAD PUSH1 0xFF AND DUP2 JUMP JUMPDEST PUSH1 0x40 MLOAD SWAP1 ISZERO ISZERO DUP2 MSTORE PUSH1 0x20 ADD PUSH2 0x177 JUMP JUMPDEST PUSH2 0x1DC PUSH2 0x1FA CALLDATASIZE PUSH1 0x4 PUSH2 0x15BD JUMP JUMPDEST PUSH1 0x9 PUSH1 0x20 MSTORE PUSH1 0x0 SWAP1 DUP2 MSTORE PUSH1 0x40 SWAP1 KECCAK256 SLOAD PUSH1 0xFF AND DUP2 JUMP JUMPDEST PUSH2 0x222 PUSH2 0x21D CALLDATASIZE PUSH1 0x4 PUSH2 0x15DF JUMP JUMPDEST PUSH2 0x7EF JUMP JUMPDEST STOP JUMPDEST PUSH2 0x1DC PUSH2 0x232 CALLDATASIZE PUSH1 0x4 PUSH2 0x1609 JUMP JUMPDEST PUSH1 0x8 PUSH1 0x20 SWAP1 DUP2 MSTORE PUSH1 0x0 SWAP3 DUP4 MSTORE PUSH1 0x40 DUP1 DUP5 KECCAK256 SWAP1 SWAP2 MSTORE SWAP1 DUP3 MSTORE SWAP1 KECCAK256 SLOAD PUSH1 0xFF AND DUP2 JUMP JUMPDEST PUSH2 0x25A PUSH2 0x8B7 JUMP JUMPDEST PUSH1 0x40 MLOAD PUSH2 0x177 SWAP2 SWAP1 PUSH2 0x1635 JUMP JUMPDEST PUSH1 0x0 SLOAD PUSH2 0x27A SWAP1 PUSH1 0x1 PUSH1 0x1 PUSH1 0xA0 SHL SUB AND DUP2 JUMP JUMPDEST PUSH1 0x40 MLOAD PUSH1 0x1 PUSH1 0x1 PUSH1 0xA0 SHL SUB SWAP1 SWAP2 AND DUP2 MSTORE PUSH1 0x20 ADD PUSH2 0x177 JUMP JUMPDEST PUSH2 0x25A PUSH2 0x945 JUMP JUMPDEST PUSH2 0x222 PUSH2 0x2A8 CALLDATASIZE PUSH1 0x4 PUSH2 0x16EB JUMP JUMPDEST PUSH2 0x952 JUMP JUMPDEST PUSH2 0x2B6 PUSH1 0x4 SLOAD DUP2 JUMP JUMPDEST PUSH1 0x40 MLOAD SWAP1 DUP2 MSTORE PUSH1 0x20 ADD PUSH2 0x177 JUMP JUMPDEST PUSH1 0x6 SLOAD PUSH2 0x2B6 JUMP JUMPDEST PUSH2 0x222 PUSH2 0x2DA CALLDATASIZE PUSH1 0x4 PUSH2 0x15BD JUMP JUMPDEST PUSH2 0xB83 JUMP JUMPDEST PUSH2 0x222 PUSH2 0x2ED CALLDATASIZE PUSH1 0x4 PUSH2 0x1745 JUMP JUMPDEST PUSH2 0xC78 JUMP JUMPDEST PUSH2 0x2B6 PUSH1 0xC SLOAD DUP2 JUMP JUMPDEST PUSH2 0x222 PUSH2 0x309 CALLDATASIZE PUSH1 0x4 PUSH2 0x15BD JUMP JUMPDEST PUSH2 0xE2F JUMP JUMPDEST PUSH2 0x2B6 PUSH1 0x5 SLOAD DUP2 JUMP JUMPDEST PUSH2 0x1DC PUSH2 0x325 CALLDATASIZE PUSH1 0x4 PUSH2 0x1609 JUMP JUMPDEST PUSH2 0xF1C JUMP JUMPDEST PUSH2 0x33D PUSH2 0x338 CALLDATASIZE PUSH1 0x4 PUSH2 0x1476 JUMP JUMPDEST PUSH2 0xF49 JUMP JUMPDEST PUSH1 0x40 MLOAD PUSH2 0x177 SWAP9 SWAP8 SWAP7 SWAP6 SWAP5 SWAP4 SWAP3 SWAP2 SWAP1 PUSH2 0x17B2 JUMP JUMPDEST PUSH2 0x222 PUSH2 0x35F CALLDATASIZE PUSH1 0x4 PUSH2 0x180D JUMP JUMPDEST PUSH2 0x10BB JUMP JUMPDEST PUSH1 0x1 SLOAD PUSH2 0x27A SWAP1 PUSH1 0x1 PUSH1 0x1 PUSH1 0xA0 SHL SUB AND DUP2 JUMP JUMPDEST PUSH2 0x2B6 PUSH1 0xB SLOAD DUP2 JUMP JUMPDEST PUSH1 0x7 PUSH1 0x20 MSTORE PUSH1 0x0 SWAP1 DUP2 MSTORE PUSH1 0x40 SWAP1 KECCAK256 DUP1 SLOAD PUSH1 0x1 DUP3 ADD SLOAD PUSH1 0x2 DUP4 ADD DUP1 SLOAD SWAP3 SWAP4 SWAP2 SWAP3 PUSH2 0x3A8 SWAP1 PUSH2 0x1842 JUMP JUMPDEST DUP1 PUSH1 0x1F ADD PUSH1 0x20 DUP1 SWAP2 DIV MUL PUSH1 0x20 ADD PUSH1 0x40 MLOAD SWAP1 DUP2 ADD PUSH1 0x40 MSTORE DUP1 SWAP3 SWAP2 SWAP1 DUP2 DUP2 MSTORE PUSH1 0x20 ADD DUP3 DUP1 SLOAD PUSH2 0x3D4 SWAP1 PUSH2 0x1842 JUMP JUMPDEST DUP1 ISZERO PUSH2 0x421 JUMPI DUP1 PUSH1 0x1F LT PUSH2 0x3F6 JUMPI PUSH2 0x100 DUP1 DUP4 SLOAD DIV MUL DUP4 MSTORE SWAP2 PUSH1 0x20 ADD SWAP2 PUSH2 0x421 JUMP JUMPDEST DUP3 ADD SWAP2 SWAP1 PUSH1 0x0 MSTORE PUSH1 0x20 PUSH1 0x0 KECCAK256 SWAP1 JUMPDEST DUP2 SLOAD DUP2 MSTORE SWAP1 PUSH1 0x1 ADD SWAP1 PUSH1 0x20 ADD DUP1 DUP4 GT PUSH2 0x404 JUMPI DUP3 SWAP1 SUB PUSH1 0x1F AND DUP3 ADD SWAP2 JUMPDEST POP POP POP POP PUSH1 0x3 DUP4 ADD SLOAD PUSH1 0x4 SWAP1 SWAP4 ADD SLOAD SWAP2 SWAP3 SWAP2 PUSH1 0x1 PUSH1 0x1 PUSH1 0xA0 SHL SUB DUP2 AND SWAP2 POP PUSH1 0x1 PUSH1 0xA0 SHL SWAP1 DIV PUSH1 0xFF AND DUP7 JUMP JUMPDEST PUSH1 0x0 DUP1 PUSH1 0x60 PUSH1 0x0 DUP1 PUSH1 0x0 DUP7 PUSH1 0x6 DUP1 SLOAD SWAP1 POP DUP2 LT PUSH2 0x484 JUMPI PUSH1 0x40 MLOAD PUSH3 0x461BCD PUSH1 0xE5 SHL DUP2 MSTORE PUSH1 0x4 ADD PUSH2 0x47B SWAP1 PUSH2 0x187C JUMP JUMPDEST PUSH1 0x40 MLOAD DUP1 SWAP2 SUB SWAP1 REVERT JUMPDEST PUSH1 0x0 PUSH1 0x7 PUSH1 0x0 DUP11 DUP2 MSTORE PUSH1 0x20 ADD SWAP1 DUP2 MSTORE PUSH1 0x20 ADD PUSH1 0x0 KECCAK256 PUSH1 0x40 MLOAD DUP1 PUSH1 0xC0 ADD PUSH1 0x40 MSTORE SWAP1 DUP2 PUSH1 0x0 DUP3 ADD SLOAD DUP2 MSTORE PUSH1 0x20 ADD PUSH1 0x1 DUP3 ADD SLOAD DUP2 MSTORE PUSH1 0x20 ADD PUSH1 0x2 DUP3 ADD DUP1 SLOAD PUSH2 0x4C8 SWAP1 PUSH2 0x1842 JUMP JUMPDEST DUP1 PUSH1 0x1F ADD PUSH1 0x20 DUP1 SWAP2 DIV MUL PUSH1 0x20 ADD PUSH1 0x40 MLOAD SWAP1 DUP2 ADD PUSH1 0x40 MSTORE DUP1 SWAP3 SWAP2 SWAP1 DUP2 DUP2 MSTORE PUSH1 0x20 ADD DUP3 DUP1 SLOAD PUSH2 0x4F4 SWAP1 PUSH2 0x1842 JUMP JUMPDEST DUP1 ISZERO PUSH2 0x541 JUMPI DUP1 PUSH1 0x1F LT PUSH2 0x516 JUMPI PUSH2 0x100 DUP1 DUP4 SLOAD DIV MUL DUP4 MSTORE SWAP2 PUSH1 0x20 ADD SWAP2 PUSH2 0x541 JUMP JUMPDEST DUP3 ADD SWAP2 SWAP1 PUSH1 0x0 MSTORE PUSH1 0x20 PUSH1 0x0 KECCAK256 SWAP1 JUMPDEST DUP2 SLOAD DUP2 MSTORE SWAP1 PUSH1 0x1 ADD SWAP1 PUSH1 0x20 ADD DUP1 DUP4 GT PUSH2 0x524 JUMPI DUP3 SWAP1 SUB PUSH1 0x1F AND DUP3 ADD SWAP2 JUMPDEST POP POP POP SWAP2 DUP4 MSTORE POP POP PUSH1 0x3 DUP3 DUP2 ADD SLOAD PUSH1 0x20 DUP4 ADD MSTORE PUSH1 0x4 DUP4 ADD SLOAD PUSH1 0x1 PUSH1 0x1 PUSH1 0xA0 SHL SUB DUP2 AND PUSH1 0x40 DUP5 ADD MSTORE PUSH1 0x60 SWAP1 SWAP3 ADD SWAP2 PUSH1 0x1 PUSH1 0xA0 SHL SWAP1 DIV PUSH1 0xFF AND SWAP1 DUP2 GT ISZERO PUSH2 0x588 JUMPI PUSH2 0x588 PUSH2 0x14D5 JUMP JUMPDEST PUSH1 0x3 DUP2 GT ISZERO PUSH2 0x599 JUMPI PUSH2 0x599 PUSH2 0x14D5 JUMP JUMPDEST SWAP1 MSTORE POP DUP1 MLOAD PUSH1 0x20 DUP3 ADD MLOAD PUSH1 0x40 DUP4 ADD MLOAD PUSH1 0x60 DUP5 ADD MLOAD PUSH1 0x80 DUP6 ADD MLOAD PUSH1 0xA0 SWAP1 SWAP6 ADD MLOAD SWAP4 SWAP15 SWAP3 SWAP14 POP SWAP1 SWAP12 POP SWAP10 POP SWAP2 SWAP8 POP SWAP6 POP SWAP4 POP POP POP POP JUMP JUMPDEST PUSH1 0x60 DUP1 PUSH1 0x0 DUP1 PUSH1 0x0 DUP1 PUSH1 0x0 DUP8 PUSH1 0x6 DUP1 SLOAD SWAP1 POP DUP2 LT PUSH2 0x5FE JUMPI PUSH1 0x40 MLOAD PUSH3 0x461BCD PUSH1 0xE5 SHL DUP2 MSTORE PUSH1 0x4 ADD PUSH2 0x47B SWAP1 PUSH2 0x187C JUMP JUMPDEST PUSH1 0x0 PUSH1 0x6 DUP11 DUP2 SLOAD DUP2 LT PUSH2 0x613 JUMPI PUSH2 0x613 PUSH2 0x18AA JUMP JUMPDEST SWAP1 PUSH1 0x0 MSTORE PUSH1 0x20 PUSH1 0x0 KECCAK256 SWAP1 PUSH1 0x7 MUL ADD PUSH1 0x40 MLOAD DUP1 PUSH2 0x100 ADD PUSH1 0x40 MSTORE SWAP1 DUP2 PUSH1 0x0 DUP3 ADD DUP1 SLOAD PUSH2 0x63D SWAP1 PUSH2 0x1842 JUMP JUMPDEST DUP1 PUSH1 0x1F ADD PUSH1 0x20 DUP1 SWAP2 DIV MUL PUSH1 0x20 ADD PUSH1 0x40 MLOAD SWAP1 DUP2 ADD PUSH1 0x40 MSTORE DUP1 SWAP3 SWAP2 SWAP1 DUP2 DUP2 MSTORE PUSH1 0x20 ADD DUP3 DUP1 SLOAD PUSH2 0x669 SWAP1 PUSH2 0x1842 JUMP JUMPDEST DUP1 ISZERO PUSH2 0x6B6 JUMPI DUP1 PUSH1 0x1F LT PUSH2 0x68B JUMPI PUSH2 0x100 DUP1 DUP4 SLOAD DIV MUL DUP4 MSTORE SWAP2 PUSH1 0x20 ADD SWAP2 PUSH2 0x6B6 JUMP JUMPDEST DUP3 ADD SWAP2 SWAP1 PUSH1 0x0 MSTORE PUSH1 0x20 PUSH1 0x0 KECCAK256 SWAP1 JUMPDEST DUP2 SLOAD DUP2 MSTORE SWAP1 PUSH1 0x1 ADD SWAP1 PUSH1 0x20 ADD DUP1 DUP4 GT PUSH2 0x699 JUMPI DUP3 SWAP1 SUB PUSH1 0x1F AND DUP3 ADD SWAP2 JUMPDEST POP POP POP POP POP DUP2 MSTORE PUSH1 0x20 ADD PUSH1 0x1 DUP3 ADD DUP1 SLOAD PUSH2 0x6CF SWAP1 PUSH2 0x1842 JUMP JUMPDEST DUP1 PUSH1 0x1F ADD PUSH1 0x20 DUP1 SWAP2 DIV MUL PUSH1 0x20 ADD PUSH1 0x40 MLOAD SWAP1 DUP2 ADD PUSH1 0x40 MSTORE DUP1 SWAP3 SWAP2 SWAP1 DUP2 DUP2 MSTORE PUSH1 0x20 ADD DUP3 DUP1 SLOAD PUSH2 0x6FB SWAP1 PUSH2 0x1842 JUMP JUMPDEST DUP1 ISZERO PUSH2 0x748 JUMPI DUP1 PUSH1 0x1F LT PUSH2 0x71D JUMPI PUSH2 0x100 DUP1 DUP4 SLOAD DIV MUL DUP4 MSTORE SWAP2 PUSH1 0x20 ADD SWAP2 PUSH2 0x748 JUMP JUMPDEST DUP3 ADD SWAP2 SWAP1 PUSH1 0x0 MSTORE PUSH1 0x20 PUSH1 0x0 KECCAK256 SWAP1 JUMPDEST DUP2 SLOAD DUP2 MSTORE SWAP1 PUSH1 0x1 ADD SWAP1 PUSH1 0x20 ADD DUP1 DUP4 GT PUSH2 0x72B JUMPI DUP3 SWAP1 SUB PUSH1 0x1F AND DUP3 ADD SWAP2 JUMPDEST POP POP POP POP POP DUP2 MSTORE PUSH1 0x20 ADD PUSH1 0x2 DUP3 ADD SLOAD DUP2 MSTORE PUSH1 0x20 ADD PUSH1 0x3 DUP3 ADD PUSH1 0x0 SWAP1 SLOAD SWAP1 PUSH2 0x100 EXP SWAP1 DIV PUSH1 0xFF AND ISZERO ISZERO ISZERO ISZERO DUP2 MSTORE PUSH1 0x20 ADD PUSH1 0x3 DUP3 ADD PUSH1 0x1 SWAP1 SLOAD SWAP1 PUSH2 0x100 EXP SWAP1 DIV PUSH1 0xFF AND ISZERO ISZERO ISZERO ISZERO DUP2 MSTORE PUSH1 0x20 ADD PUSH1 0x4 DUP3 ADD SLOAD DUP2 MSTORE PUSH1 0x20 ADD PUSH1 0x5 DUP3 ADD SLOAD DUP2 MSTORE PUSH1 0x20 ADD PUSH1 0x6 DUP3 ADD SLOAD DUP2 MSTORE POP POP SWAP1 POP DUP1 PUSH1 0x0 ADD MLOAD DUP2 PUSH1 0x20 ADD MLOAD DUP3 PUSH1 0x40 ADD MLOAD DUP4 PUSH1 0x60 ADD MLOAD DUP5 PUSH1 0x80 ADD MLOAD DUP6 PUSH1 0xA0 ADD MLOAD DUP7 PUSH1 0xC0 ADD MLOAD SWAP9 POP SWAP9 POP SWAP9 POP SWAP9 POP SWAP9 POP SWAP9 POP SWAP9 POP POP POP SWAP2 SWAP4 SWAP6 SWAP8 SWAP1 SWAP3 SWAP5 SWAP7 POP JUMP JUMPDEST PUSH1 0x1 SLOAD PUSH1 0x1 PUSH1 0x1 PUSH1 0xA0 SHL SUB AND CALLER EQ PUSH2 0x819 JUMPI PUSH1 0x40 MLOAD PUSH3 0x461BCD PUSH1 0xE5 SHL DUP2 MSTORE PUSH1 0x4 ADD PUSH2 0x47B SWAP1 PUSH2 0x18C0 JUMP JUMPDEST PUSH1 0x1 PUSH1 0x1 PUSH1 0xA0 SHL SUB DUP3 AND PUSH1 0x0 SWAP1 DUP2 MSTORE PUSH1 0xA PUSH1 0x20 MSTORE PUSH1 0x40 SWAP1 KECCAK256 SLOAD PUSH1 0xFF AND PUSH2 0x870 JUMPI PUSH1 0x1 PUSH1 0x1 PUSH1 0xA0 SHL SUB DUP3 AND PUSH1 0x0 SWAP1 DUP2 MSTORE PUSH1 0xA PUSH1 0x20 MSTORE PUSH1 0x40 DUP2 KECCAK256 DUP1 SLOAD PUSH1 0xFF NOT AND PUSH1 0x1 OR SWAP1 SSTORE PUSH1 0xC DUP1 SLOAD SWAP2 PUSH2 0x86A DUP4 PUSH2 0x1918 JUMP JUMPDEST SWAP2 SWAP1 POP SSTORE POP JUMPDEST DUP2 PUSH1 0x1 PUSH1 0x1 PUSH1 0xA0 SHL SUB AND PUSH32 0xA8B2D18846245D44C744FA71EC159345CE064021B22654F91B6EBFBE64BCF3B1 DUP3 PUSH1 0x40 MLOAD PUSH2 0x8AB SWAP2 DUP2 MSTORE PUSH1 0x20 ADD SWAP1 JUMP JUMPDEST PUSH1 0x40 MLOAD DUP1 SWAP2 SUB SWAP1 LOG2 POP POP JUMP JUMPDEST PUSH1 0x2 DUP1 SLOAD PUSH2 0x8C4 SWAP1 PUSH2 0x1842 JUMP JUMPDEST DUP1 PUSH1 0x1F ADD PUSH1 0x20 DUP1 SWAP2 DIV MUL PUSH1 0x20 ADD PUSH1 0x40 MLOAD SWAP1 DUP2 ADD PUSH1 0x40 MSTORE DUP1 SWAP3 SWAP2 SWAP1 DUP2 DUP2 MSTORE PUSH1 0x20 ADD DUP3 DUP1 SLOAD PUSH2 0x8F0 SWAP1 PUSH2 0x1842 JUMP JUMPDEST DUP1 ISZERO PUSH2 0x93D JUMPI DUP1 PUSH1 0x1F LT PUSH2 0x912 JUMPI PUSH2 0x100 DUP1 DUP4 SLOAD DIV MUL DUP4 MSTORE SWAP2 PUSH1 0x20 ADD SWAP2 PUSH2 0x93D JUMP JUMPDEST DUP3 ADD SWAP2 SWAP1 PUSH1 0x0 MSTORE PUSH1 0x20 PUSH1 0x0 KECCAK256 SWAP1 JUMPDEST DUP2 SLOAD DUP2 MSTORE SWAP1 PUSH1 0x1 ADD SWAP1 PUSH1 0x20 ADD DUP1 DUP4 GT PUSH2 0x920 JUMPI DUP3 SWAP1 SUB PUSH1 0x1F AND DUP3 ADD SWAP2 JUMPDEST POP POP POP POP POP DUP2 JUMP JUMPDEST PUSH1 0x3 DUP1 SLOAD PUSH2 0x8C4 SWAP1 PUSH2 0x1842 JUMP JUMPDEST PUSH1 0x0 SLOAD PUSH1 0x1 PUSH1 0x1 PUSH1 0xA0 SHL SUB AND CALLER EQ PUSH2 0x97C JUMPI PUSH1 0x40 MLOAD PUSH3 0x461BCD PUSH1 0xE5 SHL DUP2 MSTORE PUSH1 0x4 ADD PUSH2 0x47B SWAP1 PUSH2 0x1931 JUMP JUMPDEST PUSH1 0x6 SLOAD DUP5 SWAP1 DUP2 LT PUSH2 0x99F JUMPI PUSH1 0x40 MLOAD PUSH3 0x461BCD PUSH1 0xE5 SHL DUP2 MSTORE PUSH1 0x4 ADD PUSH2 0x47B SWAP1 PUSH2 0x187C JUMP JUMPDEST PUSH1 0x0 PUSH1 0x6 DUP7 DUP2 SLOAD DUP2 LT PUSH2 0x9B4 JUMPI PUSH2 0x9B4 PUSH2 0x18AA JUMP JUMPDEST PUSH1 0x0 SWAP2 DUP3 MSTORE PUSH1 0x20 SWAP1 SWAP2 KECCAK256 PUSH1 0x7 SWAP1 SWAP2 MUL ADD PUSH1 0x3 DUP2 ADD SLOAD SWAP1 SWAP2 POP PUSH1 0xFF AND ISZERO PUSH2 0xA1C JUMPI PUSH1 0x40 MLOAD PUSH3 0x461BCD PUSH1 0xE5 SHL DUP2 MSTORE PUSH1 0x20 PUSH1 0x4 DUP3 ADD MSTORE PUSH1 0x1B PUSH1 0x24 DUP3 ADD MSTORE PUSH32 0x4D696C6573746F6E6520616C726561647920636F6D706C657465640000000000 PUSH1 0x44 DUP3 ADD MSTORE PUSH1 0x64 ADD PUSH2 0x47B JUMP JUMPDEST PUSH1 0x0 DUP7 DUP2 MSTORE PUSH1 0x7 PUSH1 0x20 MSTORE PUSH1 0x40 SWAP1 KECCAK256 PUSH1 0x3 ADD SLOAD ISZERO PUSH2 0xA7B JUMPI PUSH1 0x40 MLOAD PUSH3 0x461BCD PUSH1 0xE5 SHL DUP2 MSTORE PUSH1 0x20 PUSH1 0x4 DUP3 ADD MSTORE PUSH1 0x17 PUSH1 0x24 DUP3 ADD MSTORE PUSH32 0x50726F6F6620616C7265616479207375626D6974746564000000000000000000 PUSH1 0x44 DUP3 ADD MSTORE PUSH1 0x64 ADD PUSH2 0x47B JUMP JUMPDEST PUSH1 0x40 DUP1 MLOAD PUSH1 0xC0 DUP2 ADD DUP3 MSTORE DUP7 DUP2 MSTORE PUSH1 0x20 DUP1 DUP3 ADD DUP8 DUP2 MSTORE DUP3 DUP5 ADD DUP8 DUP2 MSTORE TIMESTAMP PUSH1 0x60 DUP6 ADD MSTORE CALLER PUSH1 0x80 DUP6 ADD MSTORE PUSH1 0x0 PUSH1 0xA0 DUP6 ADD DUP2 SWAP1 MSTORE DUP12 DUP2 MSTORE PUSH1 0x7 SWAP1 SWAP4 MSTORE SWAP4 SWAP1 SWAP2 KECCAK256 DUP3 MLOAD DUP2 SSTORE SWAP1 MLOAD PUSH1 0x1 DUP3 ADD SSTORE SWAP2 MLOAD SWAP1 SWAP2 SWAP1 PUSH1 0x2 DUP3 ADD SWAP1 PUSH2 0xAD6 SWAP1 DUP3 PUSH2 0x19C8 JUMP JUMPDEST POP PUSH1 0x60 DUP3 ADD MLOAD PUSH1 0x3 DUP1 DUP4 ADD SWAP2 SWAP1 SWAP2 SSTORE PUSH1 0x80 DUP4 ADD MLOAD PUSH1 0x4 DUP4 ADD DUP1 SLOAD PUSH1 0x1 PUSH1 0x1 PUSH1 0xA0 SHL SUB SWAP1 SWAP3 AND PUSH1 0x1 PUSH1 0x1 PUSH1 0xA0 SHL SUB NOT DUP4 AND DUP2 OR DUP3 SSTORE PUSH1 0xA0 DUP7 ADD MLOAD SWAP4 SWAP2 SWAP3 PUSH1 0x1 PUSH1 0x1 PUSH1 0xA8 SHL SUB NOT AND OR SWAP1 PUSH1 0x1 PUSH1 0xA0 SHL SWAP1 DUP5 SWAP1 DUP2 GT ISZERO PUSH2 0xB35 JUMPI PUSH2 0xB35 PUSH2 0x14D5 JUMP JUMPDEST MUL OR SWAP1 SSTORE POP SWAP1 POP POP DUP6 PUSH32 0xB20536E1D2514757B8C98D154D057B860F38137288748C41EBAA88730AB4E574 DUP7 DUP7 DUP7 CALLER PUSH1 0x40 MLOAD PUSH2 0xB73 SWAP5 SWAP4 SWAP3 SWAP2 SWAP1 PUSH2 0x1A88 JUMP JUMPDEST PUSH1 0x40 MLOAD DUP1 SWAP2 SUB SWAP1 LOG2 POP POP POP POP POP POP JUMP JUMPDEST PUSH1 0x1 SLOAD PUSH1 0x1 PUSH1 0x1 PUSH1 0xA0 SHL SUB AND CALLER EQ PUSH2 0xBAD JUMPI PUSH1 0x40 MLOAD PUSH3 0x461BCD PUSH1 0xE5 SHL DUP2 MSTORE PUSH1 0x4 ADD PUSH2 0x47B SWAP1 PUSH2 0x18C0 JUMP JUMPDEST PUSH1 0x1 PUSH1 0x1 PUSH1 0xA0 SHL SUB DUP2 AND PUSH1 0x0 SWAP1 DUP2 MSTORE PUSH1 0x9 PUSH1 0x20 MSTORE PUSH1 0x40 SWAP1 KECCAK256 SLOAD PUSH1 0xFF AND ISZERO PUSH2 0xC0B JUMPI PUSH1 0x40 MLOAD PUSH3 0x461BCD PUSH1 0xE5 SHL DUP2 MSTORE PUSH1 0x20 PUSH1 0x4 DUP3 ADD MSTORE PUSH1 0x12 PUSH1 0x24 DUP3 ADD MSTORE PUSH18 0x20B63932B0B23C9030903B32B934B334B2B9 PUSH1 0x71 SHL PUSH1 0x44 DUP3 ADD MSTORE PUSH1 0x64 ADD PUSH2 0x47B JUMP JUMPDEST PUSH1 0x1 PUSH1 0x1 PUSH1 0xA0 SHL SUB DUP2 AND PUSH1 0x0 SWAP1 DUP2 MSTORE PUSH1 0x9 PUSH1 0x20 MSTORE PUSH1 0x40 DUP2 KECCAK256 DUP1 SLOAD PUSH1 0xFF NOT AND PUSH1 0x1 OR SWAP1 SSTORE PUSH1 0xB DUP1 SLOAD SWAP2 PUSH2 0xC3C DUP4 PUSH2 0x1918 JUMP JUMPDEST SWAP1 SWAP2 SSTORE POP POP PUSH1 0x40 MLOAD PUSH1 0x1 PUSH1 0x1 PUSH1 0xA0 SHL SUB DUP3 AND SWAP1 PUSH32 0x6D05492139C5EA989514A5D2150C028041E5C087E2A39967F67DC7D2655ADB81 SWAP1 PUSH1 0x0 SWAP1 LOG2 POP JUMP JUMPDEST PUSH1 0x0 SLOAD PUSH1 0x1 PUSH1 0x1 PUSH1 0xA0 SHL SUB AND CALLER EQ PUSH2 0xCA2 JUMPI PUSH1 0x40 MLOAD PUSH3 0x461BCD PUSH1 0xE5 SHL DUP2 MSTORE PUSH1 0x4 ADD PUSH2 0x47B SWAP1 PUSH2 0x1931 JUMP JUMPDEST PUSH1 0x0 DUP2 GT PUSH2 0xCF2 JUMPI PUSH1 0x40 MLOAD PUSH3 0x461BCD PUSH1 0xE5 SHL DUP2 MSTORE PUSH1 0x20 PUSH1 0x4 DUP3 ADD MSTORE PUSH1 0x1E PUSH1 0x24 DUP3 ADD MSTORE PUSH32 0x526571756972656420617070726F76616C73206D757374206265203E20300000 PUSH1 0x44 DUP3 ADD MSTORE PUSH1 0x64 ADD PUSH2 0x47B JUMP JUMPDEST PUSH1 0x40 DUP1 MLOAD PUSH2 0x100 DUP2 ADD DUP3 MSTORE DUP5 DUP2 MSTORE PUSH1 0x20 DUP2 ADD DUP5 SWAP1 MSTORE SWAP1 DUP2 ADD DUP3 SWAP1 MSTORE PUSH1 0x0 PUSH1 0x60 DUP3 ADD DUP2 SWAP1 MSTORE PUSH1 0x80 DUP3 ADD DUP2 SWAP1 MSTORE PUSH1 0xA0 DUP3 ADD DUP2 SWAP1 MSTORE PUSH1 0xC0 DUP3 ADD DUP2 SWAP1 MSTORE TIMESTAMP PUSH1 0xE0 DUP4 ADD MSTORE PUSH1 0x6 DUP1 SLOAD PUSH1 0x1 DUP2 ADD DUP3 SSTORE SWAP2 MSTORE DUP2 MLOAD PUSH1 0x7 SWAP1 SWAP2 MUL PUSH32 0xF652222313E28459528D920B65115C16C04F3EFC82AAEDC97BE59F3F377C0D3F ADD SWAP1 DUP2 SWAP1 PUSH2 0xD73 SWAP1 DUP3 PUSH2 0x19C8 JUMP JUMPDEST POP PUSH1 0x20 DUP3 ADD MLOAD PUSH1 0x1 DUP3 ADD SWAP1 PUSH2 0xD88 SWAP1 DUP3 PUSH2 0x19C8 JUMP JUMPDEST POP PUSH1 0x40 DUP3 ADD MLOAD PUSH1 0x2 DUP3 ADD SSTORE PUSH1 0x60 DUP3 ADD MLOAD PUSH1 0x3 DUP3 ADD DUP1 SLOAD PUSH1 0x80 DUP6 ADD MLOAD ISZERO ISZERO PUSH2 0x100 MUL PUSH2 0xFF00 NOT SWAP4 ISZERO ISZERO SWAP4 SWAP1 SWAP4 AND PUSH2 0xFFFF NOT SWAP1 SWAP2 AND OR SWAP2 SWAP1 SWAP2 OR SWAP1 SSTORE PUSH1 0xA0 DUP3 ADD MLOAD PUSH1 0x4 DUP3 ADD SSTORE PUSH1 0xC0 DUP3 ADD MLOAD PUSH1 0x5 DUP3 ADD SSTORE PUSH1 0xE0 SWAP1 SWAP2 ADD MLOAD PUSH1 0x6 SWAP2 DUP3 ADD SSTORE SLOAD PUSH2 0xDEF SWAP1 PUSH1 0x1 SWAP1 PUSH2 0x1AC0 JUMP JUMPDEST PUSH32 0xFB2640E61011D6CC3359150A461928A5C739C62D7FE25212CE2BC7CE424AEE4D DUP5 DUP5 DUP5 PUSH1 0x40 MLOAD PUSH2 0xE22 SWAP4 SWAP3 SWAP2 SWAP1 PUSH2 0x1AD3 JUMP JUMPDEST PUSH1 0x40 MLOAD DUP1 SWAP2 SUB SWAP1 LOG2 POP POP POP JUMP JUMPDEST PUSH1 0x1 SLOAD PUSH1 0x1 PUSH1 0x1 PUSH1 0xA0 SHL SUB AND CALLER EQ PUSH2 0xE59 JUMPI PUSH1 0x40 MLOAD PUSH3 0x461BCD PUSH1 0xE5 SHL DUP2 MSTORE PUSH1 0x4 ADD PUSH2 0x47B SWAP1 PUSH2 0x18C0 JUMP JUMPDEST PUSH1 0x1 PUSH1 0x1 PUSH1 0xA0 SHL SUB DUP2 AND PUSH1 0x0 SWAP1 DUP2 MSTORE PUSH1 0x9 PUSH1 0x20 MSTORE PUSH1 0x40 SWAP1 KECCAK256 SLOAD PUSH1 0xFF AND PUSH2 0xEB2 JUMPI PUSH1 0x40 MLOAD PUSH3 0x461BCD PUSH1 0xE5 SHL DUP2 MSTORE PUSH1 0x20 PUSH1 0x4 DUP3 ADD MSTORE PUSH1 0xE PUSH1 0x24 DUP3 ADD MSTORE PUSH14 0x2737BA1030903B32B934B334B2B9 PUSH1 0x91 SHL PUSH1 0x44 DUP3 ADD MSTORE PUSH1 0x64 ADD PUSH2 0x47B JUMP JUMPDEST PUSH1 0x1 PUSH1 0x1 PUSH1 0xA0 SHL SUB DUP2 AND PUSH1 0x0 SWAP1 DUP2 MSTORE PUSH1 0x9 PUSH1 0x20 MSTORE PUSH1 0x40 DUP2 KECCAK256 DUP1 SLOAD PUSH1 0xFF NOT AND SWAP1 SSTORE PUSH1 0xB DUP1 SLOAD SWAP2 PUSH2 0xEE0 DUP4 PUSH2 0x1B09 JUMP JUMPDEST SWAP1 SWAP2 SSTORE POP POP PUSH1 0x40 MLOAD PUSH1 0x1 PUSH1 0x1 PUSH1 0xA0 SHL SUB DUP3 AND SWAP1 PUSH32 0x44A3CD4EB5CC5748F6169DF057B1CB2AE4C383E87CD94663C430E095D4CBA424 SWAP1 PUSH1 0x0 SWAP1 LOG2 POP JUMP JUMPDEST PUSH1 0x0 DUP3 DUP2 MSTORE PUSH1 0x8 PUSH1 0x20 SWAP1 DUP2 MSTORE PUSH1 0x40 DUP1 DUP4 KECCAK256 PUSH1 0x1 PUSH1 0x1 PUSH1 0xA0 SHL SUB DUP6 AND DUP5 MSTORE SWAP1 SWAP2 MSTORE SWAP1 KECCAK256 SLOAD PUSH1 0xFF AND JUMPDEST SWAP3 SWAP2 POP POP JUMP JUMPDEST PUSH1 0x6 DUP2 DUP2 SLOAD DUP2 LT PUSH2 0xF59 JUMPI PUSH1 0x0 DUP1 REVERT JUMPDEST SWAP1 PUSH1 0x0 MSTORE PUSH1 0x20 PUSH1 0x0 KECCAK256 SWAP1 PUSH1 0x7 MUL ADD PUSH1 0x0 SWAP2 POP SWAP1 POP DUP1 PUSH1 0x0 ADD DUP1 SLOAD PUSH2 0xF7C SWAP1 PUSH2 0x1842 JUMP JUMPDEST DUP1 PUSH1 0x1F ADD PUSH1 0x20 DUP1 SWAP2 DIV MUL PUSH1 0x20 ADD PUSH1 0x40 MLOAD SWAP1 DUP2 ADD PUSH1 0x40 MSTORE DUP1 SWAP3 SWAP2 SWAP1 DUP2 DUP2 MSTORE PUSH1 0x20 ADD DUP3 DUP1 SLOAD PUSH2 0xFA8 SWAP1 PUSH2 0x1842 JUMP JUMPDEST DUP1 ISZERO PUSH2 0xFF5 JUMPI DUP1 PUSH1 0x1F LT PUSH2 0xFCA JUMPI PUSH2 0x100 DUP1 DUP4 SLOAD DIV MUL DUP4 MSTORE SWAP2 PUSH1 0x20 ADD SWAP2 PUSH2 0xFF5 JUMP JUMPDEST DUP3 ADD SWAP2 SWAP1 PUSH1 0x0 MSTORE PUSH1 0x20 PUSH1 0x0 KECCAK256 SWAP1 JUMPDEST DUP2 SLOAD DUP2 MSTORE SWAP1 PUSH1 0x1 ADD SWAP1 PUSH1 0x20 ADD DUP1 DUP4 GT PUSH2 0xFD8 JUMPI DUP3 SWAP1 SUB PUSH1 0x1F AND DUP3 ADD SWAP2 JUMPDEST POP POP POP POP POP SWAP1 DUP1 PUSH1 0x1 ADD DUP1 SLOAD PUSH2 0x100A SWAP1 PUSH2 0x1842 JUMP JUMPDEST DUP1 PUSH1 0x1F ADD PUSH1 0x20 DUP1 SWAP2 DIV MUL PUSH1 0x20 ADD PUSH1 0x40 MLOAD SWAP1 DUP2 ADD PUSH1 0x40 MSTORE DUP1 SWAP3 SWAP2 SWAP1 DUP2 DUP2 MSTORE PUSH1 0x20 ADD DUP3 DUP1 SLOAD PUSH2 0x1036 SWAP1 PUSH2 0x1842 JUMP JUMPDEST DUP1 ISZERO PUSH2 0x1083 JUMPI DUP1 PUSH1 0x1F LT PUSH2 0x1058 JUMPI PUSH2 0x100 DUP1 DUP4 SLOAD DIV MUL DUP4 MSTORE SWAP2 PUSH1 0x20 ADD SWAP2 PUSH2 0x1083 JUMP JUMPDEST DUP3 ADD SWAP2 SWAP1 PUSH1 0x0 MSTORE PUSH1 0x20 PUSH1 0x0 KECCAK256 SWAP1 JUMPDEST DUP2 SLOAD DUP2 MSTORE SWAP1 PUSH1 0x1 ADD SWAP1 PUSH1 0x20 ADD DUP1 DUP4 GT PUSH2 0x1066 JUMPI DUP3 SWAP1 SUB PUSH1 0x1F AND DUP3 ADD SWAP2 JUMPDEST POP POP POP PUSH1 0x2 DUP5 ADD SLOAD PUSH1 0x3 DUP6 ADD SLOAD PUSH1 0x4 DUP7 ADD SLOAD PUSH1 0x5 DUP8 ADD SLOAD PUSH1 0x6 SWAP1 SWAP8 ADD SLOAD SWAP6 SWAP7 SWAP3 SWAP6 PUSH1 0xFF DUP1 DUP5 AND SWAP7 POP PUSH2 0x100 SWAP1 SWAP4 DIV SWAP1 SWAP3 AND SWAP4 POP SWAP2 SWAP1 DUP9 JUMP JUMPDEST CALLER PUSH1 0x0 SWAP1 DUP2 MSTORE PUSH1 0x9 PUSH1 0x20 MSTORE PUSH1 0x40 SWAP1 KECCAK256 SLOAD PUSH1 0xFF AND PUSH2 0x1129 JUMPI PUSH1 0x40 MLOAD PUSH3 0x461BCD PUSH1 0xE5 SHL DUP2 MSTORE PUSH1 0x20 PUSH1 0x4 DUP3 ADD MSTORE PUSH1 0x26 PUSH1 0x24 DUP3 ADD MSTORE PUSH32 0x4F6E6C79207665726966696572732063616E20706572666F726D207468697320 PUSH1 0x44 DUP3 ADD MSTORE PUSH6 0x30B1BA34B7B7 PUSH1 0xD1 SHL PUSH1 0x64 DUP3 ADD MSTORE PUSH1 0x84 ADD PUSH2 0x47B JUMP JUMPDEST PUSH1 0x6 SLOAD DUP3 SWAP1 DUP2 LT PUSH2 0x114C JUMPI PUSH1 0x40 MLOAD PUSH3 0x461BCD PUSH1 0xE5 SHL DUP2 MSTORE PUSH1 0x4 ADD PUSH2 0x47B SWAP1 PUSH2 0x187C JUMP JUMPDEST PUSH1 0x0 DUP4 DUP2 MSTORE PUSH1 0x8 PUSH1 0x20 SWAP1 DUP2 MSTORE PUSH1 0x40 DUP1 DUP4 KECCAK256 CALLER DUP5 MSTORE SWAP1 SWAP2 MSTORE SWAP1 KECCAK256 SLOAD PUSH1 0xFF AND ISZERO PUSH2 0x11AF JUMPI PUSH1 0x40 MLOAD PUSH3 0x461BCD PUSH1 0xE5 SHL DUP2 MSTORE PUSH1 0x20 PUSH1 0x4 DUP3 ADD MSTORE PUSH1 0x16 PUSH1 0x24 DUP3 ADD MSTORE PUSH22 0x165BDD481A185D9948185B1C9958591E481D9BDD1959 PUSH1 0x52 SHL PUSH1 0x44 DUP3 ADD MSTORE PUSH1 0x64 ADD PUSH2 0x47B JUMP JUMPDEST PUSH1 0x0 DUP4 DUP2 MSTORE PUSH1 0x7 PUSH1 0x20 MSTORE PUSH1 0x40 SWAP1 KECCAK256 PUSH1 0x3 ADD SLOAD PUSH2 0x1202 JUMPI PUSH1 0x40 MLOAD PUSH3 0x461BCD PUSH1 0xE5 SHL DUP2 MSTORE PUSH1 0x20 PUSH1 0x4 DUP3 ADD MSTORE PUSH1 0x12 PUSH1 0x24 DUP3 ADD MSTORE PUSH18 0x139BC81C1C9BDBD9881CDD589B5A5D1D1959 PUSH1 0x72 SHL PUSH1 0x44 DUP3 ADD MSTORE PUSH1 0x64 ADD PUSH2 0x47B JUMP JUMPDEST PUSH1 0x0 PUSH1 0x6 DUP5 DUP2 SLOAD DUP2 LT PUSH2 0x1217 JUMPI PUSH2 0x1217 PUSH2 0x18AA JUMP JUMPDEST PUSH1 0x0 SWAP2 DUP3 MSTORE PUSH1 0x20 SWAP1 SWAP2 KECCAK256 PUSH1 0x7 SWAP1 SWAP2 MUL ADD PUSH1 0x3 DUP2 ADD SLOAD SWAP1 SWAP2 POP PUSH1 0xFF AND ISZERO PUSH2 0x127F JUMPI PUSH1 0x40 MLOAD PUSH3 0x461BCD PUSH1 0xE5 SHL DUP2 MSTORE PUSH1 0x20 PUSH1 0x4 DUP3 ADD MSTORE PUSH1 0x1B PUSH1 0x24 DUP3 ADD MSTORE PUSH32 0x4D696C6573746F6E6520616C726561647920636F6D706C657465640000000000 PUSH1 0x44 DUP3 ADD MSTORE PUSH1 0x64 ADD PUSH2 0x47B JUMP JUMPDEST PUSH1 0x0 DUP5 DUP2 MSTORE PUSH1 0x8 PUSH1 0x20 SWAP1 DUP2 MSTORE PUSH1 0x40 DUP1 DUP4 KECCAK256 CALLER DUP5 MSTORE SWAP1 SWAP2 MSTORE SWAP1 KECCAK256 DUP1 SLOAD PUSH1 0xFF NOT AND PUSH1 0x1 OR SWAP1 SSTORE DUP3 ISZERO PUSH2 0x12C5 JUMPI PUSH1 0x4 DUP2 ADD DUP1 SLOAD SWAP1 PUSH1 0x0 PUSH2 0x12BB DUP4 PUSH2 0x1918 JUMP JUMPDEST SWAP2 SWAP1 POP SSTORE POP PUSH2 0x12DD JUMP JUMPDEST PUSH1 0x5 DUP2 ADD DUP1 SLOAD SWAP1 PUSH1 0x0 PUSH2 0x12D7 DUP4 PUSH2 0x1918 JUMP JUMPDEST SWAP2 SWAP1 POP SSTORE POP JUMPDEST CALLER PUSH1 0x1 PUSH1 0x1 PUSH1 0xA0 SHL SUB AND DUP5 PUSH32 0xC4CE3F0CDCC6C3A55938650BA7706E6B5D9F686F108FDCE6A6BB68424FE1ED75 DUP6 PUSH1 0x40 MLOAD PUSH2 0x132A SWAP2 ISZERO ISZERO DUP2 MSTORE PUSH1 0x40 PUSH1 0x20 DUP3 ADD DUP2 SWAP1 MSTORE PUSH1 0x0 SWAP1 DUP3 ADD MSTORE PUSH1 0x60 ADD SWAP1 JUMP JUMPDEST PUSH1 0x40 MLOAD DUP1 SWAP2 SUB SWAP1 LOG3 PUSH2 0x133B DUP5 PUSH2 0x1341 JUMP JUMPDEST POP POP POP POP JUMP JUMPDEST PUSH1 0x0 PUSH1 0x6 DUP3 DUP2 SLOAD DUP2 LT PUSH2 0x1356 JUMPI PUSH2 0x1356 PUSH2 0x18AA JUMP JUMPDEST SWAP1 PUSH1 0x0 MSTORE PUSH1 0x20 PUSH1 0x0 KECCAK256 SWAP1 PUSH1 0x7 MUL ADD SWAP1 POP DUP1 PUSH1 0x2 ADD SLOAD DUP2 PUSH1 0x4 ADD SLOAD LT PUSH2 0x13F2 JUMPI PUSH1 0x3 DUP2 ADD DUP1 SLOAD PUSH2 0xFFFF NOT AND PUSH2 0x101 OR SWAP1 SSTORE PUSH1 0x0 DUP3 DUP2 MSTORE PUSH1 0x7 PUSH1 0x20 MSTORE PUSH1 0x40 SWAP1 KECCAK256 PUSH1 0x4 ADD DUP1 SLOAD PUSH1 0x2 SWAP2 SWAP1 PUSH1 0xFF PUSH1 0xA0 SHL NOT AND PUSH1 0x1 PUSH1 0xA0 SHL DUP4 MUL OR SWAP1 SSTORE POP PUSH1 0x4 DUP2 ADD SLOAD PUSH1 0x40 DUP1 MLOAD SWAP2 DUP3 MSTORE TIMESTAMP PUSH1 0x20 DUP4 ADD MSTORE DUP4 SWAP2 PUSH32 0x6E3FD8BB18EED6833AE758E07C361BF145CE27C88BDF6D5029DDABF188D72CA6 SWAP2 ADD PUSH1 0x40 MLOAD DUP1 SWAP2 SUB SWAP1 LOG2 POP POP JUMP JUMPDEST DUP1 PUSH1 0x2 ADD SLOAD DUP2 PUSH1 0x5 ADD SLOAD LT PUSH2 0x1472 JUMPI PUSH1 0x3 DUP1 DUP3 ADD DUP1 SLOAD PUSH1 0xFF NOT AND PUSH1 0x1 OR SWAP1 SSTORE PUSH1 0x0 DUP4 DUP2 MSTORE PUSH1 0x7 PUSH1 0x20 MSTORE PUSH1 0x40 SWAP1 KECCAK256 PUSH1 0x4 ADD DUP1 SLOAD PUSH1 0xFF PUSH1 0xA0 SHL NOT AND PUSH1 0x1 PUSH1 0xA0 SHL DUP4 MUL OR SWAP1 SSTORE POP PUSH1 0x5 DUP2 ADD SLOAD PUSH1 0x40 DUP1 MLOAD SWAP2 DUP3 MSTORE TIMESTAMP PUSH1 0x20 DUP4 ADD MSTORE DUP4 SWAP2 PUSH32 0x99C1E384941F7E42E3F9FE91B348AA32F8105B4E750B515D7E0D41EE8B66B0CC SWAP2 ADD PUSH2 0x8AB JUMP JUMPDEST POP POP JUMP JUMPDEST PUSH1 0x0 PUSH1 0x20 DUP3 DUP5 SUB SLT ISZERO PUSH2 0x1488 JUMPI PUSH1 0x0 DUP1 REVERT JUMPDEST POP CALLDATALOAD SWAP2 SWAP1 POP JUMP JUMPDEST PUSH1 0x0 DUP2 MLOAD DUP1 DUP5 MSTORE PUSH1 0x0 JUMPDEST DUP2 DUP2 LT ISZERO PUSH2 0x14B5 JUMPI PUSH1 0x20 DUP2 DUP6 ADD DUP2 ADD MLOAD DUP7 DUP4 ADD DUP3 ADD MSTORE ADD PUSH2 0x1499 JUMP JUMPDEST POP PUSH1 0x0 PUSH1 0x20 DUP3 DUP7 ADD ADD MSTORE PUSH1 0x20 PUSH1 0x1F NOT PUSH1 0x1F DUP4 ADD AND DUP6 ADD ADD SWAP2 POP POP SWAP3 SWAP2 POP POP JUMP JUMPDEST PUSH4 0x4E487B71 PUSH1 0xE0 SHL PUSH1 0x0 MSTORE PUSH1 0x21 PUSH1 0x4 MSTORE PUSH1 0x24 PUSH1 0x0 REVERT JUMPDEST DUP7 DUP2 MSTORE DUP6 PUSH1 0x20 DUP3 ADD MSTORE PUSH1 0xC0 PUSH1 0x40 DUP3 ADD MSTORE PUSH1 0x0 PUSH2 0x150A PUSH1 0xC0 DUP4 ADD DUP8 PUSH2 0x148F JUMP JUMPDEST PUSH1 0x60 DUP4 ADD DUP7 SWAP1 MSTORE PUSH1 0x1 PUSH1 0x1 PUSH1 0xA0 SHL SUB DUP6 AND PUSH1 0x80 DUP5 ADD MSTORE SWAP1 POP PUSH1 0x4 DUP4 LT PUSH2 0x1540 JUMPI PUSH4 0x4E487B71 PUSH1 0xE0 SHL PUSH1 0x0 MSTORE PUSH1 0x21 PUSH1 0x4 MSTORE PUSH1 0x24 PUSH1 0x0 REVERT JUMPDEST DUP3 PUSH1 0xA0 DUP4 ADD MSTORE SWAP8 SWAP7 POP POP POP POP POP POP POP JUMP JUMPDEST PUSH1 0xE0 DUP2 MSTORE PUSH1 0x0 PUSH2 0x1564 PUSH1 0xE0 DUP4 ADD DUP11 PUSH2 0x148F JUMP JUMPDEST DUP3 DUP2 SUB PUSH1 0x20 DUP5 ADD MSTORE PUSH2 0x1576 DUP2 DUP11 PUSH2 0x148F JUMP JUMPDEST PUSH1 0x40 DUP5 ADD SWAP9 SWAP1 SWAP9 MSTORE POP POP SWAP4 ISZERO ISZERO PUSH1 0x60 DUP6 ADD MSTORE SWAP2 ISZERO ISZERO PUSH1 0x80 DUP5 ADD MSTORE PUSH1 0xA0 DUP4 ADD MSTORE PUSH1 0xC0 SWAP1 SWAP2 ADD MSTORE SWAP3 SWAP2 POP POP JUMP JUMPDEST DUP1 CALLDATALOAD PUSH1 0x1 PUSH1 0x1 PUSH1 0xA0 SHL SUB DUP2 AND DUP2 EQ PUSH2 0x15B8 JUMPI PUSH1 0x0 DUP1 REVERT JUMPDEST SWAP2 SWAP1 POP JUMP JUMPDEST PUSH1 0x0 PUSH1 0x20 DUP3 DUP5 SUB SLT ISZERO PUSH2 0x15CF JUMPI PUSH1 0x0 DUP1 REVERT JUMPDEST PUSH2 0x15D8 DUP3 PUSH2 0x15A1 JUMP JUMPDEST SWAP4 SWAP3 POP POP POP JUMP JUMPDEST PUSH1 0x0 DUP1 PUSH1 0x40 DUP4 DUP6 SUB SLT ISZERO PUSH2 0x15F2 JUMPI PUSH1 0x0 DUP1 REVERT JUMPDEST PUSH2 0x15FB DUP4 PUSH2 0x15A1 JUMP JUMPDEST SWAP5 PUSH1 0x20 SWAP4 SWAP1 SWAP4 ADD CALLDATALOAD SWAP4 POP POP POP JUMP JUMPDEST PUSH1 0x0 DUP1 PUSH1 0x40 DUP4 DUP6 SUB SLT ISZERO PUSH2 0x161C JUMPI PUSH1 0x0 DUP1 REVERT JUMPDEST DUP3 CALLDATALOAD SWAP2 POP PUSH2 0x162C PUSH1 0x20 DUP5 ADD PUSH2 0x15A1 JUMP JUMPDEST SWAP1 POP SWAP3 POP SWAP3 SWAP1 POP JUMP JUMPDEST PUSH1 0x20 DUP2 MSTORE PUSH1 0x0 PUSH2 0x15D8 PUSH1 0x20 DUP4 ADD DUP5 PUSH2 0x148F JUMP JUMPDEST PUSH4 0x4E487B71 PUSH1 0xE0 SHL PUSH1 0x0 MSTORE PUSH1 0x41 PUSH1 0x4 MSTORE PUSH1 0x24 PUSH1 0x0 REVERT JUMPDEST PUSH1 0x0 DUP3 PUSH1 0x1F DUP4 ADD SLT PUSH2 0x166F JUMPI PUSH1 0x0 DUP1 REVERT JUMPDEST DUP2 CALLDATALOAD PUSH8 0xFFFFFFFFFFFFFFFF DUP1 DUP3 GT ISZERO PUSH2 0x168A JUMPI PUSH2 0x168A PUSH2 0x1648 JUMP JUMPDEST PUSH1 0x40 MLOAD PUSH1 0x1F DUP4 ADD PUSH1 0x1F NOT SWAP1 DUP2 AND PUSH1 0x3F ADD AND DUP2 ADD SWAP1 DUP3 DUP3 GT DUP2 DUP4 LT OR ISZERO PUSH2 0x16B2 JUMPI PUSH2 0x16B2 PUSH2 0x1648 JUMP JUMPDEST DUP2 PUSH1 0x40 MSTORE DUP4 DUP2 MSTORE DUP7 PUSH1 0x20 DUP6 DUP9 ADD ADD GT ISZERO PUSH2 0x16CB JUMPI PUSH1 0x0 DUP1 REVERT JUMPDEST DUP4 PUSH1 0x20 DUP8 ADD PUSH1 0x20 DUP4 ADD CALLDATACOPY PUSH1 0x0 PUSH1 0x20 DUP6 DUP4 ADD ADD MSTORE DUP1 SWAP5 POP POP POP POP POP SWAP3 SWAP2 POP POP JUMP JUMPDEST PUSH1 0x0 DUP1 PUSH1 0x0 DUP1 PUSH1 0x80 DUP6 DUP8 SUB SLT ISZERO PUSH2 0x1701 JUMPI PUSH1 0x0 DUP1 REVERT JUMPDEST DUP5 CALLDATALOAD SWAP4 POP PUSH1 0x20 DUP6 ADD CALLDATALOAD SWAP3 POP PUSH1 0x40 DUP6 ADD CALLDATALOAD SWAP2 POP PUSH1 0x60 DUP6 ADD CALLDATALOAD PUSH8 0xFFFFFFFFFFFFFFFF DUP2 GT ISZERO PUSH2 0x172D JUMPI PUSH1 0x0 DUP1 REVERT JUMPDEST PUSH2 0x1739 DUP8 DUP3 DUP9 ADD PUSH2 0x165E JUMP JUMPDEST SWAP2 POP POP SWAP3 SWAP6 SWAP2 SWAP5 POP SWAP3 POP JUMP JUMPDEST PUSH1 0x0 DUP1 PUSH1 0x0 PUSH1 0x60 DUP5 DUP7 SUB SLT ISZERO PUSH2 0x175A JUMPI PUSH1 0x0 DUP1 REVERT JUMPDEST DUP4 CALLDATALOAD PUSH8 0xFFFFFFFFFFFFFFFF DUP1 DUP3 GT ISZERO PUSH2 0x1772 JUMPI PUSH1 0x0 DUP1 REVERT JUMPDEST PUSH2 0x177E DUP8 DUP4 DUP9 ADD PUSH2 0x165E JUMP JUMPDEST SWAP5 POP PUSH1 0x20 DUP7 ADD CALLDATALOAD SWAP2 POP DUP1 DUP3 GT ISZERO PUSH2 0x1794 JUMPI PUSH1 0x0 DUP1 REVERT JUMPDEST POP PUSH2 0x17A1 DUP7 DUP3 DUP8 ADD PUSH2 0x165E JUMP JUMPDEST SWAP3 POP POP PUSH1 0x40 DUP5 ADD CALLDATALOAD SWAP1 POP SWAP3 POP SWAP3 POP SWAP3 JUMP JUMPDEST PUSH1 0x0 PUSH2 0x100 DUP1 DUP4 MSTORE PUSH2 0x17C6 DUP2 DUP5 ADD DUP13 PUSH2 0x148F JUMP JUMPDEST SWAP1 POP DUP3 DUP2 SUB PUSH1 0x20 DUP5 ADD MSTORE PUSH2 0x17DA DUP2 DUP12 PUSH2 0x148F JUMP JUMPDEST PUSH1 0x40 DUP5 ADD SWAP10 SWAP1 SWAP10 MSTORE POP POP SWAP5 ISZERO ISZERO PUSH1 0x60 DUP7 ADD MSTORE SWAP3 ISZERO ISZERO PUSH1 0x80 DUP6 ADD MSTORE PUSH1 0xA0 DUP5 ADD SWAP2 SWAP1 SWAP2 MSTORE PUSH1 0xC0 DUP4 ADD MSTORE PUSH1 0xE0 SWAP1 SWAP2 ADD MSTORE SWAP3 SWAP2 POP POP JUMP JUMPDEST PUSH1 0x0 DUP1 PUSH1 0x40 DUP4 DUP6 SUB SLT ISZERO PUSH2 0x1820 JUMPI PUSH1 0x0 DUP1 REVERT JUMPDEST DUP3 CALLDATALOAD SWAP2 POP PUSH1 0x20 DUP4 ADD CALLDATALOAD DUP1 ISZERO ISZERO DUP2 EQ PUSH2 0x1837 JUMPI PUSH1 0x0 DUP1 REVERT JUMPDEST DUP1 SWAP2 POP POP SWAP3 POP SWAP3 SWAP1 POP JUMP JUMPDEST PUSH1 0x1 DUP2 DUP2 SHR SWAP1 DUP3 AND DUP1 PUSH2 0x1856 JUMPI PUSH1 0x7F DUP3 AND SWAP2 POP JUMPDEST PUSH1 0x20 DUP3 LT DUP2 SUB PUSH2 0x1876 JUMPI PUSH4 0x4E487B71 PUSH1 0xE0 SHL PUSH1 0x0 MSTORE PUSH1 0x22 PUSH1 0x4 MSTORE PUSH1 0x24 PUSH1 0x0 REVERT JUMPDEST POP SWAP2 SWAP1 POP JUMP JUMPDEST PUSH1 0x20 DUP1 DUP3 MSTORE PUSH1 0x14 SWAP1 DUP3 ADD MSTORE PUSH20 0x125B9D985B1A59081B5A5B195CDD1BDB99481251 PUSH1 0x62 SHL PUSH1 0x40 DUP3 ADD MSTORE PUSH1 0x60 ADD SWAP1 JUMP JUMPDEST PUSH4 0x4E487B71 PUSH1 0xE0 SHL PUSH1 0x0 MSTORE PUSH1 0x32 PUSH1 0x4 MSTORE PUSH1 0x24 PUSH1 0x0 REVERT JUMPDEST PUSH1 0x20 DUP1 DUP3 MSTORE PUSH1 0x22 SWAP1 DUP3 ADD MSTORE PUSH32 0x4F6E6C792061646D696E2063616E20706572666F726D20746869732061637469 PUSH1 0x40 DUP3 ADD MSTORE PUSH2 0x37B7 PUSH1 0xF1 SHL PUSH1 0x60 DUP3 ADD MSTORE PUSH1 0x80 ADD SWAP1 JUMP JUMPDEST PUSH4 0x4E487B71 PUSH1 0xE0 SHL PUSH1 0x0 MSTORE PUSH1 0x11 PUSH1 0x4 MSTORE PUSH1 0x24 PUSH1 0x0 REVERT JUMPDEST PUSH1 0x0 PUSH1 0x1 DUP3 ADD PUSH2 0x192A JUMPI PUSH2 0x192A PUSH2 0x1902 JUMP JUMPDEST POP PUSH1 0x1 ADD SWAP1 JUMP JUMPDEST PUSH1 0x20 DUP1 DUP3 MSTORE PUSH1 0x26 SWAP1 DUP3 ADD MSTORE PUSH32 0x4F6E6C79206F7267616E697A65722063616E20706572666F726D207468697320 PUSH1 0x40 DUP3 ADD MSTORE PUSH6 0x30B1BA34B7B7 PUSH1 0xD1 SHL PUSH1 0x60 DUP3 ADD MSTORE PUSH1 0x80 ADD SWAP1 JUMP JUMPDEST PUSH1 0x1F DUP3 GT ISZERO PUSH2 0x19C3 JUMPI PUSH1 0x0 DUP2 PUSH1 0x0 MSTORE PUSH1 0x20 PUSH1 0x0 KECCAK256 PUSH1 0x1F DUP6 ADD PUSH1 0x5 SHR DUP2 ADD PUSH1 0x20 DUP7 LT ISZERO PUSH2 0x19A0 JUMPI POP DUP1 JUMPDEST PUSH1 0x1F DUP6 ADD PUSH1 0x5 SHR DUP3 ADD SWAP2 POP JUMPDEST DUP2 DUP2 LT ISZERO PUSH2 0x19BF JUMPI DUP3 DUP2 SSTORE PUSH1 0x1 ADD PUSH2 0x19AC JUMP JUMPDEST POP POP POP JUMPDEST POP POP POP JUMP JUMPDEST DUP2 MLOAD PUSH8 0xFFFFFFFFFFFFFFFF DUP2 GT ISZERO PUSH2 0x19E2 JUMPI PUSH2 0x19E2 PUSH2 0x1648 JUMP JUMPDEST PUSH2 0x19F6 DUP2 PUSH2 0x19F0 DUP5 SLOAD PUSH2 0x1842 JUMP JUMPDEST DUP5 PUSH2 0x1977 JUMP JUMPDEST PUSH1 0x20 DUP1 PUSH1 0x1F DUP4 GT PUSH1 0x1 DUP2 EQ PUSH2 0x1A2B JUMPI PUSH1 0x0 DUP5 ISZERO PUSH2 0x1A13 JUMPI POP DUP6 DUP4 ADD MLOAD JUMPDEST PUSH1 0x0 NOT PUSH1 0x3 DUP7 SWAP1 SHL SHR NOT AND PUSH1 0x1 DUP6 SWAP1 SHL OR DUP6 SSTORE PUSH2 0x19BF JUMP JUMPDEST PUSH1 0x0 DUP6 DUP2 MSTORE PUSH1 0x20 DUP2 KECCAK256 PUSH1 0x1F NOT DUP7 AND SWAP2 JUMPDEST DUP3 DUP2 LT ISZERO PUSH2 0x1A5A JUMPI DUP9 DUP7 ADD MLOAD DUP3 SSTORE SWAP5 DUP5 ADD SWAP5 PUSH1 0x1 SWAP1 SWAP2 ADD SWAP1 DUP5 ADD PUSH2 0x1A3B JUMP JUMPDEST POP DUP6 DUP3 LT ISZERO PUSH2 0x1A78 JUMPI DUP8 DUP6 ADD MLOAD PUSH1 0x0 NOT PUSH1 0x3 DUP9 SWAP1 SHL PUSH1 0xF8 AND SHR NOT AND DUP2 SSTORE JUMPDEST POP POP POP POP POP PUSH1 0x1 SWAP1 DUP2 SHL ADD SWAP1 SSTORE POP JUMP JUMPDEST DUP5 DUP2 MSTORE DUP4 PUSH1 0x20 DUP3 ADD MSTORE PUSH1 0x80 PUSH1 0x40 DUP3 ADD MSTORE PUSH1 0x0 PUSH2 0x1AA7 PUSH1 0x80 DUP4 ADD DUP6 PUSH2 0x148F JUMP JUMPDEST SWAP1 POP PUSH1 0x1 DUP1 PUSH1 0xA0 SHL SUB DUP4 AND PUSH1 0x60 DUP4 ADD MSTORE SWAP6 SWAP5 POP POP POP POP POP JUMP JUMPDEST DUP2 DUP2 SUB DUP2 DUP2 GT ISZERO PUSH2 0xF43 JUMPI PUSH2 0xF43 PUSH2 0x1902 JUMP JUMPDEST PUSH1 0x60 DUP2 MSTORE PUSH1 0x0 PUSH2 0x1AE6 PUSH1 0x60 DUP4 ADD DUP7 PUSH2 0x148F JUMP JUMPDEST DUP3 DUP2 SUB PUSH1 0x20 DUP5 ADD MSTORE PUSH2 0x1AF8 DUP2 DUP7 PUSH2 0x148F JUMP JUMPDEST SWAP2 POP POP DUP3 PUSH1 0x40 DUP4 ADD MSTORE SWAP5 SWAP4 POP POP POP POP JUMP JUMPDEST PUSH1 0x0 DUP2 PUSH2 0x1B18 JUMPI PUSH2 0x1B18 PUSH2 0x1902 JUMP JUMPDEST POP PUSH1 0x0 NOT ADD SWAP1 JUMP INVALID LOG2 PUSH5 0x6970667358 0x22 SLT KECCAK256 0xAB 0x4C SWAP1 GASLIMIT LOG2 0x4E BYTE 0xE9 CALLDATALOAD 0xC3 ADDRESS PUSH23 0x5C2EDBB24738AED040503E9C0B870D3F1634B1BE64736F PUSH13 0x63430008180033000000000000 "},"methodIdentifiers":{"addDonor(address,uint256)":"33999c17","addVerifier(address)":"9000b3d6","admin()":"f851a440","createMilestone(string,string,uint256)":"9612421c","createdAt()":"cf09e0d0","description()":"7284e416","donorCount()":"c407670f","fundingGoal()":"7a3a0e84","getMilestone(uint256)":"2442e1cb","getMilestoneCount()":"8f4cf247","getProof(uint256)":"11149ada","hasUserVoted(uint256,address)":"dc296ae1","hasVoted(uint256,address)":"43859632","isDonor(address)":"2bc3d7aa","isVerifier(address)":"33105218","milestoneProofs(uint256)":"10d145e0","milestones(uint256)":"e89e4ed6","organizer()":"61203265","removeVerifier(address)":"ca2dfd0a","submitProof(uint256,bytes32,bytes32,string)":"72fe1e1d","title()":"4a79d50c","verifierCount()":"fb4adf52","voteOnProof(uint256,bool)":"f716139f"}}}}}