{"contracts/TaskEscrow.sol":{"TaskEscrow":{"abi":[{"inputs":[{"internalType":"address","name":"_backend","type":"address"}],"stateMutability":"nonpayable","type":"constructor"},{"anonymous":false,"inputs":[{"indexed":true,"internalType":"bytes32","name":"taskId","type":"bytes32"},{"indexed":false,"internalType":"uint8","name":"confidence","type":"uint8"},{"indexed":false,"internalType":"bool","name":"approved","type":"bool"},{"indexed":false,"internalType":"uint256","name":"timestamp","type":"uint256"}],"name":"AIVerified","type":"event"},{"anonymous":false,"inputs":[{"indexed":true,"internalType":"bytes32","name":"taskId","type":"bytes32"},{"indexed":true,"internalType":"address","name":"worker","type":"address"},{"indexed":false,"internalType":"uint256","name":"amountINR","type":"uint256"},{"indexed":false,"internalType":"string","name":"stripeTransferId","type":"string"},{"indexed":false,"internalType":"uint256","name":"timestamp","type":"uint256"}],"name":"PaymentReleased","type":"event"},{"anonymous":false,"inputs":[{"indexed":true,"internalType":"bytes32","name":"taskId","type":"bytes32"},{"indexed":true,"internalType":"address","name":"worker","type":"address"},{"indexed":false,"internalType":"uint256","name":"timestamp","type":"uint256"}],"name":"TaskAccepted","type":"event"},{"anonymous":false,"inputs":[{"indexed":true,"internalType":"bytes32","name":"taskId","type":"bytes32"},{"indexed":true,"internalType":"address","name":"client","type":"address"},{"indexed":false,"internalType":"uint256","name":"amountINR","type":"uint256"},{"indexed":false,"internalType":"string","name":"stripePaymentIntentId","type":"string"},{"indexed":false,"internalType":"uint256","name":"timestamp","type":"uint256"}],"name":"TaskCreated","type":"event"},{"anonymous":false,"inputs":[{"indexed":true,"internalType":"bytes32","name":"taskId","type":"bytes32"},{"indexed":false,"internalType":"string","name":"reason","type":"string"},{"indexed":false,"internalType":"uint256","name":"timestamp","type":"uint256"}],"name":"TaskDisputed","type":"event"},{"anonymous":false,"inputs":[{"indexed":true,"internalType":"bytes32","name":"taskId","type":"bytes32"},{"indexed":false,"internalType":"string","name":"beforeImageHash","type":"string"},{"indexed":false,"internalType":"string","name":"afterImageHash","type":"string"},{"indexed":false,"internalType":"uint256","name":"timestamp","type":"uint256"}],"name":"WorkSubmitted","type":"event"},{"inputs":[],"name":"backend","outputs":[{"internalType":"address","name":"","type":"address"}],"stateMutability":"view","type":"function"},{"inputs":[{"internalType":"bytes32","name":"taskId","type":"bytes32"}],"name":"getTaskAudit","outputs":[{"internalType":"address","name":"client","type":"address"},{"internalType":"address","name":"worker","type":"address"},{"internalType":"uint256","name":"amountINR","type":"uint256"},{"internalType":"enum TaskEscrow.TaskStatus","name":"status","type":"uint8"},{"internalType":"uint256","name":"createdAt","type":"uint256"},{"internalType":"uint256","name":"completedAt","type":"uint256"},{"internalType":"string","name":"beforeImageHash","type":"string"},{"internalType":"string","name":"afterImageHash","type":"string"},{"internalType":"uint8","name":"aiConfidence","type":"uint8"},{"internalType":"string","name":"stripePaymentIntentId","type":"string"},{"internalType":"string","name":"stripeTransferId","type":"string"}],"stateMutability":"view","type":"function"},{"inputs":[{"internalType":"bytes32","name":"taskId","type":"bytes32"},{"internalType":"uint8","name":"confidence","type":"uint8"},{"internalType":"bool","name":"approved","type":"bool"}],"name":"recordAIVerification","outputs":[],"stateMutability":"nonpayable","type":"function"},{"inputs":[{"internalType":"bytes32","name":"taskId","type":"bytes32"},{"internalType":"string","name":"reason","type":"string"}],"name":"recordDispute","outputs":[],"stateMutability":"nonpayable","type":"function"},{"inputs":[{"internalType":"bytes32","name":"taskId","type":"bytes32"},{"internalType":"string","name":"stripeTransferId","type":"string"}],"name":"recordPaymentRelease","outputs":[],"stateMutability":"nonpayable","type":"function"},{"inputs":[{"internalType":"bytes32","name":"taskId","type":"bytes32"},{"internalType":"address","name":"worker","type":"address"}],"name":"recordTaskAcceptance","outputs":[],"stateMutability":"nonpayable","type":"function"},{"inputs":[{"internalType":"bytes32","name":"taskId","type":"bytes32"},{"internalType":"address","name":"client","type":"address"},{"internalType":"uint256","name":"amountINR","type":"uint256"},{"internalType":"string","name":"stripePaymentIntentId","type":"string"}],"name":"recordTaskCreation","outputs":[],"stateMutability":"nonpayable","type":"function"},{"inputs":[{"internalType":"bytes32","name":"taskId","type":"bytes32"},{"internalType":"string","name":"beforeHash","type":"string"},{"internalType":"string","name":"afterHash","type":"string"}],"name":"recordWorkSubmission","outputs":[],"stateMutability":"nonpayable","type":"function"},{"inputs":[{"internalType":"bytes32","name":"","type":"bytes32"}],"name":"tasks","outputs":[{"internalType":"address","name":"client","type":"address"},{"internalType":"address","name":"worker","type":"address"},{"internalType":"uint256","name":"amountINR","type":"uint256"},{"internalType":"enum TaskEscrow.TaskStatus","name":"status","type":"uint8"},{"internalType":"uint256","name":"createdAt","type":"uint256"},{"internalType":"uint256","name":"completedAt","type":"uint256"},{"internalType":"string","name":"beforeImageHash","type":"string"},{"internalType":"string","name":"afterImageHash","type":"string"},{"internalType":"uint8","name":"aiConfidence","type":"uint8"},{"internalType":"string","name":"stripePaymentIntentId","type":"string"},{"internalType":"string","name":"stripeTransferId","type":"string"}],"stateMutability":"view","type":"function"},{"inputs":[{"internalType":"bytes32","name":"taskId","type":"bytes32"},{"internalType":"string","name":"imageHash","type":"string"},{"internalType":"bool","name":"isBefore","type":"bool"}],"name":"verifyImageHash","outputs":[{"internalType":"bool","name":"","type":"bool"}],"stateMutability":"view","type":"function"}],"evm":{"bytecode":{"linkReferences":{},"object":"608060405234801561001057600080fd5b5060405161182338038061182383398101604081905261002f91610054565b600080546001600160a01b0319166001600160a01b0392909216919091179055610084565b60006020828403121561006657600080fd5b81516001600160a01b038116811461007d57600080fd5b9392505050565b611790806100936000396000f3fe608060405234801561001057600080fd5b506004361061009e5760003560e01c80635199b793116100665780635199b793146101315780636c209fe11461014457806373f7ec9614610157578063e2cd361a14610181578063e579f5001461019457600080fd5b8063099e4133146100a3578063196f6b11146100d35780632395de6b146100e857806328130c56146100fb5780633edf20b71461010e575b600080fd5b6000546100b6906001600160a01b031681565b6040516001600160a01b0390911681526020015b60405180910390f35b6100e66100e13660046111ff565b6101a7565b005b6100e66100f63660046111ff565b610292565b6100e661010936600461125b565b610377565b61012161011c36600461129f565b610453565b60405190151581526020016100ca565b6100e661013f3660046112ed565b61077c565b6100e6610152366004611371565b610858565b61016a61016536600461139d565b610932565b6040516100ca9b9a99989796959493929190611412565b6100e661018f3660046114ce565b610c8c565b61016a6101a236600461139d565b610ec9565b6000546001600160a01b031633146101da5760405162461bcd60e51b81526004016101d19061152f565b60405180910390fd5b600082815260016020526040902060038082015460ff166006811115610202576102026113b6565b148061022657506004600382015460ff166006811115610224576102246113b6565b145b6102425760405162461bcd60e51b81526004016101d190611566565b60038101805460ff1916600517905560405183907f0db804170b4d3de862e9c1964ad074d7f23f5be0a875e2e0afa3e1fdc6523eee90610285908590429061158e565b60405180910390a2505050565b6000546001600160a01b031633146102bc5760405162461bcd60e51b81526004016101d19061152f565b600082815260016020526040902060038082015460ff1660068111156102e4576102e46113b6565b146103015760405162461bcd60e51b81526004016101d190611566565b600a810161030f838261163b565b5060038101805460ff19166004179055600181015460028201546040516001600160a01b039092169185917fe8f5e7f51ff15114617544c0884da38dbbe62ac2045b0764f6ca4a81de317dc79161036a9190879042906116fb565b60405180910390a3505050565b6000546001600160a01b031633146103a15760405162461bcd60e51b81526004016101d19061152f565b60008381526001602052604090206002600382015460ff1660068111156103ca576103ca6113b6565b146103e75760405162461bcd60e51b81526004016101d190611566565b60088101805460ff851660ff19918216811790925560038084018054909216179055604080519182528315156020830152429082015284907fdbaa4cf83633e512a1dbfa2d94ca669df5c4a30fd858f004ffb0045d368e6bd6906060015b60405180910390a250505050565b600083815260016020818152604080842081516101608101835281546001600160a01b0390811682529482015490941692840192909252600282015490830152600381015483929190606083019060ff1660068111156104b5576104b56113b6565b60068111156104c6576104c66113b6565b815260200160048201548152602001600582015481526020016006820180546104ee906115b0565b80601f016020809104026020016040519081016040528092919081815260200182805461051a906115b0565b80156105675780601f1061053c57610100808354040283529160200191610567565b820191906000526020600020905b81548152906001019060200180831161054a57829003601f168201915b50505050508152602001600782018054610580906115b0565b80601f01602080910402602001604051908101604052809291908181526020018280546105ac906115b0565b80156105f95780601f106105ce576101008083540402835291602001916105f9565b820191906000526020600020905b8154815290600101906020018083116105dc57829003601f168201915b5050509183525050600882015460ff166020820152600982018054604090920191610623906115b0565b80601f016020809104026020016040519081016040528092919081815260200182805461064f906115b0565b801561069c5780601f106106715761010080835404028352916020019161069c565b820191906000526020600020905b81548152906001019060200180831161067f57829003601f168201915b50505050508152602001600a820180546106b5906115b0565b80601f01602080910402602001604051908101604052809291908181526020018280546106e1906115b0565b801561072e5780601f106107035761010080835404028352916020019161072e565b820191906000526020600020905b81548152906001019060200180831161071157829003601f168201915b5050505050815250509050821561075c5783805190602001208160c001518051906020012014915050610775565b83805190602001208160e0015180519060200120149150505b9392505050565b6000546001600160a01b031633146107a65760405162461bcd60e51b81526004016101d19061152f565b600083815260016020819052604090912090600382015460ff1660068111156107d1576107d16113b6565b146107ee5760405162461bcd60e51b81526004016101d190611566565b600681016107fc848261163b565b506007810161080b838261163b565b5060038101805460ff19166002179055426005820181905560405185917f4db32d8d58d996890a29e3362634ffd96ac3d97d4915c10792e12d996f73b43691610445918791879190611724565b6000546001600160a01b031633146108825760405162461bcd60e51b81526004016101d19061152f565b600082815260016020526040812090600382015460ff1660068111156108aa576108aa6113b6565b146108c75760405162461bcd60e51b81526004016101d190611566565b600181810180546001600160a01b0319166001600160a01b03851617905560038201805460ff191682800217905550816001600160a01b0316837fed7e6bb0cb3a4715e3c1c650523e007826c988e8eab94a9725f3288258eb77f04260405161036a91815260200190565b600081815260016020818152604080842081516101608101835281546001600160a01b03908116825294820154909416928401929092526002820154908301526003810154839283928392839283926060928392859284928392859290918285019060ff1660068111156109a8576109a86113b6565b60068111156109b9576109b96113b6565b815260200160048201548152602001600582015481526020016006820180546109e1906115b0565b80601f0160208091040260200160405190810160405280929190818152602001828054610a0d906115b0565b8015610a5a5780601f10610a2f57610100808354040283529160200191610a5a565b820191906000526020600020905b815481529060010190602001808311610a3d57829003601f168201915b50505050508152602001600782018054610a73906115b0565b80601f0160208091040260200160405190810160405280929190818152602001828054610a9f906115b0565b8015610aec5780601f10610ac157610100808354040283529160200191610aec565b820191906000526020600020905b815481529060010190602001808311610acf57829003601f168201915b5050509183525050600882015460ff166020820152600982018054604090920191610b16906115b0565b80601f0160208091040260200160405190810160405280929190818152602001828054610b42906115b0565b8015610b8f5780601f10610b6457610100808354040283529160200191610b8f565b820191906000526020600020905b815481529060010190602001808311610b7257829003601f168201915b50505050508152602001600a82018054610ba8906115b0565b80601f0160208091040260200160405190810160405280929190818152602001828054610bd4906115b0565b8015610c215780601f10610bf657610100808354040283529160200191610c21565b820191906000526020600020905b815481529060010190602001808311610c0457829003601f168201915b5050505050815250509050806000015181602001518260400151836060015184608001518560a001518660c001518760e001518861010001518961012001518a61014001519b509b509b509b509b509b509b509b509b509b509b505091939597999b90929496989a50565b6000546001600160a01b03163314610cb65760405162461bcd60e51b81526004016101d19061152f565b6000848152600160205260409020546001600160a01b031615610d115760405162461bcd60e51b81526020600482015260136024820152725461736b20616c72656164792065786973747360681b60448201526064016101d1565b60408051610160810182526001600160a01b038581168252600060208084018281528486018881526060860184815242608088015260a087018590528751808501895285815260c08801528751808501895285815260e088015261010087018590526101208701899052875180850189528581526101408801528b855260019384905296909320855181549086166001600160a01b03199182161782559151818401805491909616921691909117909355905160028301559251600382018054939492939192909160ff191690836006811115610df057610df06113b6565b02179055506080820151600482015560a0820151600582015560c08201516006820190610e1d908261163b565b5060e08201516007820190610e32908261163b565b5061010082015160088201805460ff191660ff9092169190911790556101208201516009820190610e63908261163b565b50610140820151600a820190610e79908261163b565b50905050826001600160a01b0316847f0d49a9e8a372991adfbcf9d9c653a4d9eda092c71fe7b501597b50eb49324713848442604051610ebb939291906116fb565b60405180910390a350505050565b600160208190526000918252604090912080549181015460028201546003830154600484015460058501546006860180546001600160a01b039889169890961696949560ff909416949293919291610f20906115b0565b80601f0160208091040260200160405190810160405280929190818152602001828054610f4c906115b0565b8015610f995780601f10610f6e57610100808354040283529160200191610f99565b820191906000526020600020905b815481529060010190602001808311610f7c57829003601f168201915b505050505090806007018054610fae906115b0565b80601f0160208091040260200160405190810160405280929190818152602001828054610fda906115b0565b80156110275780601f10610ffc57610100808354040283529160200191611027565b820191906000526020600020905b81548152906001019060200180831161100a57829003601f168201915b5050506008840154600985018054949560ff90921694919350915061104b906115b0565b80601f0160208091040260200160405190810160405280929190818152602001828054611077906115b0565b80156110c45780601f10611099576101008083540402835291602001916110c4565b820191906000526020600020905b8154815290600101906020018083116110a757829003601f168201915b50505050509080600a0180546110d9906115b0565b80601f0160208091040260200160405190810160405280929190818152602001828054611105906115b0565b80156111525780601f1061112757610100808354040283529160200191611152565b820191906000526020600020905b81548152906001019060200180831161113557829003601f168201915b505050505090508b565b634e487b7160e01b600052604160045260246000fd5b600082601f83011261118357600080fd5b813567ffffffffffffffff8082111561119e5761119e61115c565b604051601f8301601f19908116603f011681019082821181831017156111c6576111c661115c565b816040528381528660208588010111156111df57600080fd5b836020870160208301376000602085830101528094505050505092915050565b6000806040838503121561121257600080fd5b82359150602083013567ffffffffffffffff81111561123057600080fd5b61123c85828601611172565b9150509250929050565b8035801515811461125657600080fd5b919050565b60008060006060848603121561127057600080fd5b83359250602084013560ff8116811461128857600080fd5b915061129660408501611246565b90509250925092565b6000806000606084860312156112b457600080fd5b83359250602084013567ffffffffffffffff8111156112d257600080fd5b6112de86828701611172565b92505061129660408501611246565b60008060006060848603121561130257600080fd5b83359250602084013567ffffffffffffffff8082111561132157600080fd5b61132d87838801611172565b9350604086013591508082111561134357600080fd5b5061135086828701611172565b9150509250925092565b80356001600160a01b038116811461125657600080fd5b6000806040838503121561138457600080fd5b823591506113946020840161135a565b90509250929050565b6000602082840312156113af57600080fd5b5035919050565b634e487b7160e01b600052602160045260246000fd5b6000815180845260005b818110156113f2576020818501810151868301820152016113d6565b506000602082860101526020601f19601f83011685010191505092915050565b6001600160a01b038c811682528b166020820152604081018a9052600061016060078b1061145057634e487b7160e01b600052602160045260246000fd5b8a60608401528960808401528860a08401528060c0840152611474818401896113cc565b905082810360e084015261148881886113cc565b60ff871661010085015290508281036101208401526114a781866113cc565b90508281036101408401526114bc81856113cc565b9e9d5050505050505050505050505050565b600080600080608085870312156114e457600080fd5b843593506114f46020860161135a565b925060408501359150606085013567ffffffffffffffff81111561151757600080fd5b61152387828801611172565b91505092959194509250565b60208082526017908201527f4f6e6c79206261636b656e642063616e207265636f7264000000000000000000604082015260600190565b6020808252600e908201526d496e76616c69642073746174757360901b604082015260600190565b6040815260006115a160408301856113cc565b90508260208301529392505050565b600181811c908216806115c457607f821691505b6020821081036115e457634e487b7160e01b600052602260045260246000fd5b50919050565b601f821115611636576000816000526020600020601f850160051c810160208610156116135750805b601f850160051c820191505b818110156116325782815560010161161f565b5050505b505050565b815167ffffffffffffffff8111156116555761165561115c565b6116698161166384546115b0565b846115ea565b602080601f83116001811461169e57600084156116865750858301515b600019600386901b1c1916600185901b178555611632565b600085815260208120601f198616915b828110156116cd578886015182559484019460019091019084016116ae565b50858210156116eb5787850151600019600388901b60f8161c191681555b5050505050600190811b01905550565b83815260606020820152600061171460608301856113cc565b9050826040830152949350505050565b60608152600061173760608301866113cc565b828103602084015261174981866113cc565b91505082604083015294935050505056fea2646970667358221220de2d3a7350115c7d7040a14bb822e2edf668765edc11e4fc5ac56daeea8e5e9164736f6c63430008180033","opcodes":"PUSH1 0x80 PUSH1 0x40 MSTORE CALLVALUE DUP1 ISZERO PUSH2 0x10 JUMPI PUSH1 0x0 DUP1 REVERT JUMPDEST POP PUSH1 0x40 MLOAD PUSH2 0x1823 CODESIZE SUB DUP1 PUSH2 0x1823 DUP4 CODECOPY DUP2 ADD PUSH1 0x40 DUP2 SWAP1 MSTORE PUSH2 0x2F SWAP2 PUSH2 0x54 JUMP JUMPDEST PUSH1 0x0 DUP1 SLOAD PUSH1 0x1 PUSH1 0x1 PUSH1 0xA0 SHL SUB NOT AND PUSH1 0x1 PUSH1 0x1 PUSH1 0xA0 SHL SUB SWAP3 SWAP1 SWAP3 AND SWAP2 SWAP1 SWAP2 OR SWAP1 SSTORE PUSH2 0x84 JUMP JUMPDEST PUSH1 0x0 PUSH1 0x20 DUP3 DUP5 SUB SLT ISZERO PUSH2 0x66 JUMPI PUSH1 0x0 DUP1 REVERT JUMPDEST DUP2 MLOAD PUSH1 0x1 PUSH1 0x1 PUSH1 0xA0 SHL SUB DUP2 AND DUP2 EQ PUSH2 0x7D JUMPI PUSH1 0x0 DUP1 REVERT JUMPDEST SWAP4 SWAP3 POP POP POP JUMP JUMPDEST PUSH2 0x1790 DUP1 PUSH2 0x93 PUSH1 0x0 CODECOPY PUSH1 0x0 RETURN INVALID PUSH1 0x80 PUSH1 0x40 MSTORE CALLVALUE DUP1 ISZERO PUSH2 0x10 JUMPI PUSH1 0x0 DUP1 REVERT JUMPDEST POP PUSH1 0x4 CALLDATASIZE LT PUSH2 0x9E JUMPI PUSH1 0x0 CALLDATALOAD PUSH1 0xE0 SHR DUP1 PUSH4 0x5199B793 GT PUSH2 0x66 JUMPI DUP1 PUSH4 0x5199B793 EQ PUSH2 0x131 JUMPI DUP1 PUSH4 0x6C209FE1 EQ PUSH2 0x144 JUMPI DUP1 PUSH4 0x73F7EC96 EQ PUSH2 0x157 JUMPI DUP1 PUSH4 0xE2CD361A EQ PUSH2 0x181 JUMPI DUP1 PUSH4 0xE579F500 EQ PUSH2 0x194 JUMPI PUSH1 0x0 DUP1 REVERT JUMPDEST DUP1 PUSH4 0x99E4133 EQ PUSH2 0xA3 JUMPI DUP1 PUSH4 0x196F6B11 EQ PUSH2 0xD3 JUMPI DUP1 PUSH4 0x2395DE6B EQ PUSH2 0xE8 JUMPI DUP1 PUSH4 0x28130C56 EQ PUSH2 0xFB JUMPI DUP1 PUSH4 0x3EDF20B7 EQ PUSH2 0x10E JUMPI JUMPDEST PUSH1 0x0 DUP1 REVERT JUMPDEST PUSH1 0x0 SLOAD PUSH2 0xB6 SWAP1 PUSH1 0x1 PUSH1 0x1 PUSH1 0xA0 SHL SUB AND DUP2 JUMP JUMPDEST PUSH1 0x40 MLOAD PUSH1 0x1 PUSH1 0x1 PUSH1 0xA0 SHL SUB SWAP1 SWAP2 AND DUP2 MSTORE PUSH1 0x20 ADD JUMPDEST PUSH1 0x40 MLOAD DUP1 SWAP2 SUB SWAP1 RETURN JUMPDEST PUSH2 0xE6 PUSH2 0xE1 CALLDATASIZE PUSH1 0x4 PUSH2 0x11FF JUMP JUMPDEST PUSH2 0x1A7 JUMP JUMPDEST STOP JUMPDEST PUSH2 0xE6 PUSH2 0xF6 CALLDATASIZE PUSH1 0x4 PUSH2 0x11FF JUMP JUMPDEST PUSH2 0x292 JUMP JUMPDEST PUSH2 0xE6 PUSH2 0x109 CALLDATASIZE PUSH1 0x4 PUSH2 0x125B JUMP JUMPDEST PUSH2 0x377 JUMP JUMPDEST PUSH2 0x121 PUSH2 0x11C CALLDATASIZE PUSH1 0x4 PUSH2 0x129F JUMP JUMPDEST PUSH2 0x453 JUMP JUMPDEST PUSH1 0x40 MLOAD SWAP1 ISZERO ISZERO DUP2 MSTORE PUSH1 0x20 ADD PUSH2 0xCA JUMP JUMPDEST PUSH2 0xE6 PUSH2 0x13F CALLDATASIZE PUSH1 0x4 PUSH2 0x12ED JUMP JUMPDEST PUSH2 0x77C JUMP JUMPDEST PUSH2 0xE6 PUSH2 0x152 CALLDATASIZE PUSH1 0x4 PUSH2 0x1371 JUMP JUMPDEST PUSH2 0x858 JUMP JUMPDEST PUSH2 0x16A PUSH2 0x165 CALLDATASIZE PUSH1 0x4 PUSH2 0x139D JUMP JUMPDEST PUSH2 0x932 JUMP JUMPDEST PUSH1 0x40 MLOAD PUSH2 0xCA SWAP12 SWAP11 SWAP10 SWAP9 SWAP8 SWAP7 SWAP6 SWAP5 SWAP4 SWAP3 SWAP2 SWAP1 PUSH2 0x1412 JUMP JUMPDEST PUSH2 0xE6 PUSH2 0x18F CALLDATASIZE PUSH1 0x4 PUSH2 0x14CE JUMP JUMPDEST PUSH2 0xC8C JUMP JUMPDEST PUSH2 0x16A PUSH2 0x1A2 CALLDATASIZE PUSH1 0x4 PUSH2 0x139D JUMP JUMPDEST PUSH2 0xEC9 JUMP JUMPDEST PUSH1 0x0 SLOAD PUSH1 0x1 PUSH1 0x1 PUSH1 0xA0 SHL SUB AND CALLER EQ PUSH2 0x1DA JUMPI PUSH1 0x40 MLOAD PUSH3 0x461BCD PUSH1 0xE5 SHL DUP2 MSTORE PUSH1 0x4 ADD PUSH2 0x1D1 SWAP1 PUSH2 0x152F JUMP JUMPDEST PUSH1 0x40 MLOAD DUP1 SWAP2 SUB SWAP1 REVERT JUMPDEST PUSH1 0x0 DUP3 DUP2 MSTORE PUSH1 0x1 PUSH1 0x20 MSTORE PUSH1 0x40 SWAP1 KECCAK256 PUSH1 0x3 DUP1 DUP3 ADD SLOAD PUSH1 0xFF AND PUSH1 0x6 DUP2 GT ISZERO PUSH2 0x202 JUMPI PUSH2 0x202 PUSH2 0x13B6 JUMP JUMPDEST EQ DUP1 PUSH2 0x226 JUMPI POP PUSH1 0x4 PUSH1 0x3 DUP3 ADD SLOAD PUSH1 0xFF AND PUSH1 0x6 DUP2 GT ISZERO PUSH2 0x224 JUMPI PUSH2 0x224 PUSH2 0x13B6 JUMP JUMPDEST EQ JUMPDEST PUSH2 0x242 JUMPI PUSH1 0x40 MLOAD PUSH3 0x461BCD PUSH1 0xE5 SHL DUP2 MSTORE PUSH1 0x4 ADD PUSH2 0x1D1 SWAP1 PUSH2 0x1566 JUMP JUMPDEST PUSH1 0x3 DUP2 ADD DUP1 SLOAD PUSH1 0xFF NOT AND PUSH1 0x5 OR SWAP1 SSTORE PUSH1 0x40 MLOAD DUP4 SWAP1 PUSH32 0xDB804170B4D3DE862E9C1964AD074D7F23F5BE0A875E2E0AFA3E1FDC6523EEE SWAP1 PUSH2 0x285 SWAP1 DUP6 SWAP1 TIMESTAMP SWAP1 PUSH2 0x158E JUMP JUMPDEST PUSH1 0x40 MLOAD DUP1 SWAP2 SUB SWAP1 LOG2 POP POP POP JUMP JUMPDEST PUSH1 0x0 SLOAD PUSH1 0x1 PUSH1 0x1 PUSH1 0xA0 SHL SUB AND CALLER EQ PUSH2 0x2BC JUMPI PUSH1 0x40 MLOAD PUSH3 0x461BCD PUSH1 0xE5 SHL DUP2 MSTORE PUSH1 0x4 ADD PUSH2 0x1D1 SWAP1 PUSH2 0x152F JUMP JUMPDEST PUSH1 0x0 DUP3 DUP2 MSTORE PUSH1 0x1 PUSH1 0x20 MSTORE PUSH1 0x40 SWAP1 KECCAK256 PUSH1 0x3 DUP1 DUP3 ADD SLOAD PUSH1 0xFF AND PUSH1 0x6 DUP2 GT ISZERO PUSH2 0x2E4 JUMPI PUSH2 0x2E4 PUSH2 0x13B6 JUMP JUMPDEST EQ PUSH2 0x301 JUMPI PUSH1 0x40 MLOAD PUSH3 0x461BCD PUSH1 0xE5 SHL DUP2 MSTORE PUSH1 0x4 ADD PUSH2 0x1D1 SWAP1 PUSH2 0x1566 JUMP JUMPDEST PUSH1 0xA DUP2 ADD PUSH2 0x30F DUP4 DUP3 PUSH2 0x163B JUMP JUMPDEST POP PUSH1 0x3 DUP2 ADD DUP1 SLOAD PUSH1 0xFF NOT AND PUSH1 0x4 OR SWAP1 SSTORE PUSH1 0x1 DUP2 ADD SLOAD PUSH1 0x2 DUP3 ADD SLOAD PUSH1 0x40 MLOAD PUSH1 0x1 PUSH1 0x1 PUSH1 0xA0 SHL SUB SWAP1 SWAP3 AND SWAP2 DUP6 SWAP2 PUSH32 0xE8F5E7F51FF15114617544C0884DA38DBBE62AC2045B0764F6CA4A81DE317DC7 SWAP2 PUSH2 0x36A SWAP2 SWAP1 DUP8 SWAP1 TIMESTAMP SWAP1 PUSH2 0x16FB JUMP JUMPDEST PUSH1 0x40 MLOAD DUP1 SWAP2 SUB SWAP1 LOG3 POP POP POP JUMP JUMPDEST PUSH1 0x0 SLOAD PUSH1 0x1 PUSH1 0x1 PUSH1 0xA0 SHL SUB AND CALLER EQ PUSH2 0x3A1 JUMPI PUSH1 0x40 MLOAD PUSH3 0x461BCD PUSH1 0xE5 SHL DUP2 MSTORE PUSH1 0x4 ADD PUSH2 0x1D1 SWAP1 PUSH2 0x152F JUMP JUMPDEST PUSH1 0x0 DUP4 DUP2 MSTORE PUSH1 0x1 PUSH1 0x20 MSTORE PUSH1 0x40 SWAP1 KECCAK256 PUSH1 0x2 PUSH1 0x3 DUP3 ADD SLOAD PUSH1 0xFF AND PUSH1 0x6 DUP2 GT ISZERO PUSH2 0x3CA JUMPI PUSH2 0x3CA PUSH2 0x13B6 JUMP JUMPDEST EQ PUSH2 0x3E7 JUMPI PUSH1 0x40 MLOAD PUSH3 0x461BCD PUSH1 0xE5 SHL DUP2 MSTORE PUSH1 0x4 ADD PUSH2 0x1D1 SWAP1 PUSH2 0x1566 JUMP JUMPDEST PUSH1 0x8 DUP2 ADD DUP1 SLOAD PUSH1 0xFF DUP6 AND PUSH1 0xFF NOT SWAP2 DUP3 AND DUP2 OR SWAP1 SWAP3 SSTORE PUSH1 0x3 DUP1 DUP5 ADD DUP1 SLOAD SWAP1 SWAP3 AND OR SWAP1 SSTORE PUSH1 0x40 DUP1 MLOAD SWAP2 DUP3 MSTORE DUP4 ISZERO ISZERO PUSH1 0x20 DUP4 ADD MSTORE TIMESTAMP SWAP1 DUP3 ADD MSTORE DUP5 SWAP1 PUSH32 0xDBAA4CF83633E512A1DBFA2D94CA669DF5C4A30FD858F004FFB0045D368E6BD6 SWAP1 PUSH1 0x60 ADD JUMPDEST PUSH1 0x40 MLOAD DUP1 SWAP2 SUB SWAP1 LOG2 POP POP POP POP JUMP JUMPDEST PUSH1 0x0 DUP4 DUP2 MSTORE PUSH1 0x1 PUSH1 0x20 DUP2 DUP2 MSTORE PUSH1 0x40 DUP1 DUP5 KECCAK256 DUP2 MLOAD PUSH2 0x160 DUP2 ADD DUP4 MSTORE DUP2 SLOAD PUSH1 0x1 PUSH1 0x1 PUSH1 0xA0 SHL SUB SWAP1 DUP2 AND DUP3 MSTORE SWAP5 DUP3 ADD SLOAD SWAP1 SWAP5 AND SWAP3 DUP5 ADD SWAP3 SWAP1 SWAP3 MSTORE PUSH1 0x2 DUP3 ADD SLOAD SWAP1 DUP4 ADD MSTORE PUSH1 0x3 DUP2 ADD SLOAD DUP4 SWAP3 SWAP2 SWAP1 PUSH1 0x60 DUP4 ADD SWAP1 PUSH1 0xFF AND PUSH1 0x6 DUP2 GT ISZERO PUSH2 0x4B5 JUMPI PUSH2 0x4B5 PUSH2 0x13B6 JUMP JUMPDEST PUSH1 0x6 DUP2 GT ISZERO PUSH2 0x4C6 JUMPI PUSH2 0x4C6 PUSH2 0x13B6 JUMP JUMPDEST DUP2 MSTORE PUSH1 0x20 ADD PUSH1 0x4 DUP3 ADD SLOAD DUP2 MSTORE PUSH1 0x20 ADD PUSH1 0x5 DUP3 ADD SLOAD DUP2 MSTORE PUSH1 0x20 ADD PUSH1 0x6 DUP3 ADD DUP1 SLOAD PUSH2 0x4EE SWAP1 PUSH2 0x15B0 JUMP JUMPDEST DUP1 PUSH1 0x1F ADD PUSH1 0x20 DUP1 SWAP2 DIV MUL PUSH1 0x20 ADD PUSH1 0x40 MLOAD SWAP1 DUP2 ADD PUSH1 0x40 MSTORE DUP1 SWAP3 SWAP2 SWAP1 DUP2 DUP2 MSTORE PUSH1 0x20 ADD DUP3 DUP1 SLOAD PUSH2 0x51A SWAP1 PUSH2 0x15B0 JUMP JUMPDEST DUP1 ISZERO PUSH2 0x567 JUMPI DUP1 PUSH1 0x1F LT PUSH2 0x53C JUMPI PUSH2 0x100 DUP1 DUP4 SLOAD DIV MUL DUP4 MSTORE SWAP2 PUSH1 0x20 ADD SWAP2 PUSH2 0x567 JUMP JUMPDEST DUP3 ADD SWAP2 SWAP1 PUSH1 0x0 MSTORE PUSH1 0x20 PUSH1 0x0 KECCAK256 SWAP1 JUMPDEST DUP2 SLOAD DUP2 MSTORE SWAP1 PUSH1 0x1 ADD SWAP1 PUSH1 0x20 ADD DUP1 DUP4 GT PUSH2 0x54A JUMPI DUP3 SWAP1 SUB PUSH1 0x1F AND DUP3 ADD SWAP2 JUMPDEST POP POP POP POP POP DUP2 MSTORE PUSH1 0x20 ADD PUSH1 0x7 DUP3 ADD DUP1 SLOAD PUSH2 0x580 SWAP1 PUSH2 0x15B0 JUMP JUMPDEST DUP1 PUSH1 0x1F ADD PUSH1 0x20 DUP1 SWAP2 DIV MUL PUSH1 0x20 ADD PUSH1 0x40 MLOAD SWAP1 DUP2 ADD PUSH1 0x40 MSTORE DUP1 SWAP3 SWAP2 SWAP1 DUP2 DUP2 MSTORE PUSH1 0x20 ADD DUP3 DUP1 SLOAD PUSH2 0x5AC SWAP1 PUSH2 0x15B0 JUMP JUMPDEST DUP1 ISZERO PUSH2 0x5F9 JUMPI DUP1 PUSH1 0x1F LT PUSH2 0x5CE JUMPI PUSH2 0x100 DUP1 DUP4 SLOAD DIV MUL DUP4 MSTORE SWAP2 PUSH1 0x20 ADD SWAP2 PUSH2 0x5F9 JUMP JUMPDEST DUP3 ADD SWAP2 SWAP1 PUSH1 0x0 MSTORE PUSH1 0x20 PUSH1 0x0 KECCAK256 SWAP1 JUMPDEST DUP2 SLOAD DUP2 MSTORE SWAP1 PUSH1 0x1 ADD SWAP1 PUSH1 0x20 ADD DUP1 DUP4 GT PUSH2 0x5DC JUMPI DUP3 SWAP1 SUB PUSH1 0x1F AND DUP3 ADD SWAP2 JUMPDEST POP POP POP SWAP2 DUP4 MSTORE POP POP PUSH1 0x8 DUP3 ADD SLOAD PUSH1 0xFF AND PUSH1 0x20 DUP3 ADD MSTORE PUSH1 0x9 DUP3 ADD DUP1 SLOAD PUSH1 0x40 SWAP1 SWAP3 ADD SWAP2 PUSH2 0x623 SWAP1 PUSH2 0x15B0 JUMP JUMPDEST DUP1 PUSH1 0x1F ADD PUSH1 0x20 DUP1 SWAP2 DIV MUL PUSH1 0x20 ADD PUSH1 0x40 MLOAD SWAP1 DUP2 ADD PUSH1 0x40 MSTORE DUP1 SWAP3 SWAP2 SWAP1 DUP2 DUP2 MSTORE PUSH1 0x20 ADD DUP3 DUP1 SLOAD PUSH2 0x64F SWAP1 PUSH2 0x15B0 JUMP JUMPDEST DUP1 ISZERO PUSH2 0x69C JUMPI DUP1 PUSH1 0x1F LT PUSH2 0x671 JUMPI PUSH2 0x100 DUP1 DUP4 SLOAD DIV MUL DUP4 MSTORE SWAP2 PUSH1 0x20 ADD SWAP2 PUSH2 0x69C JUMP JUMPDEST DUP3 ADD SWAP2 SWAP1 PUSH1 0x0 MSTORE PUSH1 0x20 PUSH1 0x0 KECCAK256 SWAP1 JUMPDEST DUP2 SLOAD DUP2 MSTORE SWAP1 PUSH1 0x1 ADD SWAP1 PUSH1 0x20 ADD DUP1 DUP4 GT PUSH2 0x67F JUMPI DUP3 SWAP1 SUB PUSH1 0x1F AND DUP3 ADD SWAP2 JUMPDEST POP POP POP POP POP DUP2 MSTORE PUSH1 0x20 ADD PUSH1 0xA DUP3 ADD DUP1 SLOAD PUSH2 0x6B5 SWAP1 PUSH2 0x15B0 JUMP JUMPDEST DUP1 PUSH1 0x1F ADD PUSH1 0x20 DUP1 SWAP2 DIV MUL PUSH1 0x20 ADD PUSH1 0x40 MLOAD SWAP1 DUP2 ADD PUSH1 0x40 MSTORE DUP1 SWAP3 SWAP2 SWAP1 DUP2 DUP2 MSTORE PUSH1 0x20 ADD DUP3 DUP1 SLOAD PUSH2 0x6E1 SWAP1 PUSH2 0x15B0 JUMP JUMPDEST DUP1 ISZERO PUSH2 0x72E JUMPI DUP1 PUSH1 0x1F LT PUSH2 0x703 JUMPI PUSH2 0x100 DUP1 DUP4 SLOAD DIV MUL DUP4 MSTORE SWAP2 PUSH1 0x20 ADD SWAP2 PUSH2 0x72E JUMP JUMPDEST DUP3 ADD SWAP2 SWAP1 PUSH1 0x0 MSTORE PUSH1 0x20 PUSH1 0x0 KECCAK256 SWAP1 JUMPDEST DUP2 SLOAD DUP2 MSTORE SWAP1 PUSH1 0x1 ADD SWAP1 PUSH1 0x20 ADD DUP1 DUP4 GT PUSH2 0x711 JUMPI DUP3 SWAP1 SUB PUSH1 0x1F AND DUP3 ADD SWAP2 JUMPDEST POP POP POP POP POP DUP2 MSTORE POP POP SWAP1 POP DUP3 ISZERO PUSH2 0x75C JUMPI DUP4 DUP1 MLOAD SWAP1 PUSH1 0x20 ADD KECCAK256 DUP2 PUSH1 0xC0 ADD MLOAD DUP1 MLOAD SWAP1 PUSH1 0x20 ADD KECCAK256 EQ SWAP2 POP POP PUSH2 0x775 JUMP JUMPDEST DUP4 DUP1 MLOAD SWAP1 PUSH1 0x20 ADD KECCAK256 DUP2 PUSH1 0xE0 ADD MLOAD DUP1 MLOAD SWAP1 PUSH1 0x20 ADD KECCAK256 EQ SWAP2 POP POP JUMPDEST SWAP4 SWAP3 POP POP POP JUMP JUMPDEST PUSH1 0x0 SLOAD PUSH1 0x1 PUSH1 0x1 PUSH1 0xA0 SHL SUB AND CALLER EQ PUSH2 0x7A6 JUMPI PUSH1 0x40 MLOAD PUSH3 0x461BCD PUSH1 0xE5 SHL DUP2 MSTORE PUSH1 0x4 ADD PUSH2 0x1D1 SWAP1 PUSH2 0x152F JUMP JUMPDEST PUSH1 0x0 DUP4 DUP2 MSTORE PUSH1 0x1 PUSH1 0x20 DUP2 SWAP1 MSTORE PUSH1 0x40 SWAP1 SWAP2 KECCAK256 SWAP1 PUSH1 0x3 DUP3 ADD SLOAD PUSH1 0xFF AND PUSH1 0x6 DUP2 GT ISZERO PUSH2 0x7D1 JUMPI PUSH2 0x7D1 PUSH2 0x13B6 JUMP JUMPDEST EQ PUSH2 0x7EE JUMPI PUSH1 0x40 MLOAD PUSH3 0x461BCD PUSH1 0xE5 SHL DUP2 MSTORE PUSH1 0x4 ADD PUSH2 0x1D1 SWAP1 PUSH2 0x1566 JUMP JUMPDEST PUSH1 0x6 DUP2 ADD PUSH2 0x7FC DUP5 DUP3 PUSH2 0x163B JUMP JUMPDEST POP PUSH1 0x7 DUP2 ADD PUSH2 0x80B DUP4 DUP3 PUSH2 0x163B JUMP JUMPDEST POP PUSH1 0x3 DUP2 ADD DUP1 SLOAD PUSH1 0xFF NOT AND PUSH1 0x2 OR SWAP1 SSTORE TIMESTAMP PUSH1 0x5 DUP3 ADD DUP2 SWAP1 SSTORE PUSH1 0x40 MLOAD DUP6 SWAP2 PUSH32 0x4DB32D8D58D996890A29E3362634FFD96AC3D97D4915C10792E12D996F73B436 SWAP2 PUSH2 0x445 SWAP2 DUP8 SWAP2 DUP8 SWAP2 SWAP1 PUSH2 0x1724 JUMP JUMPDEST PUSH1 0x0 SLOAD PUSH1 0x1 PUSH1 0x1 PUSH1 0xA0 SHL SUB AND CALLER EQ PUSH2 0x882 JUMPI PUSH1 0x40 MLOAD PUSH3 0x461BCD PUSH1 0xE5 SHL DUP2 MSTORE PUSH1 0x4 ADD PUSH2 0x1D1 SWAP1 PUSH2 0x152F JUMP JUMPDEST PUSH1 0x0 DUP3 DUP2 MSTORE PUSH1 0x1 PUSH1 0x20 MSTORE PUSH1 0x40 DUP2 KECCAK256 SWAP1 PUSH1 0x3 DUP3 ADD SLOAD PUSH1 0xFF AND PUSH1 0x6 DUP2 GT ISZERO PUSH2 0x8AA JUMPI PUSH2 0x8AA PUSH2 0x13B6 JUMP JUMPDEST EQ PUSH2 0x8C7 JUMPI PUSH1 0x40 MLOAD PUSH3 0x461BCD PUSH1 0xE5 SHL DUP2 MSTORE PUSH1 0x4 ADD PUSH2 0x1D1 SWAP1 PUSH2 0x1566 JUMP JUMPDEST PUSH1 0x1 DUP2 DUP2 ADD DUP1 SLOAD PUSH1 0x1 PUSH1 0x1 PUSH1 0xA0 SHL SUB NOT AND PUSH1 0x1 PUSH1 0x1 PUSH1 0xA0 SHL SUB DUP6 AND OR SWAP1 SSTORE PUSH1 0x3 DUP3 ADD DUP1 SLOAD PUSH1 0xFF NOT AND DUP3 DUP1 MUL OR SWAP1 SSTORE POP DUP2 PUSH1 0x1 PUSH1 0x1 PUSH1 0xA0 SHL SUB AND DUP4 PUSH32 0xED7E6BB0CB3A4715E3C1C650523E007826C988E8EAB94A9725F3288258EB77F0 TIMESTAMP PUSH1 0x40 MLOAD PUSH2 0x36A SWAP2 DUP2 MSTORE PUSH1 0x20 ADD SWAP1 JUMP JUMPDEST PUSH1 0x0 DUP2 DUP2 MSTORE PUSH1 0x1 PUSH1 0x20 DUP2 DUP2 MSTORE PUSH1 0x40 DUP1 DUP5 KECCAK256 DUP2 MLOAD PUSH2 0x160 DUP2 ADD DUP4 MSTORE DUP2 SLOAD PUSH1 0x1 PUSH1 0x1 PUSH1 0xA0 SHL SUB SWAP1 DUP2 AND DUP3 MSTORE SWAP5 DUP3 ADD SLOAD SWAP1 SWAP5 AND SWAP3 DUP5 ADD SWAP3 SWAP1 SWAP3 MSTORE PUSH1 0x2 DUP3 ADD SLOAD SWAP1 DUP4 ADD MSTORE PUSH1 0x3 DUP2 ADD SLOAD DUP4 SWAP3 DUP4 SWAP3 DUP4 SWAP3 DUP4 SWAP3 DUP4 SWAP3 PUSH1 0x60 SWAP3 DUP4 SWAP3 DUP6 SWAP3 DUP5 SWAP3 DUP4 SWAP3 DUP6 SWAP3 SWAP1 SWAP2 DUP3 DUP6 ADD SWAP1 PUSH1 0xFF AND PUSH1 0x6 DUP2 GT ISZERO PUSH2 0x9A8 JUMPI PUSH2 0x9A8 PUSH2 0x13B6 JUMP JUMPDEST PUSH1 0x6 DUP2 GT ISZERO PUSH2 0x9B9 JUMPI PUSH2 0x9B9 PUSH2 0x13B6 JUMP JUMPDEST DUP2 MSTORE PUSH1 0x20 ADD PUSH1 0x4 DUP3 ADD SLOAD DUP2 MSTORE PUSH1 0x20 ADD PUSH1 0x5 DUP3 ADD SLOAD DUP2 MSTORE PUSH1 0x20 ADD PUSH1 0x6 DUP3 ADD DUP1 SLOAD PUSH2 0x9E1 SWAP1 PUSH2 0x15B0 JUMP JUMPDEST DUP1 PUSH1 0x1F ADD PUSH1 0x20 DUP1 SWAP2 DIV MUL PUSH1 0x20 ADD PUSH1 0x40 MLOAD SWAP1 DUP2 ADD PUSH1 0x40 MSTORE DUP1 SWAP3 SWAP2 SWAP1 DUP2 DUP2 MSTORE PUSH1 0x20 ADD DUP3 DUP1 SLOAD PUSH2 0xA0D SWAP1 PUSH2 0x15B0 JUMP JUMPDEST DUP1 ISZERO PUSH2 0xA5A JUMPI DUP1 PUSH1 0x1F LT PUSH2 0xA2F JUMPI PUSH2 0x100 DUP1 DUP4 SLOAD DIV MUL DUP4 MSTORE SWAP2 PUSH1 0x20 ADD SWAP2 PUSH2 0xA5A JUMP JUMPDEST DUP3 ADD SWAP2 SWAP1 PUSH1 0x0 MSTORE PUSH1 0x20 PUSH1 0x0 KECCAK256 SWAP1 JUMPDEST DUP2 SLOAD DUP2 MSTORE SWAP1 PUSH1 0x1 ADD SWAP1 PUSH1 0x20 ADD DUP1 DUP4 GT PUSH2 0xA3D JUMPI DUP3 SWAP1 SUB PUSH1 0x1F AND DUP3 ADD SWAP2 JUMPDEST POP POP POP POP POP DUP2 MSTORE PUSH1 0x20 ADD PUSH1 0x7 DUP3 ADD DUP1 SLOAD PUSH2 0xA73 SWAP1 PUSH2 0x15B0 JUMP JUMPDEST DUP1 PUSH1 0x1F ADD PUSH1 0x20 DUP1 SWAP2 DIV MUL PUSH1 0x20 ADD PUSH1 0x40 MLOAD SWAP1 DUP2 ADD PUSH1 0x40 MSTORE DUP1 SWAP3 SWAP2 SWAP1 DUP2 DUP2 MSTORE PUSH1 0x20 ADD DUP3 DUP1 SLOAD PUSH2 0xA9F SWAP1 PUSH2 0x15B0 JUMP JUMPDEST DUP1 ISZERO PUSH2 0xAEC JUMPI DUP1 PUSH1 0x1F LT PUSH2 0xAC1 JUMPI PUSH2 0x100 DUP1 DUP4 SLOAD DIV MUL DUP4 MSTORE SWAP2 PUSH1 0x20 ADD SWAP2 PUSH2 0xAEC JUMP JUMPDEST DUP3 ADD SWAP2 SWAP1 PUSH1 0x0 MSTORE PUSH1 0x20 PUSH1 0x0 KECCAK256 SWAP1 JUMPDEST DUP2 SLOAD DUP2 MSTORE SWAP1 PUSH1 0x1 ADD SWAP1 PUSH1 0x20 ADD DUP1 DUP4 GT PUSH2 0xACF JUMPI DUP3 SWAP1 SUB PUSH1 0x1F AND DUP3 ADD SWAP2 JUMPDEST POP POP POP SWAP2 DUP4 MSTORE POP POP PUSH1 0x8 DUP3 ADD SLOAD PUSH1 0xFF AND PUSH1 0x20 DUP3 ADD MSTORE PUSH1 0x9 DUP3 ADD DUP1 SLOAD PUSH1 0x40 SWAP1 SWAP3 ADD SWAP2 PUSH2 0xB16 SWAP1 PUSH2 0x15B0 JUMP JUMPDEST DUP1 PUSH1 0x1F ADD PUSH1 0x20 DUP1 SWAP2 DIV MUL PUSH1 0x20 ADD PUSH1 0x40 MLOAD SWAP1 DUP2 ADD PUSH1 0x40 MSTORE DUP1 SWAP3 SWAP2 SWAP1 DUP2 DUP2 MSTORE PUSH1 0x20 ADD DUP3 DUP1 SLOAD PUSH2 0xB42 SWAP1 PUSH2 0x15B0 JUMP JUMPDEST DUP1 ISZERO PUSH2 0xB8F JUMPI DUP1 PUSH1 0x1F LT PUSH2 0xB64 JUMPI PUSH2 0x100 DUP1 DUP4 SLOAD DIV MUL DUP4 MSTORE SWAP2 PUSH1 0x20 ADD SWAP2 PUSH2 0xB8F JUMP JUMPDEST DUP3 ADD SWAP2 SWAP1 PUSH1 0x0 MSTORE PUSH1 0x20 PUSH1 0x0 KECCAK256 SWAP1 JUMPDEST DUP2 SLOAD DUP2 MSTORE SWAP1 PUSH1 0x1 ADD SWAP1 PUSH1 0x20 ADD DUP1 DUP4 GT PUSH2 0xB72 JUMPI DUP3 SWAP1 SUB PUSH1 0x1F AND DUP3 ADD SWAP2 JUMPDEST POP POP POP POP POP DUP2 MSTORE PUSH1 0x20 ADD PUSH1 0xA DUP3 ADD DUP1 SLOAD PUSH2 0xBA8 SWAP1 PUSH2 0x15B0 JUMP JUMPDEST DUP1 PUSH1 0x1F ADD PUSH1 0x20 DUP1 SWAP2 DIV MUL PUSH1 0x20 ADD PUSH1 0x40 MLOAD SWAP1 DUP2 ADD PUSH1 0x40 MSTORE DUP1 SWAP3 SWAP2 SWAP1 DUP2 DUP2 MSTORE PUSH1 0x20 ADD DUP3 DUP1 SLOAD PUSH2 0xBD4 SWAP1 PUSH2 0x15B0 JUMP JUMPDEST DUP1 ISZERO PUSH2 0xC21 JUMPI DUP1 PUSH1 0x1F LT PUSH2 0xBF6 JUMPI PUSH2 0x100 DUP1 DUP4 SLOAD DIV MUL DUP4 MSTORE SWAP2 PUSH1 0x20 ADD SWAP2 PUSH2 0xC21 JUMP JUMPDEST DUP3 ADD SWAP2 SWAP1 PUSH1 0x0 MSTORE PUSH1 0x20 PUSH1 0x0 KECCAK256 SWAP1 JUMPDEST DUP2 SLOAD DUP2 MSTORE SWAP1 PUSH1 0x1 ADD SWAP1 PUSH1 0x20 ADD DUP1 DUP4 GT PUSH2 0xC04 JUMPI DUP3 SWAP1 SUB PUSH1 0x1F AND DUP3 ADD SWAP2 JUMPDEST POP POP POP POP POP DUP2 MSTORE POP POP SWAP1 POP DUP1 PUSH1 0x0 ADD MLOAD DUP2 PUSH1 0x20 ADD MLOAD DUP3 PUSH1 0x40 ADD MLOAD DUP4 PUSH1 0x60 ADD MLOAD DUP5 PUSH1 0x80 ADD MLOAD DUP6 PUSH1 0xA0 ADD MLOAD DUP7 PUSH1 0xC0 ADD MLOAD DUP8 PUSH1 0xE0 ADD MLOAD DUP9 PUSH2 0x100 ADD MLOAD DUP10 PUSH2 0x120 ADD MLOAD DUP11 PUSH2 0x140 ADD MLOAD SWAP12 POP SWAP12 POP SWAP12 POP SWAP12 POP SWAP12 POP SWAP12 POP SWAP12 POP SWAP12 POP SWAP12 POP SWAP12 POP SWAP12 POP POP SWAP2 SWAP4 SWAP6 SWAP8 SWAP10 SWAP12 SWAP1 SWAP3 SWAP5 SWAP7 SWAP9 SWAP11 POP JUMP JUMPDEST PUSH1 0x0 SLOAD PUSH1 0x1 PUSH1 0x1 PUSH1 0xA0 SHL SUB AND CALLER EQ PUSH2 0xCB6 JUMPI PUSH1 0x40 MLOAD PUSH3 0x461BCD PUSH1 0xE5 SHL DUP2 MSTORE PUSH1 0x4 ADD PUSH2 0x1D1 SWAP1 PUSH2 0x152F JUMP JUMPDEST PUSH1 0x0 DUP5 DUP2 MSTORE PUSH1 0x1 PUSH1 0x20 MSTORE PUSH1 0x40 SWAP1 KECCAK256 SLOAD PUSH1 0x1 PUSH1 0x1 PUSH1 0xA0 SHL SUB AND ISZERO PUSH2 0xD11 JUMPI PUSH1 0x40 MLOAD PUSH3 0x461BCD PUSH1 0xE5 SHL DUP2 MSTORE PUSH1 0x20 PUSH1 0x4 DUP3 ADD MSTORE PUSH1 0x13 PUSH1 0x24 DUP3 ADD MSTORE PUSH19 0x5461736B20616C726561647920657869737473 PUSH1 0x68 SHL PUSH1 0x44 DUP3 ADD MSTORE PUSH1 0x64 ADD PUSH2 0x1D1 JUMP JUMPDEST PUSH1 0x40 DUP1 MLOAD PUSH2 0x160 DUP2 ADD DUP3 MSTORE PUSH1 0x1 PUSH1 0x1 PUSH1 0xA0 SHL SUB DUP6 DUP2 AND DUP3 MSTORE PUSH1 0x0 PUSH1 0x20 DUP1 DUP5 ADD DUP3 DUP2 MSTORE DUP5 DUP7 ADD DUP9 DUP2 MSTORE PUSH1 0x60 DUP7 ADD DUP5 DUP2 MSTORE TIMESTAMP PUSH1 0x80 DUP9 ADD MSTORE PUSH1 0xA0 DUP8 ADD DUP6 SWAP1 MSTORE DUP8 MLOAD DUP1 DUP6 ADD DUP10 MSTORE DUP6 DUP2 MSTORE PUSH1 0xC0 DUP9 ADD MSTORE DUP8 MLOAD DUP1 DUP6 ADD DUP10 MSTORE DUP6 DUP2 MSTORE PUSH1 0xE0 DUP9 ADD MSTORE PUSH2 0x100 DUP8 ADD DUP6 SWAP1 MSTORE PUSH2 0x120 DUP8 ADD DUP10 SWAP1 MSTORE DUP8 MLOAD DUP1 DUP6 ADD DUP10 MSTORE DUP6 DUP2 MSTORE PUSH2 0x140 DUP9 ADD MSTORE DUP12 DUP6 MSTORE PUSH1 0x1 SWAP4 DUP5 SWAP1 MSTORE SWAP7 SWAP1 SWAP4 KECCAK256 DUP6 MLOAD DUP2 SLOAD SWAP1 DUP7 AND PUSH1 0x1 PUSH1 0x1 PUSH1 0xA0 SHL SUB NOT SWAP2 DUP3 AND OR DUP3 SSTORE SWAP2 MLOAD DUP2 DUP5 ADD DUP1 SLOAD SWAP2 SWAP1 SWAP7 AND SWAP3 AND SWAP2 SWAP1 SWAP2 OR SWAP1 SWAP4 SSTORE SWAP1 MLOAD PUSH1 0x2 DUP4 ADD SSTORE SWAP3 MLOAD PUSH1 0x3 DUP3 ADD DUP1 SLOAD SWAP4 SWAP5 SWAP3 SWAP4 SWAP2 SWAP3 SWAP1 SWAP2 PUSH1 0xFF NOT AND SWAP1 DUP4 PUSH1 0x6 DUP2 GT ISZERO PUSH2 0xDF0 JUMPI PUSH2 0xDF0 PUSH2 0x13B6 JUMP JUMPDEST MUL OR SWAP1 SSTORE POP PUSH1 0x80 DUP3 ADD MLOAD PUSH1 0x4 DUP3 ADD SSTORE PUSH1 0xA0 DUP3 ADD MLOAD PUSH1 0x5 DUP3 ADD SSTORE PUSH1 0xC0 DUP3 ADD MLOAD PUSH1 0x6 DUP3 ADD SWAP1 PUSH2 0xE1D SWAP1 DUP3 PUSH2 0x163B JUMP JUMPDEST POP PUSH1 0xE0 DUP3 ADD MLOAD PUSH1 0x7 DUP3 ADD SWAP1 PUSH2 0xE32 SWAP1 DUP3 PUSH2 0x163B JUMP JUMPDEST POP PUSH2 0x100 DUP3 ADD MLOAD PUSH1 0x8 DUP3 ADD DUP1 SLOAD PUSH1 0xFF NOT AND PUSH1 0xFF SWAP1 SWAP3 AND SWAP2 SWAP1 SWAP2 OR SWAP1 SSTORE PUSH2 0x120 DUP3 ADD MLOAD PUSH1 0x9 DUP3 ADD SWAP1 PUSH2 0xE63 SWAP1 DUP3 PUSH2 0x163B JUMP JUMPDEST POP PUSH2 0x140 DUP3 ADD MLOAD PUSH1 0xA DUP3 ADD SWAP1 PUSH2 0xE79 SWAP1 DUP3 PUSH2 0x163B JUMP JUMPDEST POP SWAP1 POP POP DUP3 PUSH1 0x1 PUSH1 0x1 PUSH1 0xA0 SHL SUB AND DUP5 PUSH32 0xD49A9E8A372991ADFBCF9D9C653A4D9EDA092C71FE7B501597B50EB49324713 DUP5 DUP5 TIMESTAMP PUSH1 0x40 MLOAD PUSH2 0xEBB SWAP4 SWAP3 SWAP2 SWAP1 PUSH2 0x16FB JUMP JUMPDEST PUSH1 0x40 MLOAD DUP1 SWAP2 SUB SWAP1 LOG3 POP POP POP POP JUMP JUMPDEST PUSH1 0x1 PUSH1 0x20 DUP2 SWAP1 MSTORE PUSH1 0x0 SWAP2 DUP3 MSTORE PUSH1 0x40 SWAP1 SWAP2 KECCAK256 DUP1 SLOAD SWAP2 DUP2 ADD SLOAD PUSH1 0x2 DUP3 ADD SLOAD PUSH1 0x3 DUP4 ADD SLOAD PUSH1 0x4 DUP5 ADD SLOAD PUSH1 0x5 DUP6 ADD SLOAD PUSH1 0x6 DUP7 ADD DUP1 SLOAD PUSH1 0x1 PUSH1 0x1 PUSH1 0xA0 SHL SUB SWAP9 DUP10 AND SWAP9 SWAP1 SWAP7 AND SWAP7 SWAP5 SWAP6 PUSH1 0xFF SWAP1 SWAP5 AND SWAP5 SWAP3 SWAP4 SWAP2 SWAP3 SWAP2 PUSH2 0xF20 SWAP1 PUSH2 0x15B0 JUMP JUMPDEST DUP1 PUSH1 0x1F ADD PUSH1 0x20 DUP1 SWAP2 DIV MUL PUSH1 0x20 ADD PUSH1 0x40 MLOAD SWAP1 DUP2 ADD PUSH1 0x40 MSTORE DUP1 SWAP3 SWAP2 SWAP1 DUP2 DUP2 MSTORE PUSH1 0x20 ADD DUP3 DUP1 SLOAD PUSH2 0xF4C SWAP1 PUSH2 0x15B0 JUMP JUMPDEST DUP1 ISZERO PUSH2 0xF99 JUMPI DUP1 PUSH1 0x1F LT PUSH2 0xF6E JUMPI PUSH2 0x100 DUP1 DUP4 SLOAD DIV MUL DUP4 MSTORE SWAP2 PUSH1 0x20 ADD SWAP2 PUSH2 0xF99 JUMP JUMPDEST DUP3 ADD SWAP2 SWAP1 PUSH1 0x0 MSTORE PUSH1 0x20 PUSH1 0x0 KECCAK256 SWAP1 JUMPDEST DUP2 SLOAD DUP2 MSTORE SWAP1 PUSH1 0x1 ADD SWAP1 PUSH1 0x20 ADD DUP1 DUP4 GT PUSH2 0xF7C JUMPI DUP3 SWAP1 SUB PUSH1 0x1F AND DUP3 ADD SWAP2 JUMPDEST POP POP POP POP POP SWAP1 DUP1 PUSH1 0x7 ADD DUP1 SLOAD PUSH2 0xFAE SWAP1 PUSH2 0x15B0 JUMP JUMPDEST DUP1 PUSH1 0x1F ADD PUSH1 0x20 DUP1 SWAP2 DIV MUL PUSH1 0x20 ADD PUSH1 0x40 MLOAD SWAP1 DUP2 ADD PUSH1 0x40 MSTORE DUP1 SWAP3 SWAP2 SWAP1 DUP2 DUP2 MSTORE PUSH1 0x20 ADD DUP3 DUP1 SLOAD PUSH2 0xFDA SWAP1 PUSH2 0x15B0 JUMP JUMPDEST DUP1 ISZERO PUSH2 0x1027 JUMPI DUP1 PUSH1 0x1F LT PUSH2 0xFFC JUMPI PUSH2 0x100 DUP1 DUP4 SLOAD DIV MUL DUP4 MSTORE SWAP2 PUSH1 0x20 ADD SWAP2 PUSH2 0x1027 JUMP JUMPDEST DUP3 ADD SWAP2 SWAP1 PUSH1 0x0 MSTORE PUSH1 0x20 PUSH1 0x0 KECCAK256 SWAP1 JUMPDEST DUP2 SLOAD DUP2 MSTORE SWAP1 PUSH1 0x1 ADD SWAP1 PUSH1 0x20 ADD DUP1 DUP4 GT PUSH2 0x100A JUMPI DUP3 SWAP1 SUB PUSH1 0x1F AND DUP3 ADD SWAP2 JUMPDEST POP POP POP PUSH1 0x8 DUP5 ADD SLOAD PUSH1 0x9 DUP6 ADD DUP1 SLOAD SWAP5 SWAP6 PUSH1 0xFF SWAP1 SWAP3 AND SWAP5 SWAP2 SWAP4 POP SWAP2 POP PUSH2 0x104B SWAP1 PUSH2 0x15B0 JUMP JUMPDEST DUP1 PUSH1 0x1F ADD PUSH1 0x20 DUP1 SWAP2 DIV MUL PUSH1 0x20 ADD PUSH1 0x40 MLOAD SWAP1 DUP2 ADD PUSH1 0x40 MSTORE DUP1 SWAP3 SWAP2 SWAP1 DUP2 DUP2 MSTORE PUSH1 0x20 ADD DUP3 DUP1 SLOAD PUSH2 0x1077 SWAP1 PUSH2 0x15B0 JUMP JUMPDEST DUP1 ISZERO PUSH2 0x10C4 JUMPI DUP1 PUSH1 0x1F LT PUSH2 0x1099 JUMPI PUSH2 0x100 DUP1 DUP4 SLOAD DIV MUL DUP4 MSTORE SWAP2 PUSH1 0x20 ADD SWAP2 PUSH2 0x10C4 JUMP JUMPDEST DUP3 ADD SWAP2 SWAP1 PUSH1 0x0 MSTORE PUSH1 0x20 PUSH1 0x0 KECCAK256 SWAP1 JUMPDEST DUP2 SLOAD DUP2 MSTORE SWAP1 PUSH1 0x1 ADD SWAP1 PUSH1 0x20 ADD DUP1 DUP4 GT PUSH2 0x10A7 JUMPI DUP3 SWAP1 SUB PUSH1 0x1F AND DUP3 ADD SWAP2 JUMPDEST POP POP POP POP POP SWAP1 DUP1 PUSH1 0xA ADD DUP1 SLOAD PUSH2 0x10D9 SWAP1 PUSH2 0x15B0 JUMP JUMPDEST DUP1 PUSH1 0x1F ADD PUSH1 0x20 DUP1 SWAP2 DIV MUL PUSH1 0x20 ADD PUSH1 0x40 MLOAD SWAP1 DUP2 ADD PUSH1 0x40 MSTORE DUP1 SWAP3 SWAP2 SWAP1 DUP2 DUP2 MSTORE PUSH1 0x20 ADD DUP3 DUP1 SLOAD PUSH2 0x1105 SWAP1 PUSH2 0x15B0 JUMP JUMPDEST DUP1 ISZERO PUSH2 0x1152 JUMPI DUP1 PUSH1 0x1F LT PUSH2 0x1127 JUMPI PUSH2 0x100 DUP1 DUP4 SLOAD DIV MUL DUP4 MSTORE SWAP2 PUSH1 0x20 ADD SWAP2 PUSH2 0x1152 JUMP JUMPDEST DUP3 ADD SWAP2 SWAP1 PUSH1 0x0 MSTORE PUSH1 0x20 PUSH1 0x0 KECCAK256 SWAP1 JUMPDEST DUP2 SLOAD DUP2 MSTORE SWAP1 PUSH1 0x1 ADD SWAP1 PUSH1 0x20 ADD DUP1 DUP4 GT PUSH2 0x1135 JUMPI DUP3 SWAP1 SUB PUSH1 0x1F AND DUP3 ADD SWAP2 JUMPDEST POP POP POP POP POP SWAP1 POP DUP12 JUMP JUMPDEST PUSH4 0x4E487B71 PUSH1 0xE0 SHL PUSH1 0x0 MSTORE PUSH1 0x41 PUSH1 0x4 MSTORE PUSH1 0x24 PUSH1 0x0 REVERT JUMPDEST PUSH1 0x0 DUP3 PUSH1 0x1F DUP4 ADD SLT PUSH2 0x1183 JUMPI PUSH1 0x0 DUP1 REVERT JUMPDEST DUP2 CALLDATALOAD PUSH8 0xFFFFFFFFFFFFFFFF DUP1 DUP3 GT ISZERO PUSH2 0x119E JUMPI PUSH2 0x119E PUSH2 0x115C JUMP JUMPDEST PUSH1 0x40 MLOAD PUSH1 0x1F DUP4 ADD PUSH1 0x1F NOT SWAP1 DUP2 AND PUSH1 0x3F ADD AND DUP2 ADD SWAP1 DUP3 DUP3 GT DUP2 DUP4 LT OR ISZERO PUSH2 0x11C6 JUMPI PUSH2 0x11C6 PUSH2 0x115C JUMP JUMPDEST DUP2 PUSH1 0x40 MSTORE DUP4 DUP2 MSTORE DUP7 PUSH1 0x20 DUP6 DUP9 ADD ADD GT ISZERO PUSH2 0x11DF JUMPI PUSH1 0x0 DUP1 REVERT JUMPDEST DUP4 PUSH1 0x20 DUP8 ADD PUSH1 0x20 DUP4 ADD CALLDATACOPY PUSH1 0x0 PUSH1 0x20 DUP6 DUP4 ADD ADD MSTORE DUP1 SWAP5 POP POP POP POP POP SWAP3 SWAP2 POP POP JUMP JUMPDEST PUSH1 0x0 DUP1 PUSH1 0x40 DUP4 DUP6 SUB SLT ISZERO PUSH2 0x1212 JUMPI PUSH1 0x0 DUP1 REVERT JUMPDEST DUP3 CALLDATALOAD SWAP2 POP PUSH1 0x20 DUP4 ADD CALLDATALOAD PUSH8 0xFFFFFFFFFFFFFFFF DUP2 GT ISZERO PUSH2 0x1230 JUMPI PUSH1 0x0 DUP1 REVERT JUMPDEST PUSH2 0x123C DUP6 DUP3 DUP7 ADD PUSH2 0x1172 JUMP JUMPDEST SWAP2 POP POP SWAP3 POP SWAP3 SWAP1 POP JUMP JUMPDEST DUP1 CALLDATALOAD DUP1 ISZERO ISZERO DUP2 EQ PUSH2 0x1256 JUMPI PUSH1 0x0 DUP1 REVERT JUMPDEST SWAP2 SWAP1 POP JUMP JUMPDEST PUSH1 0x0 DUP1 PUSH1 0x0 PUSH1 0x60 DUP5 DUP7 SUB SLT ISZERO PUSH2 0x1270 JUMPI PUSH1 0x0 DUP1 REVERT JUMPDEST DUP4 CALLDATALOAD SWAP3 POP PUSH1 0x20 DUP5 ADD CALLDATALOAD PUSH1 0xFF DUP2 AND DUP2 EQ PUSH2 0x1288 JUMPI PUSH1 0x0 DUP1 REVERT JUMPDEST SWAP2 POP PUSH2 0x1296 PUSH1 0x40 DUP6 ADD PUSH2 0x1246 JUMP JUMPDEST SWAP1 POP SWAP3 POP SWAP3 POP SWAP3 JUMP JUMPDEST PUSH1 0x0 DUP1 PUSH1 0x0 PUSH1 0x60 DUP5 DUP7 SUB SLT ISZERO PUSH2 0x12B4 JUMPI PUSH1 0x0 DUP1 REVERT JUMPDEST DUP4 CALLDATALOAD SWAP3 POP PUSH1 0x20 DUP5 ADD CALLDATALOAD PUSH8 0xFFFFFFFFFFFFFFFF DUP2 GT ISZERO PUSH2 0x12D2 JUMPI PUSH1 0x0 DUP1 REVERT JUMPDEST PUSH2 0x12DE DUP7 DUP3 DUP8 ADD PUSH2 0x1172 JUMP JUMPDEST SWAP3 POP POP PUSH2 0x1296 PUSH1 0x40 DUP6 ADD PUSH2 0x1246 JUMP JUMPDEST PUSH1 0x0 DUP1 PUSH1 0x0 PUSH1 0x60 DUP5 DUP7 SUB SLT ISZERO PUSH2 0x1302 JUMPI PUSH1 0x0 DUP1 REVERT JUMPDEST DUP4 CALLDATALOAD SWAP3 POP PUSH1 0x20 DUP5 ADD CALLDATALOAD PUSH8 0xFFFFFFFFFFFFFFFF DUP1 DUP3 GT ISZERO PUSH2 0x1321 JUMPI PUSH1 0x0 DUP1 REVERT JUMPDEST PUSH2 0x132D DUP8 DUP4 DUP9 ADD PUSH2 0x1172 JUMP JUMPDEST SWAP4 POP PUSH1 0x40 DUP7 ADD CALLDATALOAD SWAP2 POP DUP1 DUP3 GT ISZERO PUSH2 0x1343 JUMPI PUSH1 0x0 DUP1 REVERT JUMPDEST POP PUSH2 0x1350 DUP7 DUP3 DUP8 ADD PUSH2 0x1172 JUMP JUMPDEST SWAP2 POP POP SWAP3 POP SWAP3 POP SWAP3 JUMP JUMPDEST DUP1 CALLDATALOAD PUSH1 0x1 PUSH1 0x1 PUSH1 0xA0 SHL SUB DUP2 AND DUP2 EQ PUSH2 0x1256 JUMPI PUSH1 0x0 DUP1 REVERT JUMPDEST PUSH1 0x0 DUP1 PUSH1 0x40 DUP4 DUP6 SUB SLT ISZERO PUSH2 0x1384 JUMPI PUSH1 0x0 DUP1 REVERT JUMPDEST DUP3 CALLDATALOAD SWAP2 POP PUSH2 0x1394 PUSH1 0x20 DUP5 ADD PUSH2 0x135A JUMP JUMPDEST SWAP1 POP SWAP3 POP SWAP3 SWAP1 POP JUMP JUMPDEST PUSH1 0x0 PUSH1 0x20 DUP3 DUP5 SUB SLT ISZERO PUSH2 0x13AF JUMPI PUSH1 0x0 DUP1 REVERT JUMPDEST POP CALLDATALOAD SWAP2 SWAP1 POP JUMP JUMPDEST PUSH4 0x4E487B71 PUSH1 0xE0 SHL PUSH1 0x0 MSTORE PUSH1 0x21 PUSH1 0x4 MSTORE PUSH1 0x24 PUSH1 0x0 REVERT JUMPDEST PUSH1 0x0 DUP2 MLOAD DUP1 DUP5 MSTORE PUSH1 0x0 JUMPDEST DUP2 DUP2 LT ISZERO PUSH2 0x13F2 JUMPI PUSH1 0x20 DUP2 DUP6 ADD DUP2 ADD MLOAD DUP7 DUP4 ADD DUP3 ADD MSTORE ADD PUSH2 0x13D6 JUMP JUMPDEST POP PUSH1 0x0 PUSH1 0x20 DUP3 DUP7 ADD ADD MSTORE PUSH1 0x20 PUSH1 0x1F NOT PUSH1 0x1F DUP4 ADD AND DUP6 ADD ADD SWAP2 POP POP SWAP3 SWAP2 POP POP JUMP JUMPDEST PUSH1 0x1 PUSH1 0x1 PUSH1 0xA0 SHL SUB DUP13 DUP2 AND DUP3 MSTORE DUP12 AND PUSH1 0x20 DUP3 ADD MSTORE PUSH1 0x40 DUP2 ADD DUP11 SWAP1 MSTORE PUSH1 0x0 PUSH2 0x160 PUSH1 0x7 DUP12 LT PUSH2 0x1450 JUMPI PUSH4 0x4E487B71 PUSH1 0xE0 SHL PUSH1 0x0 MSTORE PUSH1 0x21 PUSH1 0x4 MSTORE PUSH1 0x24 PUSH1 0x0 REVERT JUMPDEST DUP11 PUSH1 0x60 DUP5 ADD MSTORE DUP10 PUSH1 0x80 DUP5 ADD MSTORE DUP9 PUSH1 0xA0 DUP5 ADD MSTORE DUP1 PUSH1 0xC0 DUP5 ADD MSTORE PUSH2 0x1474 DUP2 DUP5 ADD DUP10 PUSH2 0x13CC JUMP JUMPDEST SWAP1 POP DUP3 DUP2 SUB PUSH1 0xE0 DUP5 ADD MSTORE PUSH2 0x1488 DUP2 DUP9 PUSH2 0x13CC JUMP JUMPDEST PUSH1 0xFF DUP8 AND PUSH2 0x100 DUP6 ADD MSTORE SWAP1 POP DUP3 DUP2 SUB PUSH2 0x120 DUP5 ADD MSTORE PUSH2 0x14A7 DUP2 DUP7 PUSH2 0x13CC JUMP JUMPDEST SWAP1 POP DUP3 DUP2 SUB PUSH2 0x140 DUP5 ADD MSTORE PUSH2 0x14BC DUP2 DUP6 PUSH2 0x13CC JUMP JUMPDEST SWAP15 SWAP14 POP POP POP POP POP POP POP POP POP POP POP POP POP POP JUMP JUMPDEST PUSH1 0x0 DUP1 PUSH1 0x0 DUP1 PUSH1 0x80 DUP6 DUP8 SUB SLT ISZERO PUSH2 0x14E4 JUMPI PUSH1 0x0 DUP1 REVERT JUMPDEST DUP5 CALLDATALOAD SWAP4 POP PUSH2 0x14F4 PUSH1 0x20 DUP7 ADD PUSH2 0x135A JUMP JUMPDEST SWAP3 POP PUSH1 0x40 DUP6 ADD CALLDATALOAD SWAP2 POP PUSH1 0x60 DUP6 ADD CALLDATALOAD PUSH8 0xFFFFFFFFFFFFFFFF DUP2 GT ISZERO PUSH2 0x1517 JUMPI PUSH1 0x0 DUP1 REVERT JUMPDEST PUSH2 0x1523 DUP8 DUP3 DUP9 ADD PUSH2 0x1172 JUMP JUMPDEST SWAP2 POP POP SWAP3 SWAP6 SWAP2 SWAP5 POP SWAP3 POP JUMP JUMPDEST PUSH1 0x20 DUP1 DUP3 MSTORE PUSH1 0x17 SWAP1 DUP3 ADD MSTORE PUSH32 0x4F6E6C79206261636B656E642063616E207265636F7264000000000000000000 PUSH1 0x40 DUP3 ADD MSTORE PUSH1 0x60 ADD SWAP1 JUMP JUMPDEST PUSH1 0x20 DUP1 DUP3 MSTORE PUSH1 0xE SWAP1 DUP3 ADD MSTORE PUSH14 0x496E76616C696420737461747573 PUSH1 0x90 SHL PUSH1 0x40 DUP3 ADD MSTORE PUSH1 0x60 ADD SWAP1 JUMP JUMPDEST PUSH1 0x40 DUP2 MSTORE PUSH1 0x0 PUSH2 0x15A1 PUSH1 0x40 DUP4 ADD DUP6 PUSH2 0x13CC JUMP JUMPDEST SWAP1 POP DUP3 PUSH1 0x20 DUP4 ADD MSTORE SWAP4 SWAP3 POP POP POP JUMP JUMPDEST PUSH1 0x1 DUP2 DUP2 SHR SWAP1 DUP3 AND DUP1 PUSH2 0x15C4 JUMPI PUSH1 0x7F DUP3 AND SWAP2 POP JUMPDEST PUSH1 0x20 DUP3 LT DUP2 SUB PUSH2 0x15E4 JUMPI PUSH4 0x4E487B71 PUSH1 0xE0 SHL PUSH1 0x0 MSTORE PUSH1 0x22 PUSH1 0x4 MSTORE PUSH1 0x24 PUSH1 0x0 REVERT JUMPDEST POP SWAP2 SWAP1 POP JUMP JUMPDEST PUSH1 0x1F DUP3 GT ISZERO PUSH2 0x1636 JUMPI PUSH1 0x0 DUP2 PUSH1 0x0 MSTORE PUSH1 0x20 PUSH1 0x0 KECCAK256 PUSH1 0x1F DUP6 ADD PUSH1 0x5 SHR DUP2 ADD PUSH1 0x20 DUP7 LT ISZERO PUSH2 0x1613 JUMPI POP DUP1 JUMPDEST PUSH1 0x1F DUP6 ADD PUSH1 0x5 SHR DUP3 ADD SWAP2 POP JUMPDEST DUP2 DUP2 LT ISZERO PUSH2 0x1632 JUMPI DUP3 DUP2 SSTORE PUSH1 0x1 ADD PUSH2 0x161F JUMP JUMPDEST POP POP POP JUMPDEST POP POP POP JUMP JUMPDEST DUP2 MLOAD PUSH8 0xFFFFFFFFFFFFFFFF DUP2 GT ISZERO PUSH2 0x1655 JUMPI PUSH2 0x1655 PUSH2 0x115C JUMP JUMPDEST PUSH2 0x1669 DUP2 PUSH2 0x1663 DUP5 SLOAD PUSH2 0x15B0 JUMP JUMPDEST DUP5 PUSH2 0x15EA JUMP JUMPDEST PUSH1 0x20 DUP1 PUSH1 0x1F DUP4 GT PUSH1 0x1 DUP2 EQ PUSH2 0x169E JUMPI PUSH1 0x0 DUP5 ISZERO PUSH2 0x1686 JUMPI POP DUP6 DUP4 ADD MLOAD JUMPDEST PUSH1 0x0 NOT PUSH1 0x3 DUP7 SWAP1 SHL SHR NOT AND PUSH1 0x1 DUP6 SWAP1 SHL OR DUP6 SSTORE PUSH2 0x1632 JUMP JUMPDEST PUSH1 0x0 DUP6 DUP2 MSTORE PUSH1 0x20 DUP2 KECCAK256 PUSH1 0x1F NOT DUP7 AND SWAP2 JUMPDEST DUP3 DUP2 LT ISZERO PUSH2 0x16CD JUMPI DUP9 DUP7 ADD MLOAD DUP3 SSTORE SWAP5 DUP5 ADD SWAP5 PUSH1 0x1 SWAP1 SWAP2 ADD SWAP1 DUP5 ADD PUSH2 0x16AE JUMP JUMPDEST POP DUP6 DUP3 LT ISZERO PUSH2 0x16EB JUMPI DUP8 DUP6 ADD MLOAD PUSH1 0x0 NOT PUSH1 0x3 DUP9 SWAP1 SHL PUSH1 0xF8 AND SHR NOT AND DUP2 SSTORE JUMPDEST POP POP POP POP POP PUSH1 0x1 SWAP1 DUP2 SHL ADD SWAP1 SSTORE POP JUMP JUMPDEST DUP4 DUP2 MSTORE PUSH1 0x60 PUSH1 0x20 DUP3 ADD MSTORE PUSH1 0x0 PUSH2 0x1714 PUSH1 0x60 DUP4 ADD DUP6 PUSH2 0x13CC JUMP JUMPDEST SWAP1 POP DUP3 PUSH1 0x40 DUP4 ADD MSTORE SWAP5 SWAP4 POP POP POP POP JUMP JUMPDEST PUSH1 0x60 DUP2 MSTORE PUSH1 0x0 PUSH2 0x1737 PUSH1 0x60 DUP4 ADD DUP7 PUSH2 0x13CC JUMP JUMPDEST DUP3 DUP2 SUB PUSH1 0x20 DUP5 ADD MSTORE PUSH2 0x1749 DUP2 DUP7 PUSH2 0x13CC JUMP JUMPDEST SWAP2 POP POP DUP3 PUSH1 0x40 DUP4 ADD MSTORE SWAP5 SWAP4 POP POP POP POP JUMP INVALID LOG2 PUSH5 0x6970667358 0x22 SLT KECCAK256 0xDE 0x2D GASPRICE PUSH20 0x50115C7D7040A14BB822E2EDF668765EDC11E4FC GAS 0xC5 PUSH14 0xAEEA8E5E9164736F6C6343000818 STOP CALLER "},"methodIdentifiers":{"backend()":"099e4133","getTaskAudit(bytes32)":"73f7ec96","recordAIVerification(bytes32,uint8,bool)":"28130c56","recordDispute(bytes32,string)":"196f6b11","recordPaymentRelease(bytes32,string)":"2395de6b","recordTaskAcceptance(bytes32,address)":"6c209fe1","recordTaskCreation(bytes32,address,uint256,string)":"e2cd361a","recordWorkSubmission(bytes32,string,string)":"5199b793","tasks(bytes32)":"e579f500","verifyImageHash(bytes32,string,bool)":"3edf20b7"}}}}}