{
  "_format": "hh-sol-artifact-1",
  "contractName": "ProjectFactory",
  "sourceName": "contracts/ProjectFactory.sol",
  "abi": [
    {
      "inputs": [],
      "stateMutability": "nonpayable",
      "type": "constructor"
    },
    {
      "anonymous": false,
      "inputs": [
        {
          "indexed": true,
          "internalType": "address",
          "name": "projectAddress",
          "type": "address"
        },
        {
          "indexed": true,
          "internalType": "address",
          "name": "organizer",
          "type": "address"
        },
        {
          "indexed": false,
          "internalType": "string",
          "name": "title",
          "type": "string"
        },
        {
          "indexed": false,
          "internalType": "uint256",
          "name": "fundingGoal",
          "type": "uint256"
        },
        {
          "indexed": false,
          "internalType": "uint256",
          "name": "timestamp",
          "type": "uint256"
        }
      ],
      "name": "ProjectCreated",
      "type": "event"
    },
    {
      "inputs": [],
      "name": "admin",
      "outputs": [
        {
          "internalType": "address",
          "name": "",
          "type": "address"
        }
      ],
      "stateMutability": "view",
      "type": "function"
    },
    {
      "inputs": [
        {
          "internalType": "address",
          "name": "_organizer",
          "type": "address"
        },
        {
          "internalType": "string",
          "name": "_title",
          "type": "string"
        },
        {
          "internalType": "string",
          "name": "_description",
          "type": "string"
        },
        {
          "internalType": "uint256",
          "name": "_fundingGoal",
          "type": "uint256"
        }
      ],
      "name": "createProject",
      "outputs": [
        {
          "internalType": "address",
          "name": "",
          "type": "address"
        }
      ],
      "stateMutability": "nonpayable",
      "type": "function"
    },
    {
      "inputs": [],
      "name": "getProjectCount",
      "outputs": [
        {
          "internalType": "uint256",
          "name": "",
          "type": "uint256"
        }
      ],
      "stateMutability": "view",
      "type": "function"
    },
    {
      "inputs": [
        {
          "internalType": "uint256",
          "name": "_index",
          "type": "uint256"
        }
      ],
      "name": "getProjectDetails",
      "outputs": [
        {
          "internalType": "address",
          "name": "projectAddress",
          "type": "address"
        },
        {
          "internalType": "address",
          "name": "organizer",
          "type": "address"
        },
        {
          "internalType": "string",
          "name": "title",
          "type": "string"
        },
        {
          "internalType": "string",
          "name": "description",
          "type": "string"
        },
        {
          "internalType": "uint256",
          "name": "fundingGoal",
          "type": "uint256"
        },
        {
          "internalType": "uint256",
          "name": "createdAt",
          "type": "uint256"
        }
      ],
      "stateMutability": "view",
      "type": "function"
    },
    {
      "inputs": [],
      "name": "getProjects",
      "outputs": [
        {
          "internalType": "contract Project[]",
          "name": "",
          "type": "address[]"
        }
      ],
      "stateMutability": "view",
      "type": "function"
    },
    {
      "inputs": [
        {
          "internalType": "address",
          "name": "_organizer",
          "type": "address"
        }
      ],
      "name": "getProjectsByOrganizer",
      "outputs": [
        {
          "internalType": "address[]",
          "name": "",
          "type": "address[]"
        }
      ],
      "stateMutability": "view",
      "type": "function"
    },
    {
      "inputs": [
        {
          "internalType": "address",
          "name": "",
          "type": "address"
        }
      ],
      "name": "isProject",
      "outputs": [
        {
          "internalType": "bool",
          "name": "",
          "type": "bool"
        }
      ],
      "stateMutability": "view",
      "type": "function"
    },
    {
      "inputs": [
        {
          "internalType": "address",
          "name": "_projectAddress",
          "type": "address"
        }
      ],
      "name": "isValidProject",
      "outputs": [
        {
          "internalType": "bool",
          "name": "",
          "type": "bool"
        }
      ],
      "stateMutability": "view",
      "type": "function"
    },
    {
      "inputs": [
        {
          "internalType": "address",
          "name": "",
          "type": "address"
        },
        {
          "internalType": "uint256",
          "name": "",
          "type": "uint256"
        }
      ],
      "name": "organizerProjects",
      "outputs": [
        {
          "internalType": "address",
          "name": "",
          "type": "address"
        }
      ],
      "stateMutability": "view",
      "type": "function"
    },
    {
      "inputs": [
        {
          "internalType": "uint256",
          "name": "",
          "type": "uint256"
        }
      ],
      "name": "projects",
      "outputs": [
        {
          "internalType": "contract Project",
          "name": "",
          "type": "address"
        }
      ],
      "stateMutability": "view",
      "type": "function"
    }
  ],
  "bytecode": "0x608060405234801561001057600080fd5b5033600360006101000a81548173ffffffffffffffffffffffffffffffffffffffff021916908373ffffffffffffffffffffffffffffffffffffffff160217905550614a6a806100616000396000f3fe60806040523480156200001157600080fd5b5060043610620000ac5760003560e01c80635d0c3011116200006f5780635d0c301114620001ab5780635f8439e314620001e1578063dcc60128146200021c578063f851a440146200023e578063ff8e04f3146200026057620000ac565b806305c8140814620000b157806309da484814620000e7578063107046bd146200011d5780631a2f36c914620001535780633bcff3b01462000189575b600080fd5b620000cf6004803603810190620000c9919062000ac2565b62000296565b604051620000de919062000b11565b60405180910390f35b620001056004803603810190620000ff919062000ac2565b620002b6565b60405162000114919062000bfc565b60405180910390f35b6200013b600480360381019062000135919062000c5b565b62000385565b6040516200014a919062000cf8565b60405180910390f35b6200017160048036038101906200016b919062000e77565b620003c5565b60405162000180919062000f38565b60405180910390f35b62000193620005e1565b604051620001a2919062000f66565b60405180910390f35b620001c96004803603810190620001c3919062000ac2565b620005ed565b604051620001d8919062000b11565b60405180910390f35b620001ff6004803603810190620001f9919062000c5b565b62000643565b60405162000213969594939291906200100c565b60405180910390f35b6200022662000936565b60405162000235919062001144565b60405180910390f35b62000248620009c6565b60405162000257919062000f38565b60405180910390f35b6200027e600480360381019062000278919062001168565b620009ec565b6040516200028d919062000f38565b60405180910390f35b60026020528060005260406000206000915054906101000a900460ff1681565b6060600160008373ffffffffffffffffffffffffffffffffffffffff1673ffffffffffffffffffffffffffffffffffffffff1681526020019081526020016000208054806020026020016040519081016040528092919081815260200182805480156200037957602002820191906000526020600020905b8160009054906101000a900473ffffffffffffffffffffffffffffffffffffffff1673ffffffffffffffffffffffffffffffffffffffff16815260200190600101908083116200032e575b50505050509050919050565b600081815481106200039657600080fd5b906000526020600020016000915054906101000a900473ffffffffffffffffffffffffffffffffffffffff1681565b60008085858585604051620003da9062000a3b565b620003e99493929190620011af565b604051809103906000f08015801562000406573d6000803e3d6000fd5b50905060008190506000829080600181540180825580915050600190039060005260206000200160009091909190916101000a81548173ffffffffffffffffffffffffffffffffffffffff021916908373ffffffffffffffffffffffffffffffffffffffff160217905550600160008873ffffffffffffffffffffffffffffffffffffffff1673ffffffffffffffffffffffffffffffffffffffff168152602001908152602001600020819080600181540180825580915050600190039060005260206000200160009091909190916101000a81548173ffffffffffffffffffffffffffffffffffffffff021916908373ffffffffffffffffffffffffffffffffffffffff1602179055506001600260008373ffffffffffffffffffffffffffffffffffffffff1673ffffffffffffffffffffffffffffffffffffffff16815260200190815260200160002060006101000a81548160ff0219169083151502179055508673ffffffffffffffffffffffffffffffffffffffff168173ffffffffffffffffffffffffffffffffffffffff167ff474a44bbf67e28a60e1e8977a0d7bdf30896d6b88b7c83710a32ad527611994888742604051620005cc939291906200120a565b60405180910390a38092505050949350505050565b60008080549050905090565b6000600260008373ffffffffffffffffffffffffffffffffffffffff1673ffffffffffffffffffffffffffffffffffffffff16815260200190815260200160002060009054906101000a900460ff169050919050565b600080606080600080600080549050871062000696576040517f08c379a00000000000000000000000000000000000000000000000000000000081526004016200068d906200129e565b60405180910390fd5b6000808881548110620006ae57620006ad620012c0565b5b9060005260206000200160009054906101000a900473ffffffffffffffffffffffffffffffffffffffff169050808173ffffffffffffffffffffffffffffffffffffffff1663612032656040518163ffffffff1660e01b8152600401602060405180830381865afa15801562000728573d6000803e3d6000fd5b505050506040513d601f19601f820116820180604052508101906200074e919062001306565b8273ffffffffffffffffffffffffffffffffffffffff16634a79d50c6040518163ffffffff1660e01b8152600401600060405180830381865afa1580156200079a573d6000803e3d6000fd5b505050506040513d6000823e3d601f19601f82011682018060405250810190620007c59190620013b6565b8373ffffffffffffffffffffffffffffffffffffffff16637284e4166040518163ffffffff1660e01b8152600401600060405180830381865afa15801562000811573d6000803e3d6000fd5b505050506040513d6000823e3d601f19601f820116820180604052508101906200083c9190620013b6565b8473ffffffffffffffffffffffffffffffffffffffff16637a3a0e846040518163ffffffff1660e01b8152600401602060405180830381865afa15801562000888573d6000803e3d6000fd5b505050506040513d601f19601f82011682018060405250810190620008ae91906200141e565b8573ffffffffffffffffffffffffffffffffffffffff1663cf09e0d06040518163ffffffff1660e01b8152600401602060405180830381865afa158015620008fa573d6000803e3d6000fd5b505050506040513d601f19601f820116820180604052508101906200092091906200141e565b9650965096509650965096505091939550919395565b60606000805480602002602001604051908101604052809291908181526020018280548015620009bc57602002820191906000526020600020905b8160009054906101000a900473ffffffffffffffffffffffffffffffffffffffff1673ffffffffffffffffffffffffffffffffffffffff168152602001906001019080831162000971575b5050505050905090565b600360009054906101000a900473ffffffffffffffffffffffffffffffffffffffff1681565b6001602052816000526040600020818154811062000a0957600080fd5b906000526020600020016000915091509054906101000a900473ffffffffffffffffffffffffffffffffffffffff1681565b6135e4806200145183390190565b6000604051905090565b600080fd5b600080fd5b600073ffffffffffffffffffffffffffffffffffffffff82169050919050565b600062000a8a8262000a5d565b9050919050565b62000a9c8162000a7d565b811462000aa857600080fd5b50565b60008135905062000abc8162000a91565b92915050565b60006020828403121562000adb5762000ada62000a53565b5b600062000aeb8482850162000aab565b91505092915050565b60008115159050919050565b62000b0b8162000af4565b82525050565b600060208201905062000b28600083018462000b00565b92915050565b600081519050919050565b600082825260208201905092915050565b6000819050602082019050919050565b62000b658162000a7d565b82525050565b600062000b79838362000b5a565b60208301905092915050565b6000602082019050919050565b600062000b9f8262000b2e565b62000bab818562000b39565b935062000bb88362000b4a565b8060005b8381101562000bef57815162000bd3888262000b6b565b975062000be08362000b85565b92505060018101905062000bbc565b5085935050505092915050565b6000602082019050818103600083015262000c18818462000b92565b905092915050565b6000819050919050565b62000c358162000c20565b811462000c4157600080fd5b50565b60008135905062000c558162000c2a565b92915050565b60006020828403121562000c745762000c7362000a53565b5b600062000c848482850162000c44565b91505092915050565b6000819050919050565b600062000cb862000cb262000cac8462000a5d565b62000c8d565b62000a5d565b9050919050565b600062000ccc8262000c97565b9050919050565b600062000ce08262000cbf565b9050919050565b62000cf28162000cd3565b82525050565b600060208201905062000d0f600083018462000ce7565b92915050565b600080fd5b600080fd5b6000601f19601f8301169050919050565b7f4e487b7100000000000000000000000000000000000000000000000000000000600052604160045260246000fd5b62000d6a8262000d1f565b810181811067ffffffffffffffff8211171562000d8c5762000d8b62000d30565b5b80604052505050565b600062000da162000a49565b905062000daf828262000d5f565b919050565b600067ffffffffffffffff82111562000dd25762000dd162000d30565b5b62000ddd8262000d1f565b9050602081019050919050565b82818337600083830152505050565b600062000e1062000e0a8462000db4565b62000d95565b90508281526020810184848401111562000e2f5762000e2e62000d1a565b5b62000e3c84828562000dea565b509392505050565b600082601f83011262000e5c5762000e5b62000d15565b5b813562000e6e84826020860162000df9565b91505092915050565b6000806000806080858703121562000e945762000e9362000a53565b5b600062000ea48782880162000aab565b945050602085013567ffffffffffffffff81111562000ec85762000ec762000a58565b5b62000ed68782880162000e44565b935050604085013567ffffffffffffffff81111562000efa5762000ef962000a58565b5b62000f088782880162000e44565b925050606062000f1b8782880162000c44565b91505092959194509250565b62000f328162000a7d565b82525050565b600060208201905062000f4f600083018462000f27565b92915050565b62000f608162000c20565b82525050565b600060208201905062000f7d600083018462000f55565b92915050565b600081519050919050565b600082825260208201905092915050565b60005b8381101562000fbf57808201518184015260208101905062000fa2565b60008484015250505050565b600062000fd88262000f83565b62000fe4818562000f8e565b935062000ff681856020860162000f9f565b620010018162000d1f565b840191505092915050565b600060c08201905062001023600083018962000f27565b62001032602083018862000f27565b818103604083015262001046818762000fcb565b905081810360608301526200105c818662000fcb565b90506200106d608083018562000f55565b6200107c60a083018462000f55565b979650505050505050565b600081519050919050565b6000819050602082019050919050565b620010ad8162000cd3565b82525050565b6000620010c18383620010a2565b60208301905092915050565b6000602082019050919050565b6000620010e78262001087565b620010f3818562000b39565b9350620011008362001092565b8060005b83811015620011375781516200111b8882620010b3565b97506200112883620010cd565b92505060018101905062001104565b5085935050505092915050565b60006020820190508181036000830152620011608184620010da565b905092915050565b6000806040838503121562001182576200118162000a53565b5b6000620011928582860162000aab565b9250506020620011a58582860162000c44565b9150509250929050565b6000608082019050620011c6600083018762000f27565b8181036020830152620011da818662000fcb565b90508181036040830152620011f0818562000fcb565b905062001201606083018462000f55565b95945050505050565b6000606082019050818103600083015262001226818662000fcb565b905062001237602083018562000f55565b62001246604083018462000f55565b949350505050565b7f496e76616c69642070726f6a65637420696e6465780000000000000000000000600082015250565b60006200128660158362000f8e565b915062001293826200124e565b602082019050919050565b60006020820190508181036000830152620012b98162001277565b9050919050565b7f4e487b7100000000000000000000000000000000000000000000000000000000600052603260045260246000fd5b600081519050620013008162000a91565b92915050565b6000602082840312156200131f576200131e62000a53565b5b60006200132f84828501620012ef565b91505092915050565b60006200134f620013498462000db4565b62000d95565b9050828152602081018484840111156200136e576200136d62000d1a565b5b6200137b84828562000f9f565b509392505050565b600082601f8301126200139b576200139a62000d15565b5b8151620013ad84826020860162001338565b91505092915050565b600060208284031215620013cf57620013ce62000a53565b5b600082015167ffffffffffffffff811115620013f057620013ef62000a58565b5b620013fe8482850162001383565b91505092915050565b600081519050620014188162000c2a565b92915050565b60006020828403121562001437576200143662000a53565b5b6000620014478482850162001407565b9150509291505056fe60806040523480156200001157600080fd5b50604051620035e4380380620035e4833981810160405281019062000037919062000327565b836000806101000a81548173ffffffffffffffffffffffffffffffffffffffff021916908373ffffffffffffffffffffffffffffffffffffffff16021790555033600160006101000a81548173ffffffffffffffffffffffffffffffffffffffff021916908373ffffffffffffffffffffffffffffffffffffffff1602179055508260029081620000c9919062000618565b508160039081620000db919062000618565b50806004819055504260058190555050505050620006ff565b6000604051905090565b600080fd5b600080fd5b600073ffffffffffffffffffffffffffffffffffffffff82169050919050565b6000620001358262000108565b9050919050565b620001478162000128565b81146200015357600080fd5b50565b60008151905062000167816200013c565b92915050565b600080fd5b600080fd5b6000601f19601f8301169050919050565b7f4e487b7100000000000000000000000000000000000000000000000000000000600052604160045260246000fd5b620001c28262000177565b810181811067ffffffffffffffff82111715620001e457620001e362000188565b5b80604052505050565b6000620001f9620000f4565b9050620002078282620001b7565b919050565b600067ffffffffffffffff8211156200022a576200022962000188565b5b620002358262000177565b9050602081019050919050565b60005b838110156200026257808201518184015260208101905062000245565b60008484015250505050565b6000620002856200027f846200020c565b620001ed565b905082815260208101848484011115620002a457620002a362000172565b5b620002b184828562000242565b509392505050565b600082601f830112620002d157620002d06200016d565b5b8151620002e38482602086016200026e565b91505092915050565b6000819050919050565b6200030181620002ec565b81146200030d57600080fd5b50565b6000815190506200032181620002f6565b92915050565b60008060008060808587031215620003445762000343620000fe565b5b6000620003548782880162000156565b945050602085015167ffffffffffffffff81111562000378576200037762000103565b5b6200038687828801620002b9565b935050604085015167ffffffffffffffff811115620003aa57620003a962000103565b5b620003b887828801620002b9565b9250506060620003cb8782880162000310565b91505092959194509250565b600081519050919050565b7f4e487b7100000000000000000000000000000000000000000000000000000000600052602260045260246000fd5b600060028204905060018216806200042a57607f821691505b60208210810362000440576200043f620003e2565b5b50919050565b60008190508160005260206000209050919050565b60006020601f8301049050919050565b600082821b905092915050565b600060088302620004aa7fffffffffffffffffffffffffffffffffffffffffffffffffffffffffffffffff826200046b565b620004b686836200046b565b95508019841693508086168417925050509392505050565b6000819050919050565b6000620004f9620004f3620004ed84620002ec565b620004ce565b620002ec565b9050919050565b6000819050919050565b6200051583620004d8565b6200052d620005248262000500565b84845462000478565b825550505050565b600090565b6200054462000535565b620005518184846200050a565b505050565b5b8181101562000579576200056d6000826200053a565b60018101905062000557565b5050565b601f821115620005c857620005928162000446565b6200059d846200045b565b81016020851015620005ad578190505b620005c5620005bc856200045b565b83018262000556565b50505b505050565b600082821c905092915050565b6000620005ed60001984600802620005cd565b1980831691505092915050565b6000620006088383620005da565b9150826002028217905092915050565b6200062382620003d7565b67ffffffffffffffff8111156200063f576200063e62000188565b5b6200064b825462000411565b620006588282856200057d565b600060209050601f8311600181146200069057600084156200067b578287015190505b620006878582620005fa565b865550620006f7565b601f198416620006a08662000446565b60005b82811015620006ca57848901518255600182019150602085019450602081019050620006a3565b86831015620006ea5784890151620006e6601f891682620005da565b8355505b6001600288020188555050505b505050505050565b612ed5806200070f6000396000f3fe608060405234801561001057600080fd5b506004361061014d5760003560e01c80637a3a0e84116100c3578063cf09e0d01161007c578063cf09e0d0146103c2578063dc296ae1146103e0578063e89e4ed614610410578063f716139f14610447578063f851a44014610463578063fb4adf52146104815761014d565b80637a3a0e84146103145780638f4cf247146103325780639000b3d6146103505780639612421c1461036c578063c407670f14610388578063ca2dfd0a146103a65761014d565b806333999c171161011557806333999c1714610252578063438596321461026e5780634a79d50c1461029e57806361203265146102bc5780637284e416146102da57806372fe1e1d146102f85761014d565b806310d145e01461015257806311149ada146101875780632442e1cb146101bc5780632bc3d7aa146101f25780633310521814610222575b600080fd5b61016c60048036038101906101679190611d4a565b61049f565b60405161017e96959493929190611ee7565b60405180910390f35b6101a1600480360381019061019c9190611d4a565b610590565b6040516101b396959493929190611ee7565b60405180910390f35b6101d660048036038101906101d19190611d4a565b61077a565b6040516101e99796959493929190611f6a565b60405180910390f35b61020c60048036038101906102079190612013565b6109bf565b6040516102199190612040565b60405180910390f35b61023c60048036038101906102379190612013565b6109df565b6040516102499190612040565b60405180910390f35b61026c6004803603810190610267919061205b565b6109ff565b005b6102886004803603810190610283919061209b565b610ba3565b6040516102959190612040565b60405180910390f35b6102a6610bd2565b6040516102b391906120db565b60405180910390f35b6102c4610c60565b6040516102d191906120fd565b60405180910390f35b6102e2610c84565b6040516102ef91906120db565b60405180910390f35b610312600480360381019061030d9190612279565b610d12565b005b61031c611016565b60405161032991906122fc565b60405180910390f35b61033a61101c565b60405161034791906122fc565b60405180910390f35b61036a60048036038101906103659190612013565b611029565b005b61038660048036038101906103819190612317565b6111fc565b005b610390611422565b60405161039d91906122fc565b60405180910390f35b6103c060048036038101906103bb9190612013565b611428565b005b6103ca6115fa565b6040516103d791906122fc565b60405180910390f35b6103fa60048036038101906103f5919061209b565b611600565b6040516104079190612040565b60405180910390f35b61042a60048036038101906104259190611d4a565b611668565b60405161043e9897969594939291906123a2565b60405180910390f35b610461600480360381019061045c919061245a565b6117ea565b005b61046b611b34565b60405161047891906120fd565b60405180910390f35b610489611b5a565b60405161049691906122fc565b60405180910390f35b60076020528060005260406000206000915090508060000154908060010154908060020180546104ce906124c9565b80601f01602080910402602001604051908101604052809291908181526020018280546104fa906124c9565b80156105475780601f1061051c57610100808354040283529160200191610547565b820191906000526020600020905b81548152906001019060200180831161052a57829003601f168201915b5050505050908060030154908060040160009054906101000a900473ffffffffffffffffffffffffffffffffffffffff16908060040160149054906101000a900460ff16905086565b600080606060008060008660068054905081106105e2576040517f08c379a00000000000000000000000000000000000000000000000000000000081526004016105d990612546565b60405180910390fd5b6000600760008a81526020019081526020016000206040518060c00160405290816000820154815260200160018201548152602001600282018054610626906124c9565b80601f0160208091040260200160405190810160405280929190818152602001828054610652906124c9565b801561069f5780601f106106745761010080835404028352916020019161069f565b820191906000526020600020905b81548152906001019060200180831161068257829003601f168201915b50505050508152602001600382015481526020016004820160009054906101000a900473ffffffffffffffffffffffffffffffffffffffff1673ffffffffffffffffffffffffffffffffffffffff1673ffffffffffffffffffffffffffffffffffffffff1681526020016004820160149054906101000a900460ff16600381111561072d5761072c611e70565b5b600381111561073f5761073e611e70565b5b815250509050806000015181602001518260400151836060015184608001518560a00151975097509750975097509750505091939550919395565b60608060008060008060008760068054905081106107cd576040517f08c379a00000000000000000000000000000000000000000000000000000000081526004016107c490612546565b60405180910390fd5b600060068a815481106107e3576107e2612566565b5b90600052602060002090600702016040518061010001604052908160008201805461080d906124c9565b80601f0160208091040260200160405190810160405280929190818152602001828054610839906124c9565b80156108865780601f1061085b57610100808354040283529160200191610886565b820191906000526020600020905b81548152906001019060200180831161086957829003601f168201915b5050505050815260200160018201805461089f906124c9565b80601f01602080910402602001604051908101604052809291908181526020018280546108cb906124c9565b80156109185780601f106108ed57610100808354040283529160200191610918565b820191906000526020600020905b8154815290600101906020018083116108fb57829003601f168201915b50505050508152602001600282015481526020016003820160009054906101000a900460ff161515151581526020016003820160019054906101000a900460ff1615151515815260200160048201548152602001600582015481526020016006820154815250509050806000015181602001518260400151836060015184608001518560a001518660c0015198509850985098509850985098505050919395979092949650565b600a6020528060005260406000206000915054906101000a900460ff1681565b60096020528060005260406000206000915054906101000a900460ff1681565b600160009054906101000a900473ffffffffffffffffffffffffffffffffffffffff1673ffffffffffffffffffffffffffffffffffffffff163373ffffffffffffffffffffffffffffffffffffffff1614610a8f576040517f08c379a0000000000000000000000000000000000000000000000000000000008152600401610a8690612607565b60405180910390fd5b600a60008373ffffffffffffffffffffffffffffffffffffffff1673ffffffffffffffffffffffffffffffffffffffff16815260200190815260200160002060009054906101000a900460ff16610b51576001600a60008473ffffffffffffffffffffffffffffffffffffffff1673ffffffffffffffffffffffffffffffffffffffff16815260200190815260200160002060006101000a81548160ff021916908315150217905550600c6000815480929190610b4b90612656565b91905055505b8173ffffffffffffffffffffffffffffffffffffffff167fa8b2d18846245d44c744fa71ec159345ce064021b22654f91b6ebfbe64bcf3b182604051610b9791906122fc565b60405180910390a25050565b60086020528160005260406000206020528060005260406000206000915091509054906101000a900460ff1681565b60028054610bdf906124c9565b80601f0160208091040260200160405190810160405280929190818152602001828054610c0b906124c9565b8015610c585780601f10610c2d57610100808354040283529160200191610c58565b820191906000526020600020905b815481529060010190602001808311610c3b57829003601f168201915b505050505081565b60008054906101000a900473ffffffffffffffffffffffffffffffffffffffff1681565b60038054610c91906124c9565b80601f0160208091040260200160405190810160405280929190818152602001828054610cbd906124c9565b8015610d0a5780601f10610cdf57610100808354040283529160200191610d0a565b820191906000526020600020905b815481529060010190602001808311610ced57829003601f168201915b505050505081565b60008054906101000a900473ffffffffffffffffffffffffffffffffffffffff1673ffffffffffffffffffffffffffffffffffffffff163373ffffffffffffffffffffffffffffffffffffffff1614610da0576040517f08c379a0000000000000000000000000000000000000000000000000000000008152600401610d9790612710565b60405180910390fd5b836006805490508110610de8576040517f08c379a0000000000000000000000000000000000000000000000000000000008152600401610ddf90612546565b60405180910390fd5b600060068681548110610dfe57610dfd612566565b5b906000526020600020906007020190508060030160009054906101000a900460ff1615610e60576040517f08c379a0000000000000000000000000000000000000000000000000000000008152600401610e579061277c565b60405180910390fd5b6000600760008881526020019081526020016000206003015414610eb9576040517f08c379a0000000000000000000000000000000000000000000000000000000008152600401610eb0906127e8565b60405180910390fd5b6040518060c001604052808681526020018581526020018481526020014281526020013373ffffffffffffffffffffffffffffffffffffffff16815260200160006003811115610f0c57610f0b611e70565b5b8152506007600088815260200190815260200160002060008201518160000155602082015181600101556040820151816002019081610f4b91906129b4565b506060820151816003015560808201518160040160006101000a81548173ffffffffffffffffffffffffffffffffffffffff021916908373ffffffffffffffffffffffffffffffffffffffff16021790555060a08201518160040160146101000a81548160ff02191690836003811115610fc857610fc7611e70565b5b0217905550905050857fb20536e1d2514757b8c98d154d057b860f38137288748c41ebaa88730ab4e574868686336040516110069493929190612a86565b60405180910390a2505050505050565b60045481565b6000600680549050905090565b600160009054906101000a900473ffffffffffffffffffffffffffffffffffffffff1673ffffffffffffffffffffffffffffffffffffffff163373ffffffffffffffffffffffffffffffffffffffff16146110b9576040517f08c379a00000000000000000000000000000000000000000000000000000000081526004016110b090612607565b60405180910390fd5b600960008273ffffffffffffffffffffffffffffffffffffffff1673ffffffffffffffffffffffffffffffffffffffff16815260200190815260200160002060009054906101000a900460ff1615611146576040517f08c379a000000000000000000000000000000000000000000000000000000000815260040161113d90612b1e565b60405180910390fd5b6001600960008373ffffffffffffffffffffffffffffffffffffffff1673ffffffffffffffffffffffffffffffffffffffff16815260200190815260200160002060006101000a81548160ff021916908315150217905550600b60008154809291906111b190612656565b91905055508073ffffffffffffffffffffffffffffffffffffffff167f6d05492139c5ea989514a5d2150c028041e5c087e2a39967f67dc7d2655adb8160405160405180910390a250565b60008054906101000a900473ffffffffffffffffffffffffffffffffffffffff1673ffffffffffffffffffffffffffffffffffffffff163373ffffffffffffffffffffffffffffffffffffffff161461128a576040517f08c379a000000000000000000000000000000000000000000000000000000000815260040161128190612710565b60405180910390fd5b600081116112cd576040517f08c379a00000000000000000000000000000000000000000000000000000000081526004016112c490612b8a565b60405180910390fd5b60066040518061010001604052808581526020018481526020018381526020016000151581526020016000151581526020016000815260200160008152602001428152509080600181540180825580915050600190039060005260206000209060070201600090919091909150600082015181600001908161134f91906129b4565b50602082015181600101908161136591906129b4565b506040820151816002015560608201518160030160006101000a81548160ff02191690831515021790555060808201518160030160016101000a81548160ff02191690831515021790555060a0820151816004015560c0820151816005015560e08201518160060155505060016006805490506113e29190612baa565b7ffb2640e61011d6cc3359150a461928a5c739c62d7fe25212ce2bc7ce424aee4d84848460405161141593929190612bde565b60405180910390a2505050565b600c5481565b600160009054906101000a900473ffffffffffffffffffffffffffffffffffffffff1673ffffffffffffffffffffffffffffffffffffffff163373ffffffffffffffffffffffffffffffffffffffff16146114b8576040517f08c379a00000000000000000000000000000000000000000000000000000000081526004016114af90612607565b60405180910390fd5b600960008273ffffffffffffffffffffffffffffffffffffffff1673ffffffffffffffffffffffffffffffffffffffff16815260200190815260200160002060009054906101000a900460ff16611544576040517f08c379a000000000000000000000000000000000000000000000000000000000815260040161153b90612c6f565b60405180910390fd5b6000600960008373ffffffffffffffffffffffffffffffffffffffff1673ffffffffffffffffffffffffffffffffffffffff16815260200190815260200160002060006101000a81548160ff021916908315150217905550600b60008154809291906115af90612c8f565b91905055508073ffffffffffffffffffffffffffffffffffffffff167f44a3cd4eb5cc5748f6169df057b1cb2ae4c383e87cd94663c430e095d4cba42460405160405180910390a250565b60055481565b60006008600084815260200190815260200160002060008373ffffffffffffffffffffffffffffffffffffffff1673ffffffffffffffffffffffffffffffffffffffff16815260200190815260200160002060009054906101000a900460ff16905092915050565b6006818154811061167857600080fd5b906000526020600020906007020160009150905080600001805461169b906124c9565b80601f01602080910402602001604051908101604052809291908181526020018280546116c7906124c9565b80156117145780601f106116e957610100808354040283529160200191611714565b820191906000526020600020905b8154815290600101906020018083116116f757829003601f168201915b505050505090806001018054611729906124c9565b80601f0160208091040260200160405190810160405280929190818152602001828054611755906124c9565b80156117a25780601f10611777576101008083540402835291602001916117a2565b820191906000526020600020905b81548152906001019060200180831161178557829003601f168201915b5050505050908060020154908060030160009054906101000a900460ff16908060030160019054906101000a900460ff16908060040154908060050154908060060154905088565b600960003373ffffffffffffffffffffffffffffffffffffffff1673ffffffffffffffffffffffffffffffffffffffff16815260200190815260200160002060009054906101000a900460ff16611876576040517f08c379a000000000000000000000000000000000000000000000000000000000815260040161186d90612d2a565b60405180910390fd5b8160068054905081106118be576040517f08c379a00000000000000000000000000000000000000000000000000000000081526004016118b590612546565b60405180910390fd5b6008600084815260200190815260200160002060003373ffffffffffffffffffffffffffffffffffffffff1673ffffffffffffffffffffffffffffffffffffffff16815260200190815260200160002060009054906101000a900460ff161561195c576040517f08c379a000000000000000000000000000000000000000000000000000000000815260040161195390612d96565b60405180910390fd5b60006007600085815260200190815260200160002060030154116119b5576040517f08c379a00000000000000000000000000000000000000000000000000000000081526004016119ac90612e02565b60405180910390fd5b6000600684815481106119cb576119ca612566565b5b906000526020600020906007020190508060030160009054906101000a900460ff1615611a2d576040517f08c379a0000000000000000000000000000000000000000000000000000000008152600401611a249061277c565b60405180910390fd5b60016008600086815260200190815260200160002060003373ffffffffffffffffffffffffffffffffffffffff1673ffffffffffffffffffffffffffffffffffffffff16815260200190815260200160002060006101000a81548160ff0219169083151502179055508215611abb57806004016000815480929190611ab190612656565b9190505550611ad6565b806005016000815480929190611ad090612656565b91905055505b3373ffffffffffffffffffffffffffffffffffffffff16847fc4ce3f0cdcc6c3a55938650ba7706e6b5d9f686f108fdce6a6bb68424fe1ed7585604051611b1d9190612e48565b60405180910390a3611b2e84611b60565b50505050565b600160009054906101000a900473ffffffffffffffffffffffffffffffffffffffff1681565b600b5481565b600060068281548110611b7657611b75612566565b5b906000526020600020906007020190508060020154816004015410611c515760018160030160016101000a81548160ff02191690831515021790555060018160030160006101000a81548160ff02191690831515021790555060026007600084815260200190815260200160002060040160146101000a81548160ff02191690836003811115611c0957611c08611e70565b5b0217905550817f6e3fd8bb18eed6833ae758e07c361bf145ce27c88bdf6d5029ddabf188d72ca6826004015442604051611c44929190612e76565b60405180910390a2611cfc565b8060020154816005015410611cfb5760018160030160006101000a81548160ff02191690831515021790555060036007600084815260200190815260200160002060040160146101000a81548160ff02191690836003811115611cb757611cb6611e70565b5b0217905550817f99c1e384941f7e42e3f9fe91b348aa32f8105b4e750b515d7e0d41ee8b66b0cc826005015442604051611cf2929190612e76565b60405180910390a25b5b5050565b6000604051905090565b600080fd5b600080fd5b6000819050919050565b611d2781611d14565b8114611d3257600080fd5b50565b600081359050611d4481611d1e565b92915050565b600060208284031215611d6057611d5f611d0a565b5b6000611d6e84828501611d35565b91505092915050565b6000819050919050565b611d8a81611d77565b82525050565b600081519050919050565b600082825260208201905092915050565b60005b83811015611dca578082015181840152602081019050611daf565b60008484015250505050565b6000601f19601f8301169050919050565b6000611df282611d90565b611dfc8185611d9b565b9350611e0c818560208601611dac565b611e1581611dd6565b840191505092915050565b611e2981611d14565b82525050565b600073ffffffffffffffffffffffffffffffffffffffff82169050919050565b6000611e5a82611e2f565b9050919050565b611e6a81611e4f565b82525050565b7f4e487b7100000000000000000000000000000000000000000000000000000000600052602160045260246000fd5b60048110611eb057611eaf611e70565b5b50565b6000819050611ec182611e9f565b919050565b6000611ed182611eb3565b9050919050565b611ee181611ec6565b82525050565b600060c082019050611efc6000830189611d81565b611f096020830188611d81565b8181036040830152611f1b8187611de7565b9050611f2a6060830186611e20565b611f376080830185611e61565b611f4460a0830184611ed8565b979650505050505050565b60008115159050919050565b611f6481611f4f565b82525050565b600060e0820190508181036000830152611f84818a611de7565b90508181036020830152611f988189611de7565b9050611fa76040830188611e20565b611fb46060830187611f5b565b611fc16080830186611f5b565b611fce60a0830185611e20565b611fdb60c0830184611e20565b98975050505050505050565b611ff081611e4f565b8114611ffb57600080fd5b50565b60008135905061200d81611fe7565b92915050565b60006020828403121561202957612028611d0a565b5b600061203784828501611ffe565b91505092915050565b60006020820190506120556000830184611f5b565b92915050565b6000806040838503121561207257612071611d0a565b5b600061208085828601611ffe565b925050602061209185828601611d35565b9150509250929050565b600080604083850312156120b2576120b1611d0a565b5b60006120c085828601611d35565b92505060206120d185828601611ffe565b9150509250929050565b600060208201905081810360008301526120f58184611de7565b905092915050565b60006020820190506121126000830184611e61565b92915050565b61212181611d77565b811461212c57600080fd5b50565b60008135905061213e81612118565b92915050565b600080fd5b600080fd5b7f4e487b7100000000000000000000000000000000000000000000000000000000600052604160045260246000fd5b61218682611dd6565b810181811067ffffffffffffffff821117156121a5576121a461214e565b5b80604052505050565b60006121b8611d00565b90506121c4828261217d565b919050565b600067ffffffffffffffff8211156121e4576121e361214e565b5b6121ed82611dd6565b9050602081019050919050565b82818337600083830152505050565b600061221c612217846121c9565b6121ae565b90508281526020810184848401111561223857612237612149565b5b6122438482856121fa565b509392505050565b600082601f8301126122605761225f612144565b5b8135612270848260208601612209565b91505092915050565b6000806000806080858703121561229357612292611d0a565b5b60006122a187828801611d35565b94505060206122b28782880161212f565b93505060406122c38782880161212f565b925050606085013567ffffffffffffffff8111156122e4576122e3611d0f565b5b6122f08782880161224b565b91505092959194509250565b60006020820190506123116000830184611e20565b92915050565b6000806000606084860312156123305761232f611d0a565b5b600084013567ffffffffffffffff81111561234e5761234d611d0f565b5b61235a8682870161224b565b935050602084013567ffffffffffffffff81111561237b5761237a611d0f565b5b6123878682870161224b565b925050604061239886828701611d35565b9150509250925092565b60006101008201905081810360008301526123bd818b611de7565b905081810360208301526123d1818a611de7565b90506123e06040830189611e20565b6123ed6060830188611f5b565b6123fa6080830187611f5b565b61240760a0830186611e20565b61241460c0830185611e20565b61242160e0830184611e20565b9998505050505050505050565b61243781611f4f565b811461244257600080fd5b50565b6000813590506124548161242e565b92915050565b6000806040838503121561247157612470611d0a565b5b600061247f85828601611d35565b925050602061249085828601612445565b9150509250929050565b7f4e487b7100000000000000000000000000000000000000000000000000000000600052602260045260246000fd5b600060028204905060018216806124e157607f821691505b6020821081036124f4576124f361249a565b5b50919050565b7f496e76616c6964206d696c6573746f6e65204944000000000000000000000000600082015250565b6000612530601483611d9b565b915061253b826124fa565b602082019050919050565b6000602082019050818103600083015261255f81612523565b9050919050565b7f4e487b7100000000000000000000000000000000000000000000000000000000600052603260045260246000fd5b7f4f6e6c792061646d696e2063616e20706572666f726d2074686973206163746960008201527f6f6e000000000000000000000000000000000000000000000000000000000000602082015250565b60006125f1602283611d9b565b91506125fc82612595565b604082019050919050565b60006020820190508181036000830152612620816125e4565b9050919050565b7f4e487b7100000000000000000000000000000000000000000000000000000000600052601160045260246000fd5b600061266182611d14565b91507fffffffffffffffffffffffffffffffffffffffffffffffffffffffffffffffff820361269357612692612627565b5b600182019050919050565b7f4f6e6c79206f7267616e697a65722063616e20706572666f726d20746869732060008201527f616374696f6e0000000000000000000000000000000000000000000000000000602082015250565b60006126fa602683611d9b565b91506127058261269e565b604082019050919050565b60006020820190508181036000830152612729816126ed565b9050919050565b7f4d696c6573746f6e6520616c726561647920636f6d706c657465640000000000600082015250565b6000612766601b83611d9b565b915061277182612730565b602082019050919050565b6000602082019050818103600083015261279581612759565b9050919050565b7f50726f6f6620616c7265616479207375626d6974746564000000000000000000600082015250565b60006127d2601783611d9b565b91506127dd8261279c565b602082019050919050565b60006020820190508181036000830152612801816127c5565b9050919050565b60008190508160005260206000209050919050565b60006020601f8301049050919050565b600082821b905092915050565b60006008830261286a7fffffffffffffffffffffffffffffffffffffffffffffffffffffffffffffffff8261282d565b612874868361282d565b95508019841693508086168417925050509392505050565b6000819050919050565b60006128b16128ac6128a784611d14565b61288c565b611d14565b9050919050565b6000819050919050565b6128cb83612896565b6128df6128d7826128b8565b84845461283a565b825550505050565b600090565b6128f46128e7565b6128ff8184846128c2565b505050565b5b81811015612923576129186000826128ec565b600181019050612905565b5050565b601f8211156129685761293981612808565b6129428461281d565b81016020851015612951578190505b61296561295d8561281d565b830182612904565b50505b505050565b600082821c905092915050565b600061298b6000198460080261296d565b1980831691505092915050565b60006129a4838361297a565b9150826002028217905092915050565b6129bd82611d90565b67ffffffffffffffff8111156129d6576129d561214e565b5b6129e082546124c9565b6129eb828285612927565b600060209050601f831160018114612a1e5760008415612a0c578287015190505b612a168582612998565b865550612a7e565b601f198416612a2c86612808565b60005b82811015612a5457848901518255600182019150602085019450602081019050612a2f565b86831015612a715784890151612a6d601f89168261297a565b8355505b6001600288020188555050505b505050505050565b6000608082019050612a9b6000830187611d81565b612aa86020830186611d81565b8181036040830152612aba8185611de7565b9050612ac96060830184611e61565b95945050505050565b7f416c726561647920612076657269666965720000000000000000000000000000600082015250565b6000612b08601283611d9b565b9150612b1382612ad2565b602082019050919050565b60006020820190508181036000830152612b3781612afb565b9050919050565b7f526571756972656420617070726f76616c73206d757374206265203e20300000600082015250565b6000612b74601e83611d9b565b9150612b7f82612b3e565b602082019050919050565b60006020820190508181036000830152612ba381612b67565b9050919050565b6000612bb582611d14565b9150612bc083611d14565b9250828203905081811115612bd857612bd7612627565b5b92915050565b60006060820190508181036000830152612bf88186611de7565b90508181036020830152612c0c8185611de7565b9050612c1b6040830184611e20565b949350505050565b7f4e6f742061207665726966696572000000000000000000000000000000000000600082015250565b6000612c59600e83611d9b565b9150612c6482612c23565b602082019050919050565b60006020820190508181036000830152612c8881612c4c565b9050919050565b6000612c9a82611d14565b915060008203612cad57612cac612627565b5b600182039050919050565b7f4f6e6c79207665726966696572732063616e20706572666f726d20746869732060008201527f616374696f6e0000000000000000000000000000000000000000000000000000602082015250565b6000612d14602683611d9b565b9150612d1f82612cb8565b604082019050919050565b60006020820190508181036000830152612d4381612d07565b9050919050565b7f596f75206861766520616c726561647920766f74656400000000000000000000600082015250565b6000612d80601683611d9b565b9150612d8b82612d4a565b602082019050919050565b60006020820190508181036000830152612daf81612d73565b9050919050565b7f4e6f2070726f6f66207375626d69747465640000000000000000000000000000600082015250565b6000612dec601283611d9b565b9150612df782612db6565b602082019050919050565b60006020820190508181036000830152612e1b81612ddf565b9050919050565b50565b6000612e32600083611d9b565b9150612e3d82612e22565b600082019050919050565b6000604082019050612e5d6000830184611f5b565b8181036020830152612e6e81612e25565b905092915050565b6000604082019050612e8b6000830185611e20565b612e986020830184611e20565b939250505056fea26469706673582212201085abe7af708743ffe8d15661fd1f6d4135455c93cf75bfe0c0cb4f39a68b2e64736f6c63430008180033a26469706673582212201121f9fd2ba1de4c4552e75d31607aef7671ce4adbefd2f49ae444a0ba9c6f1b64736f6c63430008180033",
  "linkReferences": {},
  "deployedLinkReferences": {}
}